:020000040800F2
:100000005807002035020008591F00082F1D00085E
:10001000851E0008F71A0008B92D0008000000002E
:100020000000000000000000000000005522000851
:10003000F91A000800000000252100081524000816
:100040004F0200084F0200084F0200084F0200084C
:100050004F0200084F0200084F0200084F0200083C
:100060004F0200084F0200084F0200084F0200082C
:100070004F0200084F0200084F0200084F0200081C
:100080004F0200084F0200084F0200084F0200080C
:100090004F0200084F0200084F0200084F020008FC
:1000A0004F0200084D2600084F0200084F020008CA
:1000B0004F0200084F0200084F0200084F020008DC
:1000C0004F0200084F0200084F0200084F020008CC
:1000D0004F020008092C00084F0200084F020008D8
:1000E0004F0200084F0200084F02000800F002F81B
:1000F00000F090F80AA090E8000C82448344AAF132
:100100000107DA4501D100F085F8AFF2090EBAE82F
:100110000F0013F0010F18BFFB1A43F0010318473B
:10012000903B0000B03B0000103A24BF78C878C173
:10013000FAD8520724BF30C830C144BF04680C60ED
:10014000704700000023002400250026103A28BF35
:1001500078C1FBD8520728BF30C148BF0B60704739
:100160006E2900F07B81702900F0BD82662903F0C2
:100170001C85652903F01985672903F01685612917
:1001800003F0158503681B0A28BF41F08001692927
:1001900000F02881642900F02581752900F0228172
:1001A0006F2900F04A82782900F08982E92900F05D
:1001B000E581E42900F0E281F52900F0DF81EF29F3
:1001C00000F04782F82900F088820368DB0928BF25
:1001D00041F08001632900F08B87732900F090873C
:1001E000E32900F09B87F32900F0A08700207047E7
:1001F0001FB500F0F1FF04000020002102F08AFE8C
:10020000401C60600020002102F06EFEE0601FBD17
:1002100010B510BD00F0B2FF1146FFF7E9FF02F084
:10022000E7FD01F08FF803B4FFF7F2FF03BC01F024
:1002300093F800000948804709480047FEE7FEE7B9
:10024000FEE7FEE7FEE7FEE7FEE7FEE7FEE7FEE786
:1002500004480549054A064B704700001924000868
:10026000ED00000858010020580700205803002026
:10027000580300201CB50C46064B7B446946009091
:10028000204600F004F904460020694600F012F907
:1002900020461CBD370200004FF0013C50F8042BF3
:1002A00051F8043B9A4221D1A2EB0C03934313EA89
:1002B000CC1317D150F8042B51F8043B9A4215D1B6
:1002C000A2EB0C03934313EACC130BD150F8042B8D
:1002D00051F8043B9A4209D1A2EB0C03934313EA71
:1002E000CC13DBD04FF00000704700BFD01A01BA2A
:1002F000B1FA81F101F0180122FA01F0CB40C1F10D
:100300002001DBB2C0B2C01A2CFA01F3D11A91431A
:1003100011EAC311E6D1704770477047704770B556
:10032000044685690068C10601D5302600E0202614
:10033000C00707D070BDD4E9012130469047206A3C
:10034000401C20626D1EF6D570BD70B504468569EF
:100350000078C00707D170BDD4E901212020904763
:10036000206A401C20626D1EF6D570BD09684A05E2
:1003700001D540B27047C905FCD500B27047096885
:100380004A0501D5C0B27047C905FCD580B2704797
:1003900070B50C460546012A05D02878800600D5A0
:1003A000EA69002302E0012305E05B1C934202D2CC
:1003B000E05C0028F9D1A869E618C01AA861286A8B
:1003C000184428622846FFF7AAFF04E0D5E9012176
:1003D00014F8010B9047B442F8D32846FFF7B5FF55
:1003E00070BD00002DE9F041064600241068752913
:1003F000314616A510D0FFF7B9FF002802DA4042B7
:1004000013A507E031688A0701D512A502E0490764
:1004100004D511A5012401E0FFF7B1FF00210A2254
:1004200006F1240709E0B0FBF2FCB0FBF2F302FB9B
:100430001C00303078541846491C0028F3D123465C
:100440002A463046BDE8F04100F061BA00000000E5
:100450002D0000002B000000200000001168026841
:10046000006A530501D508700AE0D30501D508805C
:1004700006E0130603D5C217C1E9000200E00860D8
:100480000120704701694A1C02610878704700B575
:100490008FB0CDE901310021059105497944CDE9BD
:1004A00003101146684600F029F90FB000BD0000A6
:1004B000E5FFFFFF0A6802F8010B0A6070470000C1
:1004C0002DE9FF5F15468A460446DFF8AC80F84404
:1004D0000027D8E900103E46CDE9001010E03AF8B8
:1004E00016106A4602A800F025FE411C07D02178AC
:1004F000890603D5E269391891420DD80744761C64
:100500002078800602D5E069B84205DDAE42E6DB20
:100510003AF816000028E2D1A069C01BA06120466D
:10052000FFF7FDFED8E90010CDE90010002017E02C
:100530003AF818106A4602A800F0FCFDB0F1FF3F3F
:1005400081460BD000250DF1080B05E0D4E901210F
:100550001BF8050090476D1C4D45F7D308F10100CD
:10056000B0428046E4DB206A384420622046FFF730
:10057000ECFEBDE8FF9F0000E23600002DE9F041EF
:100580008046D21D22F007020025D2E90002F5299B
:1005900015A614D0011E72F1000106DA0023D0EB7B
:1005A000030063EB020211A608E0D8F800108B07E5
:1005B00001D50FA602E0490701D50EA60125114677
:1005C000002408F1240704E000F05CF930323A55C9
:1005D000641C50EA0102F7D12B46324621464046C0
:1005E000BDE8F04100F093B9000000002D000000CC
:1005F0002B0000002000000030B4002100F1240492
:1006000008E002F00705D208303542EA4372DB0801
:100610006554491C52EA0305F3D10468002310A273
:10062000250707D5A40600D421B1C46901230DA272
:10063000641EC46130BC00F06AB910B5044621469E
:100640001068FFF79CFE02462046BDE810400023DC
:10065000D2E7D21D22F00701D1E90023CCE7000048
:100660000000000030000000F0B40D4601880905CC
:1006700002D5214C7C4402E01F4C7C440E34002106
:1006800000F1240608E002F00F071209E75D42EAD4
:1006900003721B097754491C52EA0307F3D102780D
:1006A0000023120704D5702D06D009B1022311349E
:1006B0002246F0BC00F02BB901231034F8E770B5E6
:1006C00004460D4621461068FFF759FE02462946AA
:1006D0002046BDE870400023C6E7D21D22F0070384
:1006E000D3E90023C0E70368126843F020030360E6
:1006F0000823C3610023B7E7443500002DE9F05F0C
:10070000894604464FF0000ADFF874B1FB44C0F894
:1007100020A02046E1688847002874D0252806D00C
:10072000D4E901219047206A401C2062F1E70026AD
:100730005F462046E16888472028054607DB312DC3
:1007400005D2781910F8200C08B10643F1E7B0077C
:1007500001D526F00406C4F81CA00027C4F818A090
:100760002A2D09D0284602F03CFB38B304EB870859
:10077000303DC8F8185019E059F8041B204604EB26
:1007800087029161E1688847012F054618D1E06929
:10079000002820DA26F020061DE0D8F8180000EB2B
:1007A000800005EB40003038C8F818002046E168AA
:1007B0008847054602F015FB0028EED1012F0AD02C
:1007C0002E2D08D12046E16888477F1C0546022F60
:1007D00046F02006C4DBA069002803DA404246F058
:1007E0000106A061F00701D026F010066C2D0BD099
:1007F000682D09D04C2D39D06A2D35D0742D35D0C7
:100800007A2D33D016E038E0E1682F46204688473D
:10081000B842054609D16C2F26D04FF48060E168BC
:10082000064320468847054604E06C2F1AD04FF453
:10083000807006430DB3A5F14100192802D8203578
:1008400046F400664A462946204626604E46FFF793
:1008500087FC80B101280BD0F61D26F0070000F1BF
:10086000080956E74020E4E78020D8E70020D6E7D3
:1008700006F104094DE7284652E7206ABDE8F09FDB
:10088000D434000030B5B0F10A024FEA900E71F195
:1008900000034EEA817EB0EB0E0061EB91014FEA5E
:1008A000101E4EEA017E10EB0E0041EB11114FEAD3
:1008B000102E4EEA016E10EB0E0041EB11214FEAB3
:1008C000104E4EEA014E10EB0E0041EB1141401864
:1008D00041F100014FEAD00040EA41704FEAD101F6
:1008E00010EB80054FEA810444EA907444EB010464
:1008F0006D1944EB0404521BA3414FF0000348BFA1
:100900000A3200D530BD401C41F1000130BD2DE957
:10091000F0470D4699469246044600F124080168C6
:10092000880604D5E06921F01001216000E0012073
:10093000A84201DD471B00E00027A1697A1902EBFC
:100940000900081AA0612078C00602D42046FFF7EB
:10095000E6FC002608E0D4E901211AF806009047D9
:10096000206A401C761C20624E45F4DB2078C006CD
:100970000AD52046FFF7D3FC06E0D4E90121302058
:100980009047206A401C2062381EA7F10107F4DC62
:1009900007E0D4E9012118F805009047206A401CBF
:1009A0002062281EA5F10105F3DC2046FFF7CDFCEF
:1009B0002078000602D50220BDE8F0870120FBE781
:1009C00070472DE9FF4F0C461E464FF0FF378BB0A6
:1009D000D2E90001DDF860800A908A46C1F30A5529
:1009E00005B93D46002108464FF00000BAF1000F5E
:1009F00000F4400005DA00EB80004FF4400101EA0A
:100A000050004FEA9059B9F1010F00DDB9460A983C
:100A100050EA4A000ED044F61050A5F2FF35454387
:100A20002F14B8F1000F1ED07542291E1EDDC9F12A
:100A300000021CE0B8F1010F4FF0000001D030219E
:100A400003E0F24305E02154401CB042FBDB30469A
:100A50000022002121540B99C1F80880C1E900202F
:100A60000FB0BDE8F08FBD1B6D1CDEE74A4600DA13
:100A7000694206A800F0F4FB06AB93E8070003AB5D
:100A800083E8070050460A9900F06DFC8DE80700E6
:100A9000A0F500501F3800900398002D0ADD42F2A7
:100AA0001F014A460844002303A90390684600F04A
:100AB000D6FE09E0A0F500504A461F38002303A9DE
:100AC0000390684600F0E0FE8DE807000004000C8B
:100AD00003D04FF0FF30410800E01046B8F1000F9E
:100AE00003D00022009215461EE0751E05D4FFF7C4
:100AF000C9FE303262556D1EF9D5B3460122084356
:100B000002D000227F1C04E02078302801D100228E
:100B10007F1E002A099784D01DE0112D07DAFFF708
:100B2000B1FE303262556D1C50EA0102F5D1084326
:100B300002D00098C8B10EE00021681E05E0235CD9
:100B4000625C63542254401E491C8142F7DBAB4671
:100B5000A81B401E0990002004F80B000B98099A6E
:100B6000C0F80880C0E9002B7AE711264FF0000892
:100B700057E72DE9F04F88460446D21D22F00701C1
:100B800091B0D1E90001CDE90A0102F016F902465F
:100B90000B98C00F01D02D2007E02068810701D5F8
:100BA0002B2002E0202101EAC000032A099001D095
:100BB000072A05DB03464146204600F011FB0BE106
:100BC0002078800601D5E06900E00620B8F1650FC5
:100BD000814606D0B8F1660F18D0B8F1670F70D112
:100BE00031E00020B9F1110F009001DB112301E089
:100BF00009F101030AAA01A90CA8FFF7E2FEDDE949
:100C00000C70002609F10105834647E001204B46A0
:100C100000904FF000470AAA01A90CA8FFF7D1FEE7
:100C2000DDE90DB00C995D46002610B909F101000F
:100C30000D18B9EB050003D4C0F1FF3609F1010529
:100C4000A5EB09002BE0B9F1010F01DA4FF0010922
:100C50000020B9F1110F0090484601DD112300E09A
:100C600003460AAA01A90CA8FFF7ABFEDDE90C7048
:100C70004D4600268346207800070AD4AB4500DAAB
:100C80005D4601A8012D04DD411911F8011C302930
:100C900007D04F4502DA17F1040F04DA012082462B
:100CA0000FE06D1EEEE7002F02DCED1B3E4403E07B
:100CB000781CA84200DD7D1CB81B00F1010A4FF032
:100CC00000472078000703D4AA4501DB4FF0FF3A24
:100CD0000021B7F1004F0DF143088DF8431024D0E7
:100CE00002202B23002F01DA7F422D230A21021E2E
:100CF000A0F1010000DC5FB197FBF1FC97FBF1F282
:100D000001FB1C7C17460CF1300C08F801CDEEE716
:100D1000A8F1010003702188090501D5452100E0F3
:100D20006521A0F1010800F8011C09980FA9A1EBA9
:100D30000807FF1D00B10120411901EBEA70A1690C
:100D40003844081A401EA0612078C00602D420460C
:100D5000FFF7E5FA099828B1D4E901219047206A04
:100D6000401C20622078C00622D52046FFF7D7FA23
:100D70001EE0002E04DBB34502DD01A8805D00E02B
:100D80003020D4E901219047206A401C2062761C63
:100D9000AAF101005FEA000A0AD100F01DFAC0685A
:100DA0000168405CD4E901219047206A401C206220
:100DB000281EA5F10105DCDC07E0D4E9012118F8C3
:100DC000010B9047206A401C2062381EA7F10107E2
:100DD000F3DC2046FFF7B9FA032011B041E600002A
:100DE0002DE9F04F04460D46D21D22F0070089B0D0
:100DF000D0E900974846394601F0DFFF0246F80F78
:100E000001D02D2307E02068810701D52B2302E0C4
:100E1000202101EAC0038DF820300BB1012000E051
:100E20000020032A824601D0072A04DB29462046F7
:100E300000F0D6F93FE12078800601D40D2500E0CE
:100E4000E569C7F30A560D2D49DA00214FEA175B11
:100E500008464FF00000002F00F4400007DA00EBD6
:100E600080004FF4400100EBD07001EA6000811572
:100E7000012901DD4FF0FF3100224FEA850CBCF162
:100E8000180F06D31346ACF118004FF08052C24041
:100E900003E04FF4801323FA0CF30CF10C0CBCF1BB
:100EA000200F04D3ACF1200C09FA0CF001E007FA92
:100EB0000CF000294FF0004801DD18B90FE00ED109
:100EC00040450CD319EB02095F4121B9404502D1DD
:100ED0009F4329EA0209BBEB175F00D0761C2088EC
:100EE000000502D57B48784402E07A4878441938F6
:100EF00008AA302302F80A30037C0AF10101002E0F
:100F00000AF1020A53546A4602DC4FF0300101E054
:100F10004FF031014FF001088DF8001002D0A6F219
:100F2000FF3603E059EA470100D06B4E002D02DC8A
:100F30002178090704D54FF002082E218DF8011001
:100F4000C44600210BE0C7F303433F01C35C491CC7
:100F50006D1E02F80830052908F1010801DA002D9C
:100F6000F1DC00210CE000EB1973491C1B786D1EAD
:100F7000082902F808304FEA091908F1010801DAD6
:100F8000002DF0DC21688B0602D516E0A8F10108DF
:100F9000E04505DD02EB080313F8013C302BF5D0EA
:100FA000B8F1000F09DD02EB080313F8013C2E2B0A
:100FB00003D1090701D4A8F10108002D05DD3E2168
:100FC00002F808106D1E08F10108407C002E02F89E
:100FD000080008F1010804DA2D20764202F8080022
:100FE00002E02B2002F808000A214FF47A708642B2
:100FF00008F101080BDB96FBF0F3303302F8083000
:1010000096FBF0F308F1010800FB136601E0642E83
:101010000CDB642096FBF0F3303302F8083096FBCB
:10102000F0F308F1010800FB136601E00A2E06DB6D
:1010300096FBF1F0303002F8080008F1010896FB49
:10104000F1F001FB1060303002F80800A16908F1EE
:10105000010808EB050202EB0A00081AA0612078DB
:10106000C00602D42046FFF75AF9216A08AE01EB08
:101070000A00206204E0D4E9012116F8010B904730
:10108000BAF1010AF7D22078C00602D52046FFF750
:1010900046F96E4609E016F8010B3E280FD0D4E958
:1010A00001219047206A401C2062B8F10108F2D269
:1010B0002046FFF74AF909B00320BDE8F08F206A07
:1010C0002844206203E0D4E90121302090476D1EBE
:1010D000EBD3F8E71E2D000002FCFFFF10B54369BB
:1010E00013B1AFF3008001E0FFF752F9012010BD0A
:1010F000127800F124010A7000224A700122EDE703
:1011000011684FF0FF32E9E710B5436913B1AFF34F
:10111000008001E0FFF7D4F9012010BD128800F132
:10112000240182840022C2840122EDE711684FF07D
:10113000FF32E9E770B516460C46054600F044F864
:10114000036893F80101012806D0FF2C0FD8185D21
:1011500068B101202C7070BDD3F8070132462146DA
:1011600003F2071303442846BDE8704018474FF0C8
:10117000FF3070BD00487047F40000207546FFF74F
:10118000F9FFAE4605006946534620F00700854644
:1011900018B020B5FFF75CF8BDE820404FF000061E
:1011A0004FF000074FF000084FF0000B21F007014F
:1011B000AC46ACE8C009ACE8C009ACE8C009ACE892
:1011C000C0098D467047000010B500F005F8001DFD
:1011D00010BD00BF411D00000048704714010020F1
:1011E0002DE9F0411F46044603260168072A01F451
:1011F000006004DB08B116A505E016A503E008B100
:1012000015A500E015A521F010002060A069C01E02
:10121000A0610FB1401EA0612046FFF780F84FB1DA
:10122000D4E9012138469047206A401C2062C01C46
:10123000206206E0206AFAE7D4E9012115F8010BE3
:101240009047761EF8D22046FFF77FF8BDE8F08180
:101250004E414E006E616E00494E4600696E66005A
:101260002DE9F047814616468AB0354878440DC8C6
:101270008DE80D0032487844801C03AC0DC884E82A
:101280000D0041F69B300844372190FBF1F290FBB2
:10129000F1F5A5F1800501FB12041B3C02D5644267
:1012A000012000E00020DFF898A080460027FA44E3
:1012B000AAF1BE0A0EE0E0070AD03246684607EB04
:1012C000470101230AEB810100F0DEFA8DE80700F7
:1012D00064107F1C002CEED1194F7F44AE3F19E003
:1012E000E80715D007EB04100DF1180A90E80E007E
:1012F0008AE80E00C068F04201D198190890324681
:10130000012306A903A800F0BFFA03AB83E8070096
:101310006D10641C002DE3D14FF001033246694685
:10132000B8F1000F03A802D000F099FA01E000F034
:10133000ABFAC9E90001C9F808200AB0BDE8F08796
:10134000282A000010B50446AFF300802046BDE80F
:101350001040FEF768BF000001491820ABBEFEE751
:101360002600020070475FEA400C08BF91F0000FB2
:101370004FEA8C234FEAC12243EA51514FEA1C50F5
:1013800018BF00F5F0404FEA300018BF41F00041AF
:101390005FEA6C5C00F02980BCF1FF3F08BF40F0C1
:1013A00080407047130C06BF12044FF0100C4FF032
:1013B000000C130E04BF12020CF1080C130F04BF33
:1013C00012010CF1040C930F04BF92000CF1020CFB
:1013D000D30F04BF52000CF1010C11464FF0000274
:1013E000A0F11F00A0EB0C00704711F0004F08BFE8
:1013F000704731F000413FF4D5AF0B0C06BF090434
:101400004FF0100C4FF0000C0B0E04BF09020CF152
:10141000080C0B0F04BF09010CF1040C8B0F04BF67
:1014200089000CF1020CCB0F04BF49000CF1010C38
:10143000CCF12003A0EB0C0022FA03F302FA0CF229
:1014400041EA030100F10100704720F07F4C80EA7F
:10145000030023F07F47ACEB070303F57C5300F058
:10146000004003F1FF032DE980494FEA154B09B411
:101470004FEA144325EA0B4E24EA03480FF20426F0
:1014800006EB132749083E785FEA320203FB066742
:10149000C7F5000707FB06F64FEA54374FEAD64672
:1014A00006F1020607FB066CCCF1005C4FEA1C4714
:1014B0002CEA074C07FB06F40CFB06F504EB15467B
:1014C0004FEA961634BF00204FF000404FEAD13764
:1014D00006FB07FC4FEA1C4C0CFB0BF7D21B03FB73
:1014E0000CF761EB07010CFB0EF7B0EB074072EB5A
:1014F00017420CFB08F734BFA2EB0742B2EB0742DE
:1015000061EB17414FEA0C444FEA910706FB07FCD9
:101510004FEA1C4C0CFB0BF7B0EBC74072EB573299
:1015200003FB0CF734BFA2EBC742B2EBC74261EB3F
:1015300057310CFB0EF7B0EBC70072EB57720CFB88
:1015400008F734BFA2EBC702B2EBC70261EB5771D9
:10155000039F4FEA816141EA921104EBCC044FEA08
:10156000D1374FEA826206FB07FC42EA90124FEA4B
:1015700080604FEA1C4C0CFB0BF7D21B03FB0CF7F3
:1015800061EB07010CFB0EF7B0EB074072EB174263
:101590000CFB08F734BFA2EB0742B2EB074261EB4A
:1015A00017414FEA8C554FEA910704EB9C2406FB48
:1015B00007FC4FEA1C4C0CFB0BF7B0EBC74072EB7F
:1015C000573203FB0CF734BFA2EBC742B2EBC74262
:1015D00061EB57310CFB0EF7B0EBC70072EB5772A3
:1015E0000CFB08F734BFA2EBC702B2EBC70261EBFA
:1015F000577115EB4C254FEA816141EA92114FEA90
:1016000082624FEAD13742EA901206FB07FC44F1AE
:1016100000044FEA80604FEA1C4C0CFB0BF7D21B16
:1016200003FB0CF761EB07010CFB0EF7B0EB074077
:1016300072EB17420CFB08F734BFA2EB0742B2EB88
:10164000074261EB174115EB1C154FEA813141EA66
:1016500092414FEA823242EA90424FEA80304FEAAA
:101660000C7644F1000448EA03434EEA0B484FF07D
:10167000000EB2EB080C71EB030724BF624639463B
:101680004EEB0E0E4FF0000B0018524149414BEB50
:101690000B0BB2EB080C71EB03077BF1000B24BFC3
:1016A000624639464EEB0E0E4FF0000B00185241C9
:1016B00049414BEB0B0BB2EB080C71EB03077BF1D1
:1016C000000B24BF624639464EEB0E0E51EA02076C
:1016D00018BF46F0010616EB0E7655F1000254F1E4
:1016E000000103D5BDE88901BDE80088BDE8890196
:1016F000BDE80048B619524141EB0101A3F10103D5
:10170000704780807F7E7D7C7B7A7978777676756E
:101710007473727171706F6E6E6D6C6C6B6A6A69E6
:101720006868676666656464636362616160605F80
:101730005F5E5E5D5D5C5C5B5B5A5A5959585857F9
:101740005756565555555454535352525251515061
:1017500050504F4F4F4E4E4D4D4D4C4C4C4B4B4BB4
:101760004A4A4A49494948484847474747464646FA
:101770004545454444444443434343424242424135
:101780004141002B9C4630D477002BD01CB54FEA4A
:10179000370703B44FF010004FF01001BAF1000FFB
:1017A00006D0BCF1000FDCBF40F0080040F008019B
:1017B0004FF000000FBCBDE810400BF1010BBBF176
:1017C000010F08BF5FEA170722BF12F1010211F1F2
:1017D00001014FF0004143F1000300F0004043EAF3
:1017E00000007047F9D35708D0E746EA064613F1E0
:1017F000400F4FEA16461FDD13F1200FDFBF1643DF
:101800000A46002120335B42BED0C3F1200746EADE
:10181000064602FA07F74FEA164646EA0706C3F1FC
:10182000200722FA03F201FA07F721FA03F14FF039
:10183000000342EA0702A7E746EA020646EA06462E
:101840004FEA164646EA0106BCBF46EA0646360C93
:101850004FF000034FF000024FF0000194E72DE934
:10186000804C9A46934670B491E8380007C831EA34
:10187000400C48BF34EA430C03D5FFF7E6FDFFF701
:1018800080FFF0BCBDE8008C2DE9804C9A46934661
:1018900070B491E8380007C810F0804F08BF13F00B
:1018A000804F03D100F005F8FFF76BFFF0BCBDE8F7
:1018B000008C20F07F4780EA030023F07F4C07EB89
:1018C0000C03A3F57C5300F00040A3F1FE0392F05B
:1018D000000F00F0B38095F0000F00F077802DE945
:1018E00001494FEA11404FEA144621EA004800FB43
:1018F00006FC24EA064708FB06F607FB08F800FB8F
:1019000007F718EB06484CEB164C4FEA124B18EB56
:1019100007484FEA15464CEB174022EA0B4E0BFBEB
:1019200006FC25EA06470EFB06F607FB0EFE0BFB40
:1019300007F71EEB064E4CEB164C4FF000061EEB65
:10194000074E4CEB174B18EB0B0840F1000018EB5F
:101950000E0B58EB000840F100008F1A4FF0000109
:101960003CBFC943661B14BFB5EB040C00213CBF50
:10197000C943F61B4FEA17444EEA8E0E27EA044588
:101980004FEA1C4704FB07622CEA074C05FB07F7EC
:101990000CFB05F604FB0CFC16EB074642EB17426A
:1019A00016EB0C4642EB1C421BEB060658EB020200
:1019B000414146EA9E0601D5BDE80189B61952416A
:1019C00041EB0101A3F10103BDE801894FEA144590
:1019D0004FEA114724EA054621EA074C05FB07F4C4
:1019E00006FB07F70CFB06F105FB0CFC11EB0741AE
:1019F00044EB17444FEA124711EB0C4144EB1C44F3
:101A000022EA074C05FB07F206FB07F70CFB06F67C
:101A100005FB0CFC16EB074642EB174216EB0C4697
:101A200042EB1C456A1854F1000148BF7047B619D3
:101A3000524141EB0101A3F10103704795F0000F02
:101A400037D04FEA11424FEA144721EA024624EA0E
:101A5000074C02FB07F106FB07F70CFB06F402FB41
:101A60000CFC14EB074441EB17414FEA154714EB0C
:101A70000C4441EB1C4125EA074C02FB07F506FB31
:101A800007F70CFB06F602FB0CFC16EB074645EBD2
:101A9000174516EB0C4645EB1C42121951F100019B
:101AA00048BF7047B619524141EB0101A3F1010350
:101AB00070474FEA14454FEA114724EA054621EAE8
:101AC000074C05FB07F106FB07F70CFB06F24FF08E
:101AD000000605FB0CFC12EB074241EB174112EB31
:101AE0000C4251EB1C4148BF7047921841EB010179
:101AF000A3F101037047FEE7704700002DE9F041B4
:101B00000446A669E6613146206A01F077FE20624C
:101B1000104DA84203D8104DA84200DC05462562AE
:101B20003146304601F0CCFF616901F0FDFE074609
:101B30002946206901F0F8FE05463146E06801F0CB
:101B4000F3FE294601F05AFE394601F057FEA06027
:101B5000BDE8F0810000A0C10000A04170B5054DB6
:101B6000284600F098FE04B20021284600F096FFB7
:101B7000204670BD0008004070B5054D284600F0B5
:101B80008AFE04B20021284600F088FF204670BD7E
:101B90000004004070B588B00121042000F0C4FAB0
:101BA0000121022000F0C0FA0121042000F0CAFA4D
:101BB0000121082000F0C6FA48208DF81F00C0203F
:101BC000ADF81C0003208DF81E0007A9284800F07E
:101BD00057F807A9274800F053F80024ADF816403D
:101BE000ADF812404FF6FF70ADF81400ADF810409C
:101BF0008DF81840204D04A9284600F079FF1F4EAB
:101C000004A9304600F074FF01A800F099FEADF879
:101C100004400F24ADF80C4001A9284600F04AFE0C
:101C200001A9304600F046FE0421ADF80410ADF8DD
:101C30000C4001A9284600F03DFE01A9304600F005
:101C400039FE00231A460321284600F00BFE02232A
:101C500000220321304600F005FE0121304600F04D
:101C6000F5FD0121284600F0F1FD08B070BD00002F
:101C700000080140000C0140000800400004004042
:101C80002DE9F0410022CC7804F00F03E40601D5E1
:101C90008C7823430C784FF00F0714F0FF0F4FF0B0
:101CA000010C1CD005680CFA02F40E882640A642EE
:101CB00011D1960007FA06F825EA080503FA06F896
:101CC00048EA0505CE78282E02D0482E02D002E040
:101CD000446100E00461521C082AE4D305600A88CC
:101CE000FF2A1ED94568002202F108060CFA06F404
:101CF0000E882640A64210D1960007FA06F825EA7B
:101D0000080503FA06F848EA0505CE78282E00D122
:101D10004461CE78482E00D10461521C082AE3D3D6
:101D20004560BDE8F0814161704701617047FEE7A1
:101D30002DE9F0410446A769E761D4E9000101F00B
:101D4000BFFE0546A061284601F02CFD21F00041B0
:101D5000214A224B01F03EFB214E0022334601F086
:101D600021F902460B460020314601F0C3F901F08B
:101D7000E7F8294601F0D8FD216A01F03FFD206215
:101D8000184EB04203D8184EB04200DC0646266218
:101D90003946284601F094FE616901F0C5FD074609
:101DA0003146206901F0C0FD06462946E06801F091
:101DB000BBFD314601F022FD394601F01FFDA06058
:101DC0000A49884201D9084603E00949884200DDF2
:101DD0000846A060BDE8F0819A9999999999C93F00
:101DE0000000F03F000020C100002041000048C278
:101DF0000000484208B50121042000F0A3F90121A8
:101E0000082000F09FF948208DF803004FF440604F
:101E1000ADF8000003208DF8020069460548FFF781
:101E20002FFF4FF4C050ADF8000069460248FFF79D
:101E300027FF08BD000C01400008014038B5012112
:101E4000042000F07FF910208DF80300C402ADF8E3
:101E5000004003208DF80200084D69462846FFF730
:101E60000FFF1822ADF8002069460548FFF708FF6C
:101E700021462846FFF759FF38BD00000008014001
:101E8000000C0140FEE7000070B504460E4D002C2A
:101E90000CDB20212846FFF748FF10212846FFF7DA
:101EA00042FFA0B2BDE8704000F032B910212846D0
:101EB000FFF73BFF20212846FFF735FF6042BDE8D2
:101EC000704080B200F024B90008014070B50446AB
:101ED0000E4D002C0CDB01212846FFF726FF0221C6
:101EE0002846FFF720FFA0B2BDE8704000F015B90A
:101EF00002212846FFF719FF01212846FFF713FFAB
:101F00006042BDE8704080B200F007B9000C0140AB
:101F100008B50121082000F015F90121042000F086
:101F200011F910208DF803000320ADF800008DF8A2
:101F3000020069460648FFF7A3FE3020ADF8000016
:101F400069460448FFF79CFE00F098F808BD0000C1
:101F5000000C0140000801407047000070B50F23DD
:101F6000C27801260178002A1ED0144A126802F4B1
:101F7000E062C2F5E062120AC2F10404D34045787F
:101F8000A54082781A402A43120101F1E02181F82C
:101F90000024007800F01F018E404009800000F10D
:101FA000E020C0F8006170BD01F01F0086404809C4
:101FB000800000F1E020C0F8806170BD0CED00E011
:101FC0000249084302490860704700000000FA0512
:101FD0000CED00E02DE9F0410446A769E761D4E982
:101FE000000101F06DFD0546A061284601F0DAFB15
:101FF00021F000411C4A1D4B01F0ECF91C4E00225F
:10200000334600F0CFFF02460B460020314601F078
:1020100071F800F095FF294601F086FC216A01F075
:10202000EDFB2062134EB04203D8134EB04200DCE9
:10203000064626623946284601F042FD616901F0F4
:1020400073FC07463146206901F06EFC06462946BE
:10205000E06801F069FC314601F0D0FB394601F03F
:10206000CDFBA060BDE8F0819A9999999999C93FF3
:102070000000F03F000020C10000204130B589B0D1
:102080000121084600F050F80121042000F05AF820
:1020900018208DF823000320ADF820008DF82200D1
:1020A00008A91A48FFF7ECFD4FF08045284600F0DC
:1020B00059FC0024ADF81A40ADF816406321ADF884
:1020C00018102320ADF814008DF81C4005A92846EF
:1020D00000F00EFD01A800F0D3FC6020ADF8040074
:1020E000ADF80C400120ADF80600ADF80A4001A99A
:1020F000284600F03DFC01A9284600F07DFC0121A6
:10210000284600F0A3FB09B030BD000000080140E4
:1021100001464FF0804000F0BDBC01464FF08040CA
:1021200000F0BABC70470000054A002903D0D1690D
:102130000143D1617047D1698143D161704700008B
:1021400000100240054A002903D0916901439161C2
:10215000704791698143916170470000001002400F
:1021600010B5264A516801F00C01254B002927D0F3
:10217000042927D0082927D00360516801F0F00115
:102180000909204B5C5C0168E1404160546804F43B
:10219000E064240A1C5D21FA04F48460546804F4A9
:1021A0006054E40A1B5DD940C160526802F44042A9
:1021B000920B144B1B1F9A5CB1FBF2F1016110BD35
:1021C0000360DAE70360D8E7516801F470115368DF
:1021D00003F48033022404EB914133B153689B0331
:1021E00007D5094B59430160C7E7074B59430160C5
:1021F000C3E7034B59430160BFE7000000100240F2
:1022000000127A000400002000093D0008B50121F9
:102210000420FFF797FF01210820FFF793FF41F605
:102220000C10ADF8000048208DF8030003208DF855
:10223000020069460548FFF723FD4FF4E040ADF882
:10224000000069460248FFF71BFD08BD0008014079
:10225000000C01407047000030B587B001218803B1
:10226000FFF770FF01210420FFF76CFF18208DF8A5
:102270001B004FF40070ADF8180003248DF81A40CD
:10228000204D06A92846FFF7FBFC48218DF81B10BE
:102290002915ADF818108DF81A4006A92846FFF741
:1022A000EFFC4FF4165002900020ADF814000C2102
:1022B000ADF81210ADF81000ADF80E00ADF80C003E
:1022C000114C02A9204600F011FD012240F22551D7
:1022D000204600F0F0FC4FF4A060FFF771FE2521CE
:1022E0008DF8041001218DF807108DF805108DF878
:1022F000061001A8FFF732FE0121204600F0A8FCDD
:1023000007B030BD00080140003801400FB400B5EF
:1023100099B01BAA68461A99FDF7ACFF684600F011
:1023200013F819B05DF814FB10B5064C01462046B1
:1023300000F03EFD8021204600F096FC0028F9D0F8
:1023400010BD00000038014070B50546002403E0D0
:10235000FFF7EAFF641CE4B2285D0028F8D170BDE5
:10236000AFF300800CB5002201920092274801686B
:1023700041F4803101604FF4A063016801F4003141
:1023800000910199491C0191009911B90199994253
:10239000F3D10168890302D50121009100E0009288
:1023A0000099012930D11A490A6842F010020A60E6
:1023B0000A6822F003020A600A6842F002020A6018
:1023C0004168416041684160416841F48061416019
:1023D000416821F47C114160416841F4E811416099
:1023E000016841F08071016001688901FCD5416894
:1023F00021F003014160416841F002014160416800
:10240000C1F381010229FAD10CBD00000010024085
:10241000002002407047000010B50F48016841F0ED
:102420000101016041680D4A1140416001680C4A98
:1024300011400160016821F480210160416821F4AC
:10244000FE0141604FF41F018160FFF789FF0549DC
:102450004FF00060086010BD001002400000FFF85F
:10246000FFFFF6FE08ED00E070B5048C24F00104D7
:102470000484058B048C25F0F3054FF6FF7606EAFD
:10248000031313432B43104A90420ED00F4A90423D
:102490000BD0B0F1804F08D00D4A904205D00D4AC4
:1024A000904202D00C4A904205D124F002020A4325
:1024B00042F0010104E024F00A020A4342F0010163
:1024C0000383018470BD0000002C014000340140F2
:1024D0000004004000080040000C0040F0B5048CEF
:1024E00024F010040484068B048C4FF6FF7505EA73
:1024F000011726F4734605EA0333334305EA022243
:102500001A43104B98420ED00F4B98420BD0B0F1AB
:10251000804F08D00D4B984205D00D4B984202D009
:102520000C4B984205D124F02001394341F01001B1
:1025300004E024F0A0030B4343F010010283018464
:10254000F0BD0000002C01400034014000040040B8
:1025500000080040000C0040F0B5048C24F48074A6
:102560000484858B048C4FF6FF7707EA012625F05B
:10257000F30507EA031313432B43104A90420ED08E
:102580000F4A90420BD0B0F1804F08D00D4A9042D4
:1025900005D00D4A904202D00C4A904205D124F455
:1025A0000071314341F4807104E024F420620A4355
:1025B00042F4807183830184F0BD0000002C01404F
:1025C000003401400004004000080040000C0040BE
:1025D000F0B5048C24F480540484868B048C4FF66C
:1025E000FF7505EA013726F4734605EA02223243F5
:1025F00005EA03331343104A90420ED00F4A90422B
:102600000BD0B0F1804F08D00D4A904205D00D4A52
:10261000904202D00C4A904205D124F40051394333
:1026200041F4805104E024F402420A4342F4805110
:1026300083830184F0BD0000002C01400034014080
:102640000004004000080040000C00402DE9F05F4D
:1026500001216F4800F021F901287DD16D4C2088BF
:10266000401C80B22080DFF8B0810027282874D376
:102670002780FFF773FA00F095FEDFF8A0914FF086
:1026800033324B4600F0A6FEDFF894A1DFF894B198
:1026900052465B4600F02EFD05460E46A06801F04E
:1026A00081F84FF06632604B00F094FE2A463346C4
:1026B00000F078FC00F044FCA060FFF75DFA00F049
:1026C00071FE4FF033324B4600F084FE52465B46BB
:1026D00000F010FD05460E46E06801F063F84FF08B
:1026E0006632514B00F076FE2A46334600F05AFC23
:1026F00000F026FC0546E060A6686661256131466B
:10270000A06901F07BF8A0612946E06901F076F844
:10271000E0612946304601F0D3F9A062434D80F0D4
:102720000040A8612846FFF7E9F9AE68D8F808909C
:102730003146484601F0C4F93D4D286031464846CF
:1027400001F05CF83B4E3060606968602069706041
:102750002846FFF7EDFA01E057E040E03046FFF78A
:10276000E7FAA86801F0ACF801F0C6F80546206267
:10277000B06801F0A5F801F0BFF8064660624FF4BA
:102780000009DFF8B4A04D4505DB2C49284601F0CF
:1027900035F8206208E0554505D32849284601F060
:1027A0008FF9206200E027624E4505DB2349304661
:1027B00001F024F8606208E0564505D31F49304611
:1027C00001F07EF9606200E06762206A01F078F84B
:1027D000FFF75AFB606A01F073F8FFF777FB608838
:1027E000401C80B26080282809D367806068C8F8E0
:1027F0000000A069C8F804000748FFF7EBFBBDE83C
:10280000F05F0121024800F01EB8BDE8F09F000013
:10281000002C0140C8000020700000203333D33F5B
:10282000CDCCCCCCCCCC14406666E63F9C000020DE
:102830001800002044000020000080800000E040DC
:10284000C94301827047C94301827047002904D0FF
:10285000018841F0010101807047018821F00101E8
:102860000180704770B50589048B068C25F007053B
:102870000D434FF6FC410C4040F201110C4326F091
:1028800022064FF6FF7101EA03111143314305811E
:102890000483018470BD808C704702460020138A37
:1028A0000B4092890A40002B02D0002A00D0012060
:1028B0007047000070B505460C461D48854209D09A
:1028C0001C48854206D0B5F1804F03D01A48854296
:1028D00000D01A4820886188A288238960B1042822
:1028E00013D008281AD02846FFF772FEE188284640
:1028F000BDE8704000F0F0B82846FFF7B5FDE1886C
:102900002846BDE8704000F0CBB82846FFF7E6FD4A
:10291000E1882846BDE8704000F0CAB82846FFF7B5
:102920001BFEE1882846BDE8704000F0CDB80000ED
:10293000002C014000340140000400400008004029
:1029400000210180418001228280C1800181704785
:10295000002A03D082890A438281704782898A4390
:1029600082817047018921F00701018170470000D1
:1029700030B5028C22F001020284028C8388048B21
:1029800024F0700424F003050C882C4322F002028A
:102990000D8915434A882A43124DA8420BD0124D87
:1029A000A84208D0114DA84205D0114DA84202D02E
:1029B000104DA8420FD122F008054A892A4322F07F
:1029C00004058A882A4323F4807323F400738D89D5
:1029D0001D43CB892B4383800483C988818602846D
:1029E00030BD0000002C0140003401400040014097
:1029F000004401400048014070B5028C22F01002F2
:102A00000284028C8388048B24F4E04424F440760E
:102A10000D884FF6FF7404EA0525354322F02002A5
:102A20000E8904EA061616434A8804EA0212324363
:102A3000114EB04202D0114EB04217D122F08002A6
:102A40004E8904EA0616164326F040068A8804EAF0
:102A50000212324323F4806323F400638E8904EA74
:102A600086061E43CB8904EA8303334383800583B0
:102A7000C9880187028470BD002C014000340140E8
:102A80000021018041808180C1800181418181815B
:102A9000C181704781867047018770478184704784
:102AA000028B22F00C020283028B0A4302837047DE
:102AB000028B22F440620283028B4FF6FF7303EA1B
:102AC00001210A4302837047828B22F00C02828329
:102AD000828B0A4382837047828B22F44062828316
:102AE000828B4FF6FF7303EA01210A43828370470A
:102AF00030B502881B4C1C4DA0420DD0A8420BD013
:102B0000B0F1804F08D0194B984205D0184B98422D
:102B100002D0184B984203D122F070034A881A431E
:102B2000154B984206D0154B984203D022F44073BF
:102B3000CA881A4302808A8882850A880285A04250
:102B40000AD0A84208D00E4A904205D00D4A9042C1
:102B500002D00D4A904201D1097A01860121818279
:102B600030BD0000002C0140003401400004004052
:102B700000080040000C004000100040001400401D
:102B80000040014000440140004801401FB50121C0
:102B9000C802FFF7D7FA1B4C2046FFF7E3FE0021DF
:102BA000ADF80A10ADF8061040F2E732ADF8082093
:102BB0004720ADF804008DF80C1001A92046FFF75E
:102BC00097FF01212046FFF73BFE012211462046D8
:102BD000FFF7BEFE4FF4A060FFF7F2F919208DF861
:102BE000000001218DF8031002208DF801008DF8FE
:102BF00002106846FFF7B2F901212046FFF726FED2
:102C00001FBD0000002C014070B50B4D40F2255453
:102C10002146284600F02FF801280CD1284600F064
:102C2000C3F8064A10700120507021462846BDE8BE
:102C3000704000F005B870BD00380140140000205D
:102C400040F66A120A0A01219140C9430180704787
:102C5000002904D0818941F4005181817047818924
:102C600021F40051818170470246002012880A42F7
:102C700000D00120704770B5002440F66A12C1F3FD
:102C8000421301F01F05012606FA05F2012B0CD0B4
:102C9000022B0DD0838A1340090A8E4000883040F1
:102CA0000BB100B10124204670BD83891340F3E7C6
:102CB000038A1340F0E710B540F66A13C1F34213DC
:102CC00001F01F040121A140012B07D0022B07D0E6
:102CD00014303AB102680A43026010BD0C30F8E7C4
:102CE0001030F6E702688A43026010BD30B585B047
:102CF00004460D46208A4CF6FF710840E9880143DE
:102D00002182A0894EF6F3110840A9882A8911432F
:102D10006A8902431143A181A08A4FF6FF4108400E
:102D2000A9890143A1826846FFF71AFA1D48844227
:102D300001D1039800E00298A189090408D500EBAD
:102D4000C00101EB001029684900B0FBF1F007E079
:102D500000EBC00101EB001029688900B0FBF1F025
:102D60006422B0FBF2F109010B096FF018056B4307
:102D700000EB8300A3891D044FF0320307D503EB5A
:102D8000C000B0FBF2F000F00700084306E003EBE0
:102D90000010B0FBF2F000F00F000843208105B0F6
:102DA00030BD0000003801408088C0F30800704743
:102DB000C1F3080181807047FEE7490050EAC12055
:102DC00018BF04204A0D18BF40F0010040F2FF7206
:102DD000B2EB515F08BF40F00200012808BF052098
:102DE000704730380A2801D2012070470020704710
:102DF00098B0FEF7FFFFFFF78BF8FEF7CBFEFFF76B
:102E000005FAFFF71BF8FFF727FAFFF7BFFE2A497D
:102E100028484860294EB06800F0C4FC04460D46BE
:102E2000706800F0BFFC80468946306800F0BAFC4C
:102E3000824623488B46806800F0B4FC0646204852
:102E40000F46406800F0AEFCCDE916011C48006852
:102E500000F0A8FCCDE914011A48806800F0A2FC3B
:102E6000CDE912011748406800F09CFCCDE9100143
:102E70001448006800F096FC08AAA2E8C00CCDE94E
:102E80000C89DDE91623CDE90E45CDE90623DDE900
:102E90001423CDE90423DDE91223CDE90223DDE982
:102EA0001023CDE9002302460B4607A0FFF72EFAB8
:102EB000ADE70000280DEA43C800002070000020A4
:102EC000440000201800002025662C25662C25666D
:102ED0002C25662C25662C25662C25662C25662C33
:102EE00025660D0A0000000010B500290AD00878F8
:102EF000002807D005487844FDF7CEF9002801D016
:102F0000002010BD0248784410BD0000DA0D00001A
:102F1000D20D000010B500290AD00878002807D08B
:102F200005487844FDF7B8F9002801D0002010BD0D
:102F30000248784410BD0000CA0D0000C20D000018
:102F400021F00042A2F16052B2F5801F01F000436F
:102F500028BFD2F17F6C0BD95FEA001C43EAC202A2
:102F600042EB507018BF704728BF20F00100704737
:102F7000B2F5801FBCBF184670474FEA410C1CF5E4
:102F8000001F02D2084600F096BD70B500F0CCFAE2
:102F900000000089FFF7F6BF4FF00040A0F5800069
:102FA0007047000010B591EA030F48BF83F000435B
:102FB00000F11683841A71EB030C05D2121943EB4E
:102FC0000C03001B61EB0C01DFF824E14FEA115404
:102FD000A4EB135C1EEA430F18BF9EEA445F73D054
:102FE00023EA0E03DCF1200E21EA045143F480139E
:102FF00032D322FA0CFE10EB0E0023FA0CFE41EB4A
:103000000E01CCF1200E03FA0EFE10EB0E0051F172
:103010000001B1F5801FCCF1200E32D201EB04513A
:1030200012FA0EF2BDE8104058BF7047401C38BF7E
:103030005FEA420218BF7047002814BF20F0010069
:1030400041F100014FEA410313F5001F38BF7047FB
:10305000A1F1C04100F0B6BA012A43EB0302ACF182
:10306000200CDCF11F0E32BF4FF0000E23FA0CF3E0
:1030700010EB030041EB0451B4EB115FD0D0A1EB96
:10308000045101F5801149085FEA300001EB045159
:103090000ED350F1000038BF12FA0EFE08D1BDE881
:1030A0001040C9E7401C38BF5FEA4202CAD1C3E7FB
:1030B000BDE810404FEA410313F5001F38BF7047C9
:1030C000A1F1C04100F07EBA9EEA445F08D011EA47
:1030D0005E0FBDE8104004BF01F0004100207047C2
:1030E000BDE8104070B500F01FFA00BF64FBBE3EA3
:1030F0000000E0FF2DE9C04130B4DFF8A0C23CEA97
:10310000111418BF3CEA131400F0EC8081EA0305A7
:103110001CEA111444EAD57418BF1CEA131500F018
:10312000C780A4EB05044FF0004545EAC12145EAFC
:10313000C32341EA505143EA525304F17F74994248
:1031400004F500344FEAC0204FEAC22208BF904283
:1031500000F09C804FEA13650FF24016765D4FEA4F
:10316000134506FB05F7C7F1807706FB07F74FEA23
:10317000D737A7FB03687642C8F58038A7FB06CE91
:1031800038BFA8F1010807FB08E64FF0000EA6FBC8
:10319000028CE6FB03CEDCF1000CCEF1004E38BF12
:1031A000AEF1010EA6FB0C584FF000074FF00005E2
:1031B000E6FB0E87A1FB08C6A0FB07CE16EB0E06AA
:1031C00045F10005E1FB076515F1E04E7EBFA4F572
:1031D00080345FEA46066D4116F1800745F100052F
:1031E0004FEA17274FEA066647EA0567A6F1DE466B
:1031F000B6F1805F4FEA15251FD9384624F0010C3F
:1032000005EBC471BCF1FE6F01EB0C1102D8F0BCF0
:10321000BDE8008124425CBF01F5801E9EEAC47FA8
:1032200002D4F0BCBDE80081244238D4F0BCA1F146
:10323000C041BDE8004100F0C5B94FEAD22242EAE0
:1032400043524FEAD323A7FB02864FEAD02040EA3D
:10325000415007FB03661EEA0E0F4FEAD12105FB22
:10326000026658BFA6EB0056B6EB00564FEA520E68
:103270004EEAC37E18EB0E0E56EB530EBDD518EB7F
:1032800002085E417F1C55F10005B6E74FF480153A
:103290004FF000074FF000064FF00008ADE7F0BC1C
:1032A0004FF0000001F1C04101F00041BDE8008194
:1032B00011EA0C1F0CEA131500D00CE013EA0C1FE6
:1032C00000F025804FF00000F0BC81EA030101F01E
:1032D0000041BDE80081F0BCBDE8004181EA030186
:1032E00000F070B9F0BCBDE8004170B500F01CF909
:1032F000097EFC3E00F007B881EA03014FF00000B0
:1033000001F00041704781EA030100F05BB9F0BCB5
:10331000BDE800414FF0000021497047FFFDFBF977
:10332000F7F5F4F2F0EEEDEBE9E8E6E4E3E1E0DEF8
:10333000DDDBDAD8D7D5D4D3D1D0CFCDCCCBCAC86A
:10334000C7C6C5C4C2C1C0BFBEBDBCBBBAB9B8B791
:10335000B6B5B4B3B2B1B0AFAEADACABAAA9A8A884
:10336000A7A6A5A4A3A3A2A1A09F9F9E9D9C9C9B52
:103370009A999998979796959594939392919190FD
:103380008F8F8E8E8D8C8C8B8B8A8989888887878E
:103390008685858484838382828181800000FF0703
:1033A0000000F87F10F0004248BF4042B0FA80F3BE
:1033B00010FA03F10AD0C3F11D0303F580634FEA4D
:1033C000415002EB035202EBD12170474FF0000055
:1033D00070470000DFF848C170B51CEA111E1EBF1F
:1033E0001CEA13159EEA0C0F95EA0C0F00F06F8093
:1033F00081EA030423EA4C134EEAD47E21EA4C11FD
:1034000041F4801143F48013AE44A1FB024CA0FBB5
:103410000365AEF17F7E361955EB0C05A1FB034C1D
:103420004CF10003A0FB021C16EB0C06654153F1A6
:103430000003094218BF46F0010613F4007F0BD1C8
:103440004FEA03314FEA0530340341EA155140EAAF
:1034500016506FF003020AE04FEAC3214FEAC5207D
:10346000F40241EA555140EA56506FF0020202EB75
:103470002E4201EB025585EACE710AD05FEA440C78
:1034800018BF24F0004450F1000041F1000120EA8F
:10349000D47040F2FE7C624500D270BDA84214BFD9
:1034A0004FF080444FF04044002E08BF0024BEF18E
:1034B000806FA8BFA1F1C041BDE8704080F282805A
:1034C0004FF0000001F1C04101F0004170479EEA59
:1034D0000C0F0CEA131518BF95EA0C0F06D04FF02D
:1034E000000081EA030E0EF0004170BD00F01CF8F0
:1034F0008900013E00F007B800F009B84FEA430C1C
:103500005FEA5C5C08D081EA030100F05BB84FEA37
:10351000410C5FEA5C5CF6D14FF000000149704756
:103520000000FF070000F87F0EF1020E2EF0030EE0
:103530005EF8046B364205D4012A43EB030515F50A
:10354000001F12D8012841EB010C1CF5001F0CD8FC
:103550000ED14FEAD17C15F5001F0CEB4C0C0CF191
:10356000020C08BF4CEBD37C04E04FF0080C01E0E8
:103570004FEAD37C0CEB4C0526FA05F606F007065D
:10358000B6F1040C06D20EEB860CBDE870404CF090
:10359000010C6047DFE80CF0090B02024FF000411C
:1035A0004FF00000A1F5002170BD1946104601281A
:1035B00051EB010418BFD4F5001484BF002001F0C2
:1035C000004170BD0808A0F500114FEA31017047B5
:1035D00010B591EA030F48BF83F000433FF5EAAC12
:1035E000841A71EB030C07D212198CF0004C43EBD8
:1035F0000C03001B61EB0C01DFF8A4E14FEA11544E
:10360000A4EB135C1EEA430F18BF9EEA445F00F070
:10361000B08023EA6E03524221EA0451C3EB6E03E9
:1036200038BF5B1EDCF1200E25D322FA0CFE10EB16
:103630000E0043FA0CFE41EB0E01CCF1200E03FA12
:103640000EFE10EB0E0051F10001CCF1200E29D43A
:1036500012FA0EF201EB0451BDE8104058BF70475A
:10366000401C1CBFB2F1004F704700280CBF491C22
:1036700020F00100704712EB020E43EB030218BF6B
:103680004FF0010E4EEA4202ACF1200CDCF11E0EAE
:1036900054D943FA0CFE10EB0E0051F1FF31CCF17E
:1036A0001E0ED5D50EF1010E12FA0EFE404141EB71
:1036B000010101EB445C5FEA5C5C10D910EBDE7049
:1036C00001EB045138BFBEF1004FBDE8104018BFF8
:1036D000704700280CBF491C20F00100704730D211
:1036E0004FEAD42C11F5001124F400641BD0B1FA78
:1036F00081F20B3AA41AA41ED2F12003914030FAB1
:1037000003F31943904001EBCC71002C01EB045101
:10371000BDE81040A8BF704701F1C0414FF0000064
:1037200001F000417047B0FA80F310FA03F100D1C4
:1037300010BDE41A173C4805C90AE4E701EB04513F
:1037400010BD491001EB0451BDE810404FEA3000B4
:1037500002E04FF0000170474A0008BF0042F8D075
:10376000B2F5001F28BF704701F000414FF0000084
:1037700070479EEA445F07D011EA5E0FBDE8104033
:1037800004BF002100207047BDE8104070B5FFF76E
:10379000CBFE00BF40DFF63E83F00041104670478D
:1037A0000000E0FF43004FEAD30C4FEA3C0C4340DB
:1037B0001FBF40070CF1605113F0FE4F70471CF023
:1037C000006F03D100200CF0004170470CF0004363
:1037D00043EA507010B540EACC0000F026F900BF73
:1037E000000000924FEA0001FFF7ECBE4FF00041ED
:1037F0004FF00000A1F500217047000090EA010F92
:1038000048BF81F0004100F16281421A3CBF801A3A
:1038100089184FEAD0524FF07F4C1CEA410FA2EBBF
:10382000D15318BF9CEA026F00F03B804FF0004C70
:103830004CEA00204CEA012121FA03FC10EB0C0CAD
:103840001ED202F1FF325FEA1C2040EBC25038BFAB
:1038500070471CF07F0F4FEA400C18BFBCF17F4F40
:1038600038BF7047C3F12003994008BF20F0010022
:10387000BCF17F4F38BF7047A0F1C04000F01BB9CA
:103880004FEA3C00000A40EBC25028BF1CF0FF0F7B
:103890004FEA400CE6D018BFBCF17F4F38BF7047ED
:1038A000EAE79CEA026F05D010EA5C0F08BF00F05F
:1038B0000040704710B500F0B8F800BF64FBBE3E92
:1038C00041000B0ED3F19E0208D950F400034FEAD9
:1038D000032323FA02F048BF4042704710B500F0BE
:1038E000A4F800BF49922480002070476FF0004286
:1038F00082EA20007047000010F0004148BF4042BB
:10390000B0FA80F310FA03F2C3F19D030BD051EA31
:10391000C35101EB1220530638BF704700F101007C
:1039200008BF20F0010070474FF47F0C1CEAD01252
:103930001EBF1CEAD11392EA0C0F93EA0C0F00F0A1
:10394000478090EA010F48BF42F480724FF0004C6C
:103950004CEA00204CEA012102EB0302A0FB011318
:10396000A2F50002002918BF43F001035B0028BF45
:103970004FEA330342EB22425FEA132C4CEBC25076
:103980002EBFBCEB436FB2F57C0F70474FEA036C60
:10399000BCF1004F08BF20F00100B2F57C0F38BF2A
:1039A00070470BD582F0FF0212F5803FC8BF704709
:1039B00000F1C040D8BF00F00040704700F5000C97
:1039C0005FEA4C0C48BF7047B0F1C04000F073B8DC
:1039D00090EA010F0CEAD11348BF42F480726245AD
:1039E00038BF634504D280EA010000F00040704710
:1039F00010B500F01AF800BF8900013E00F007B8CA
:103A000000F009B85FEA410C5FEA1C6C08D080EA5C
:103A1000010000F050B85FEA400C5FEA1C6CF6D180
:103A20004FF00040A0F5800070470EF1020E2EF01E
:103A3000030E5EF8044B244204D44FEA4102B2F173
:103A40007F4F11D84FEA4003B3F17F4F0CD80ED10E
:103A50004FEAD07CB2F17F4F0CEB4C0C0CF1020C16
:103A600008BF4CEBD17C04E04FF0080C01E04FEABA
:103A7000D17C0CEB4C0324FA03F404F00704B4F1FA
:103A8000040C06D20EEB840CBDE810404CF0010C87
:103A90006047DFE80CF0070802024FF00040A0F595
:103AA000800010BD0846420018BFD2F1807288BF66
:103AB00000F0004010BDFF2141EAD050C005704722
:103AC00090EA010F48BF81F000413FF59EAE421AD7
:103AD00004D882F00042A0EB020011444FEAD05219
:103AE0004FF07F4C1CEA410FA2EBD15318BF9CEA68
:103AF000026F4AD04FF0004C4CEA00204CEA012102
:103B000021FA03FCB0EB0C0C0FD412F0FE0F36D0F0
:103B10005FEA4C001DD5001240EBC25038BF704721
:103B20001CF03F0F18BF70470BE0A2F101025FEAE3
:103B30001C2040EBC25038BF70471CF07F0F18BFED
:103B40007047C3F12003994014BF401E20F00100CC
:103B5000704780084FEA122308BF7047B0FA80FC14
:103B6000A2EB0C02CCF1280C60FA0CF093EA122FB5
:103B700004BF00EBC25070474FEAC3707047130A8E
:103B80005FEADC1008BF7047F6E79CEA026F04D0DA
:103B900010EA5C0F08BF0020704710B5FFF745FF23
:103BA00040DFF63E81F000407047FCF7E2BFFDF7D2
:103BB00017B900000000000000000000303132336F
:103BC0003435363738394142434445464030580051
:103BD0003031323334353637383961626364656683
:103BE00040307800040000080000000000000002DF
:103BF0000001000010303132333435363738396146
:103C0000626364656678700030313233343536373C
:103C100038394142434445465850000002400000B4
:103C2000000000A00000000005400000000000C8E7
:103C3000000000000C4000000000409C000000005C
:103C4000194000000020BCBE00000000344000000D
:103C5000BFC91B8E00000004B5400000504BCFD000
:103C60006607E2CF010000006C4100003E8251AACD
:103C7000DFEEA73401000000D9420000DCB5A0E26D
:103C80003A301F97FFFFFFFFB4450000FD25A0C895
:103C9000E9A3C14FFFFFFFFFFF3F000000000080CE
:103CA00000000000FF3F0000000000800000000056
:103CB000FC3D000800000020F4000000280100087E
:103CC000F03E0008F40000206406000044010008F3
:103CD0001C00000043000000F8FFFFFF0C00000084
:103CE0000E0000000F0000002E0000001001000078
:103CF00043000000F8FFFFFF0040404040404040CC
:103D000040404141414141404040404040404040AE
:103D10004040404040404040400502020202020252
:103D200002020202020202020220202020202020A1
:103D300020202002020202020202909090909090B5
:103D40001010101010101010101010101010101073
:103D500010101010020202020202888888888888E7
:103D600008080808080808080808080808080808D3
:103D700008080808020202024000000000000000DB
:103D80000000000000000000000000000000000033
:103D90000000000000000000000000000000000023
:103DA0000000000000000000000000000000000013
:103DB0000000000000000000000000000000000003
:103DC00000000000000000000000000000000000F3
:103DD00000000000000000000000000000000000E3
:103DE00000000000000000000000000000000000D3
:103DF00000000000000000000000000002040608AF
:103E00000000000001020304010203040607080980
:103E100000000000000000000000000000000000A2
:103E20009A99193F0AD7A33CCDCCCC3D00000000A5
:103E300000000000000000000000C8420000C8C2EE
:103E40000000000000000000000000009A99193FE7
:103E50000AD7A33CCDCCCC3D000000000000000000
:103E6000000000000000C8420000C8C200000000BE
:103E700000000000000000009A99993E8FC2F53CB6
:103E8000CDCCCC3D00000000000000000000000090
:103E90000000A0410000A0C10000000000000000E0
:103EA00000000000CDCC4C3F8FC2F53CCDCC4C3D4A
:103EB0000000000000000000000000000000A04121
:103EC0000000A0C100000000000000000000000091
:103ED00000000000000000000000000000000000E2
:103EE00000000000000000000000000000000000D2
:04000005080000ED02
:00000001FF
