:020000040800F2
:10000000E80A00208901000825090008E305000826
:100010005908000843020008951900080000000074
:10002000000000000000000000000000A50F000814
:100030008902000800000000510E0008B9100008F5
:10004000A3010008A3010008A3010008A301000800
:10005000A3010008A3010008A3010008A3010008F0
:10006000A3010008A3010008A3010008A3010008E0
:10007000A3010008A3010008A3010008A3010008D0
:10008000A3010008A3010008A3010008A3010008C0
:10009000A3010008A3010008A3010008A3010008B0
:1000A000A3010008A3010008A3010008A3010008A0
:1000B000A3010008A30100085D130008A3010008C4
:1000C000A3010008A3010008A3010008A301000880
:1000D000A3010008E1180008A3010008A30100081B
:1000E000A3010008A3010008A301000800F002F822
:1000F00000F03AF80AA090E8000C82448344AAF188
:100100000107DA4501D100F02FF8AFF2090EBAE885
:100110000F0013F0010F18BFFB1A43F0010318473B
:100120002428000044280000103A24BF78C878C171
:10013000FAD8520724BF30C830C144BF04680C60ED
:10014000704700000023002400250026103A28BF35
:1001500078C1FBD8520728BF30C148BF0B60704739
:100160001FB51FBD10B510BD00F036F81146FFF7E2
:10017000F7FF01F011FC00F054F803B4FFF7F2FFB1
:1001800003BC00F057F800000948804709480047C1
:10019000FEE7FEE7FEE7FEE7FEE7FEE7FEE7FEE737
:1001A000FEE7FEE704480549054A064B7047000094
:1001B000BD100008ED000008E8040020E80A002057
:1001C000E8060020E80600207047704770470000EE
:1001D00000487047840400207546FFF7F9FFAE46DB
:1001E00005006946534620F00700854618B020B543
:1001F000FFF7D8FFBDE820404FF000064FF00007A2
:100200004FF000084FF0000B21F00701AC46ACE8BE
:10021000C009ACE8C009ACE8C009ACE8C0098D462B
:10022000704710B50446AFF300802046BDE810408B
:10023000FFF7A3BF01491820ABBEFEE7260002006E
:10024000704700BFFEE7000010B50B4800680B497F
:10025000B1F90010401A0A490860074800680749C8
:10026000B1F90010084407490860084601680448CD
:10027000006801F0A3FB10BD18000020240000203E
:100280000C00002010000020704700B5034603E07A
:100290004FF47A7000F005F8181EA3F10103F7D1AE
:1002A00000BD00EBC001C9004FF0E0225161002108
:1002B00091610521116100BF4FF0E021096901F44E
:1002C00080310029F8D004214FF0E02211617047FD
:1002D0002DE9FF5F00F03EF8039000F049F802902E
:1002E000DDE90221881802F06DF904464FF08041E3
:1002F00002F08AF80190019801F0ECFF80460F4A65
:100300000F4B01F0FFFD064600220E4B01F0A2FC50
:1003100004460D4A0D4B01F09DFC824601F0C0FBE6
:1003200000900B480099006802F000F80849086046
:100330000846006804B0BDE8F09F0000F701486D72
:10034000E25C3540008079407B14AE47E17A843F1F
:100350000000002010B5054801F063F804B2002148
:10036000024801F08DF9204610BD0000002C01402C
:1003700010B5054801F055F804B20021024801F01B
:100380007FF9204610BD00000004004000B587B092
:100390000121022000F05EFD0121042000F06AFD31
:1003A00048208DF81B00C020ADF8180003208DF800
:1003B0001A0006A9344800F077F803A801F0E0F924
:1003C0000020ADF81200ADF80E004FF6FF70ADF84A
:1003D00010000020ADF80C008DF8140003A92B4884
:1003E00001F07CF9684601F087F80020ADF80000C4
:1003F0000F20ADF808006946244801F027F80420D2
:10040000ADF800000F20ADF8080069461F4801F064
:100410001DF80223002203211C4800F0E1FF012106
:100420001A4800F0D1FF0121C80200F023FD4FF46B
:100430004070ADF8180006A9134800F035F803A97C
:10044000134801F04BF90020ADF800000F20ADF883
:10045000080069460E4800F0F9FF0420ADF80000DE
:100460000F20ADF808006946094800F0EFFF0223AD
:1004700000220321064800F0B3FF0121044800F0E8
:10048000A3FF07B000BD00000008014000040040C9
:10049000002C014000200249088002490880704772
:1004A00024040040240800402DE9F04102460025C4
:1004B0000026002000230024002791F803C00CF040
:1004C0000F0591F803C00CF0100CBCF1000F03D025
:1004D00091F802C04CEA050591F800C0BCF1000F8C
:1004E00031D0146800202BE04FF0010C0CFA00F31F
:1004F000B1F800C00CEA03069E4220D183004FF001
:100500000F0C0CFA03F7BC4305FA03FC4CEA040495
:1005100091F803C0BCF1280F06D14FF0010C0CFA82
:1005200000FCC2F814C00AE091F803C0BCF1480F07
:1005300005D14FF0010C0CFA00FCC2F810C0401CB1
:100540000828D1D31460B1F800C0BCF1FF0F34DD2E
:10055000546800202EE000F1080C4FF0010808FA62
:100560000CF3B1F800C00CEA03069E4221D18300CF
:100570004FF00F0C0CFA03F7BC4305FA03FC4CEAEE
:10058000040491F803C0BCF1280F05D100F1080C58
:1005900008FA0CF8C2F8148091F803C0BCF1480FB7
:1005A00007D100F1080C4FF0010808FA0CF8C2F866
:1005B0001080401C0828CED35460BDE8F08102466C
:1005C000002093680B400BB1012000E00020704731
:1005D00041617047016170470AB1016100E041610A
:1005E000704700BFFEE700002DE9FC5F8246DAF8A5
:1005F0001800CAF81C00DAE9000102F02DF9CAF867
:100600001800DAF8180001F065FE21F00041384AC0
:10061000384BCDE9000101F075FC80460022364BD5
:1006200001F070FA064632460B460020324901F0CE
:1006300011FB044601F034FA83465846DAF81810E4
:1006400002F00CF80446DAF8201001F06FFECAF848
:1006500020002A49DAF8200001F0CCFF01D2274817
:1006600009E02749DAF8200002F0C4F801D2244852
:1006700001E0DAF82000CAF82000DAE9060102F009
:10068000EBF80646DAF8141001F0E8FF0446DAF851
:100690002010DAF8100001F0E1FF0646DAF8181031
:1006A000DAF80C0001F0DAFF0746314601F03EFEB1
:1006B0000546214601F03AFECAF808001149DAF869
:1006C000080001F097FF01D20E4809E00E49DAF860
:1006D000080002F08FF801D20B4801E0DAF80800B8
:1006E000CAF80800DAF8080001F050FFBDE8FC9FE6
:1006F0009A9999999999C93F0000F03F000020C14B
:10070000000020410000A0C10000A04110B54FF43E
:1007100080611048FFF753FF08B9012010BD4FF466
:1007200000610C48FFF74BFF08B90220F6E74FF4D1
:1007300000610948FFF743FF08B90320EEE74FF4D3
:1007400080510548FFF73BFF08B90420E6E7002089
:10075000E4E70000000C01400008014008B5012159
:10076000042000F087FB0121082000F083FB4820D3
:100770008DF803004FF44060ADF8000003208DF8C1
:10078000020069460548FFF78FFE4FF4C050ADF8F0
:10079000000069460248FFF787FE08BD000C0140D3
:1007A0000008014010B50F480078401C0D49087042
:1007B00008460078142813DB002008700A480078E7
:1007C0000A490870FFF7A2FF074908700846007839
:1007D00030B90648007818B1044800780449087018
:1007E00010BD0000050000200600002007000020CA
:1007F0000400002010B502210148FFF7EBFE10BDF8
:100800000008014010B502210148FFF7E1FE10BDCC
:100810000008014010B504210148FFF7D9FE10BDC2
:100820000008014008B50121042000F023FB10203E
:100830008DF803000620ADF8000003208DF80200BB
:1008400069460448FFF730FE06210248FFF7C2FE62
:1008500008BD00000008014000BFFEE710B50446D7
:10086000002C0BDB20210C48FFF7B4FE10210A48B6
:10087000FFF7AEFEA0B200F0DBFA0BE01021064855
:10088000FFF7A8FE20210448FFF7A2FE614288B2CC
:1008900000F0CEFA10BD00000008014010B504467B
:1008A000002C0BDB02210C48FFF794FE08210A48BC
:1008B000FFF78EFEA0B200F0C3FA0BE00821064855
:1008C000FFF788FE02210448FFF782FE614288B2EA
:1008D00000F0B6FA10BD0000000C014008B501217F
:1008E000042000F0C7FA0121082000F0C3FA10200C
:1008F0008DF803000A20ADF8000003208DF80200F7
:1009000069460648FFF7D0FD3020ADF80000694683
:100910000348FFF7C9FD00F03DFA08BD000C014097
:10092000000801407047000070B5002100230F222D
:10093000C47804B3154C246804F4E064C4F5E0649E
:10094000210AC1F10403CA40447804FA03F184780F
:100950001440214309010E4C0678A155047804F097
:100960001F050124AC4005786D11AD0005F1E025AF
:10097000C5F8004109E0047804F01F050124AC40EB
:10098000044D0678761145F8264070BD0CED00E068
:1009900000E400E080E100E002490143024A116006
:1009A000704700000000FA050CED00E010B5134898
:1009B000007820B1012807D0022817D10DE00021CE
:1009C000084600F0FBFF16E02321052000F0F6FFAB
:1009D0004FF41670FFF759FC0DE00521232000F0BD
:1009E000EDFF4FF41670FFF750FC04E000210846BD
:1009F00000F0E4FF00BF00BF10BD00008000002039
:100A000000200CE0002106E00022064B03EBC0139F
:100A10005A544A1CD1B28029F6DB421CD0B20828B5
:100A2000F0DB70478400002038B5002406E0002584
:100A300000E06D1CB5F57A7FFBD3641CB4F57A7FBA
:100A4000F5D30121082000F015FA14208DF80300D9
:100A500003208DF802004FF48070ADF80000694665
:100A60000848FFF721FD4FF40070ADF8000069461B
:100A70000448FFF719FD012000F0B0F8012000F054
:100A8000B9F838BD000C014070B50546002411E0EE
:100A900080212141294009B1012100E000210846BF
:100AA00000F0A8F8012000F099F8002000F096F876
:100AB000601CC4B2082CEBDB012000F08FF8002092
:100AC00000F08CF870BD10B5012000F093F8012003
:100AD00000F084F8002000F08DF8002000F07EF88F
:100AE00010BD10B5002000F085F8012000F076F868
:100AF000012000F07FF810BD10B5FFF795FFAE2084
:100B000000F084F8D52000F081F8802000F07EF815
:100B1000A82000F07BF83F2000F078F8D32000F008
:100B200075F8002000F072F8402000F06FF8A12066
:100B300000F06CF8C82000F069F8DA2000F066F8E0
:100B4000122000F063F8812000F060F8CF2000F060
:100B50005DF8D92000F05AF8F12000F057F8DB20BA
:100B600000F054F8302000F051F8A42000F04EF8C6
:100B7000A62000F04BF88D2000F048F8142000F07B
:100B800045F8AF2000F042F8FFF73AFF00F012F806
:100B900010BD70B505460C4645F0B00000F036F8C3
:100BA000102141EA141000F031F804F00F0000F0B9
:100BB0002DF870BD10B500240BE000212046FFF792
:100BC000E8FF054901EBC410802100F02FF8601CFC
:100BD000C4B2082CF1DB10BD8400002010B504461F
:100BE00022464FF480710248FFF7F6FC10BD00006A
:100BF000000C014010B5044622464FF40071024833
:100C0000FFF7EAFC10BD0000000C014010B50446DF
:100C1000FFF759FF7820FFF737FF0020FFF734FF79
:100C20002046FFF731FFFFF75CFF10BD70B50546AA
:100C30000E46FFF748FF7820FFF726FF4020FFF71A
:100C400023FF002404E0285DFFF71EFF601CC4B2F0
:100C5000B442F8DBFFF745FF70BD10B500F0B8FEF9
:100C6000012810D1FFF7A2FEFFF750FD012801D1A6
:100C700000F0CCFDFFF74AFD28B9FFF7BBFD00F0FF
:100C800025FE00F007F900F0A3FE022810D1FFF7BF
:100C90008DFEFFF73BFD012801D100F0E7FDFFF7D6
:100CA00035FD28B9FFF7A6FD00F010FE00F024F98D
:100CB00010BD00002DE9FC5F8246DAF81800CAF882
:100CC0001C00DAE9000101F0C7FDCAF81800DAF8E3
:100CD000180001F0FFFA21F00041294A294BCDE923
:100CE000000101F00FF980460022274B00F00AFFB7
:100CF000064632460B460020234900F0ABFF04466F
:100D000000F0CEFE83465846DAF8181001F0A6FC33
:100D10000446DAF8201001F009FBCAF820001B494C
:100D2000DAF8200001F066FC01D2184809E0184901
:100D3000DAF8200001F05EFD01D2154801E0DAF892
:100D40002000CAF82000DAE9060101F085FD064618
:100D5000DAF8141001F082FC0446DAF81810DAF818
:100D60000C0001F07BFC0546214601F0DFFACAF8D1
:100D70000800DAF8080001F009FCBDE8FC9F00005B
:100D80009A9999999999C93F0000F03F000020C1B4
:100D90000000204100B589B00121084600F05AF852
:100DA0000121042000F066F818208DF823000320AC
:100DB000ADF820008DF8220008A91C48FFF774FB4D
:100DC0004FF0804000F0AAFB0020ADF81A00ADF80B
:100DD00016006320ADF818004720ADF8140000207D
:100DE0008DF81C0005A94FF0804000F077FC01A8A9
:100DF00000F038FC6020ADF804000020ADF80C00D5
:100E00000120ADF806000020ADF80A0001A94FF05E
:100E1000804000F089FB01A94FF0804000F0D0FB3A
:100E20000121880700F0D0FA09B000BD0008014098
:100E300010B5044621464FF0804000F01DFC10BD67
:100E400010B5044621464FF0804000F017FC10BD5D
:100E50007047000029B1064AD2690243044BDA61A7
:100E600004E0034AD2698243014BDA617047000013
:100E70000010024029B1064A92690243044B9A616C
:100E800004E0034A92698243014B9A617047000073
:100E90000010024010B5FFF7FDFA37201349086033
:100EA000FFF7D2F9124988694FF07E5101F0A2FB99
:100EB00004D202200F490870FFF778FDFFF7EAFA25
:100EC0004B200A490860FFF7BFF9094988694FF0CC
:100ED0007E5101F08FFB06D200F0F8FC002005499E
:100EE0000870FFF763FDFFF795FC10BD20000020A0
:100EF000540000208000002010B5FFF7CBFA372007
:100F000013490860FFF7A0F9124988694FF07E5134
:100F100001F070FB04D201200F490870FFF746FD75
:100F2000FFF7B8FA4B200A490860FFF78DF9094925
:100F300088694FF07E5101F05DFB06D200F0C6FCDF
:100F4000002005490870FFF731FDFFF763FC10BD75
:100F500020000020540000208000002008B501215E
:100F60000420FFF787FF01210820FFF783FF40F6E9
:100F70003170ADF8000048208DF8030003208DF893
:100F8000020069460548FFF78FFA4FF40060ADF89C
:100F9000000069460248FFF787FA08BD000C0140CF
:100FA00000080140704700000148007870470000C9
:100FB0000800002005480078012804D100200349DA
:100FC0000870012070470020FCE7000009000020A5
:100FD00010B500F001F810BD0CB500200190009094
:100FE0003348006840F480303149086000BF304821
:100FF000006800F4003000900198401C01900098B7
:1010000018B90198B0F5A06FF1D12948006800F433
:10101000003010B10120009001E000200090009805
:10102000012843D12348006840F01000214908609E
:101030000846006820F0030008600846006840F099
:10104000020008601A48406819494860084640682C
:1010500048600846406840F4806048600846406840
:1010600020F47C1048600846406840F4E81048606E
:101070000846006840F08070086000BF0C480068B7
:1010800000F000700028F9D00948406820F0030003
:10109000074948600846406840F00200486000BFC9
:1010A0000348406800F00C000828F9D10CBD00008E
:1010B00000100240002002407047000010B51348A5
:1010C000006840F001001149086008464068104976
:1010D00008400E494860084600680E4908400B4920
:1010E00008600846006820F48020086008464068D0
:1010F00020F4FE0048604FF41F008860FFF768FF8F
:101100004FF000600449086010BD0000001002406C
:101110000000FFF8FFFFF6FE08ED00E0F0B50C461A
:10112000154600220021068C4FF6FE773E400684CD
:10113000028B018C4FF60C7632407E1C06EA0316B9
:101140002E433243104EB0420ED0104EB0420BD060
:10115000B0F1804F08D00E4EB04205D00D4EB042D7
:1011600002D00D4EB04206D14FF6FD76314044F02C
:101170000106314305E04FF6F576314044F00106B3
:10118000314302830184F0BD002C01400034014052
:101190000004004000080040000C0040F0B50C4680
:1011A0001546002200210026078C4FF6EF7C07EA47
:1011B0000C070784028B018C4FF6FF7707EA0416B1
:1011C00040F6FF473A404FF6FF7707EA03373A43C6
:1011D0004FF6FF7707EA05273A43114FB8420ED082
:1011E000104FB8420BD0B0F1804F08D00E4FB8422C
:1011F00005D00E4FB84202D00D4FB84206D14FF67F
:10120000DF77394046F01007394305E04FF65F7746
:10121000394044F01007394302830184F0BD0000D7
:10122000002C014000340140000400400008004050
:10123000000C0040F0B50C461546002200210026A7
:10124000078C4FF6FF6C07EA0C070784828B018C32
:101250004FF6FF7707EA04264FF60C773A404FF631
:10126000FF7707EA03172F433A43114FB8420ED0D6
:10127000104FB8420BD0B0F1804F08D00E4FB8429B
:1012800005D00E4FB84202D00D4FB84206D14FF6EE
:10129000FF57394046F48077394305E04FF2FF5756
:1012A000394044F48077394382830184F0BD0000E3
:1012B000002C0140003401400004004000080040C0
:1012C000000C0040F0B50C46154600220021002617
:1012D000078C4EF6FF7C07EA0C070784828B018C93
:1012E0004FF6FF7707EA043640F6FF473A404FF6DD
:1012F000FF7707EA05273A434FF6FF7707EA0337F8
:101300003A43114FB8420ED0104FB8420BD0B0F153
:10131000804F08D00E4FB84205D00E4FB84202D0D1
:101320000D4FB84206D14DF6FF77394046F480574D
:10133000394305E047F6FF57394044F480573943B5
:1013400082830184F0BD0000002C01400034014084
:101350000004004000080040000C004010B50121CE
:10136000114800F061F801281DD1FFF71BFAFEF7C4
:10137000AFFF0E4948600E48006801F023F90B49A1
:1013800008600846FFF796FC044601F01BF909497E
:1013900008600846FFF728F900B2074908800121D4
:1013A000014800F00EF810BD000800405400002075
:1013B000200000202800002024000020CA430282D0
:1013C0007047CA430282704721B1028842F001028D
:1013D000028004E002884FF6FE731A4002807047D4
:1013E000F0B50C4615461E46002100220023018957
:1013F000028B038C4FF6F877394021434FF6FC47B8
:101400003A4040F201173A434FF6DD773B404FF642
:10141000FF7707EA06172F433B43018102830384CA
:10142000F0BD0146888C704730B50246002000238D
:101430000024158A05EA0103958905EA010413B120
:101440000CB1012000E0002030BD000070B5054661
:101450000C46244885420ED0234885420BD0B5F176
:10146000804F08D02148854205D02148854202D0CE
:101470002048854200D100E000BF208850B9238970
:10148000A28861882846FFF749FEE188284600F0D7
:10149000F9F825E0208804280AD12389A2886188E8
:1014A0002846FFF77BFEE188284600F0F4F817E0B5
:1014B000208808280AD12389A28861882846FFF756
:1014C000B9FEE188284600F0F3F809E02389A288F4
:1014D00061882846FFF7F6FEE188284600F0F1F81B
:1014E00070BD0000002C01400034014000040040A9
:1014F00000080040000C00400021018041800121D3
:1015000081800021C180018170471AB183890B431A
:10151000838102E083898B438381704701894FF681
:10152000F87211400181704770B500240022002339
:10153000058C4FF6FE7635400584028C8388048B3B
:101540004FF68F752C40B51E2C400D882C43751E10
:101550002A400D892A434D882A43144DA8420BD0B6
:10156000134DA84208D0134DA84205D0124DA842F1
:1015700002D0124DA84213D14FF6F7752A404D897B
:101580002A434FF6FB752A408D882A434FF6FF65A4
:101590002B404FF6FF552B408D892B43CD892B4394
:1015A00083800483CD888586028470BD002C014031
:1015B0000034014000400140004401400048014027
:1015C00070B5002400220023058C4FF6EF763540DD
:1015D0000584028C8388048B48F6FF752C404FF6F7
:1015E000FF452C400D884FF6FF7606EA05252C4373
:1015F0004FF6DF752A400D8906EA05152A434D8806
:1016000006EA05152A43154DA84202D0144DA842FA
:101610001DD14FF67F752A404D894FF6FF7606EAB9
:1016200005152A434FF6BF752A408D8806EA051531
:101630002A434FF6FF352B404FF2FF752B408D8923
:1016400006EA85052B43CD8906EA85052B43838071
:101650000483CD880587028470BD0000002C014002
:10166000003401400021018041808180C1800181DE
:1016700041818181C18170478186704701877047B0
:1016800081847047028B4FF6F3731A400283028BFA
:101690000A4302837047028B4FF2FF331A400283E2
:1016A000028B4FF6FF7303EA01231A43028370474C
:1016B000828B4FF6F3731A408283828B0A438283B4
:1016C0007047828B4FF2FF331A408283828B4FF632
:1016D000FF7303EA01231A438283704700220288C2
:1016E0001D4B98420ED01D4B98420BD0B0F1804F4D
:1016F00008D01B4B984205D01A4B984202D01A4B87
:10170000984204D14FF68F731A404B881A43174BF7
:10171000984207D0164B984204D04FF6FF431A4028
:10172000CB881A4302808B8883850B8803850A4BFC
:1017300098420BD0094B984208D00E4B984205D0E6
:101740000D4B984202D00D4B984201D10B7A038683
:101750000123838270470000002C014000340140C7
:101760000004004000080040000C00400010004051
:101770000014004000400140004401400048014086
:101780004FF6FF71818000210180C180418001728C
:10179000704700001FB501210420FFF75BFB1A48CA
:1017A000FFF7BCFE0020ADF80A00ADF8060040F2DD
:1017B000E730ADF808004720ADF8040000208DF8B0
:1017C0000C0001A91048FFF789FF01210E48FFF71F
:1017D000F5FD012211460C48FFF797FE4FF4A0607B
:1017E000FFF7DAF81E208DF8000001208DF80300C5
:1017F0008DF801008DF802006846FFF795F8012189
:101800000148FFF7E1FD1FBD0008004010B5FEF7DD
:1018100041FE4B2012490860FEF716FD1149886908
:101820004FF07E5100F0E6FE04D201200E49087010
:10183000FFF7BCF8FEF72EFE372009490860FEF7D7
:1018400003FD084988694FF07E5100F0D3FE04D2B1
:10185000002005490870FFF7A9F8FEF7D3FF10BD77
:1018600020000020540000208000002010B5FEF76A
:1018700011FE4B2012490860FEF7E6FC1149886909
:101880004FF07E5100F0B6FE04D202200E490870DF
:10189000FFF78CF8FEF7FEFD372009490860FEF7D8
:1018A000D3FC084988694FF07E5100F0A3FE04D2B2
:1018B000002005490870FFF779F8FEF7A3FF10BD77
:1018C00020000020540000208000002010B51421CA
:1018D000484200F073F84FF41660FEF7D6FC10BDD6
:1018E00010B540F22551094800F025F801280CD127
:1018F000064800F04AF806490870012005490870BA
:1019000040F22551014800F007F810BD00380140B1
:10191000080000200900002010B50022002340F636
:101920006A14A14200D100BF0A1201249440A3B25C
:10193000DC43048010BD70B502460024002300255E
:10194000002040F66A16B14200D100BFC1F3421533
:1019500001F01F03012606FA03F3012D02D1968937
:10196000334006E0022D02D1168A334001E0968A08
:1019700033400C12012606FA04F41688344013B1E1
:101980000CB1012000E0002070BD01468888C0F342
:101990000800704700BFFEE7FEF7A0FFFFF7DEFA82
:1019A000FFF7F8FEFEF7F2FCFEF7D8FEFFF7A4F80B
:1019B000FEF738FF01E0FFF750F9FCE770B5054688
:1019C0000C462846FEF74AFF2046FEF767FF70BD2B
:1019D00010B5FFF7EFFA012803D1FFF7E5FA2E491A
:1019E00008702D480078312806D101202B49087055
:1019F0000020294908704BE027480078322806D19A
:101A000002202649087000202349087040E022483F
:101A10000078332806D103202049087000201E4991
:101A2000087035E01C480078342806D104201B4992
:101A300008700020184908702AE0174800783528F7
:101A400006D10520154908700020134908701FE0D1
:101A500011480078362806D1062010490870002069
:101A60000D49087014E00C480078372806D107208B
:101A70000A49087000200849087009E00648007803
:101A8000382805D10820054908700020024908704F
:101A90000248007810BD0000810000208200002074
:101AA00021F00042A2F16052B2F5801F01F0004324
:101AB00028BFD2F17F6C0BD95FEA001C43EAC20257
:101AC00042EB507018BF704728BF20F001007047EC
:101AD000B2F5801FBCBF184670474FEA410C1CF599
:101AE000001F02D2084600F080BE70B500F0B4FAC4
:101AF00000000089FFF7F6BF4FF00040A0F580001E
:101B00007047000010B591EA030F48BF83F000430F
:101B100000F1FE82841A71EB030C05D2121943EB1B
:101B20000C03001B61EB0C01DFF824E14FEA1154B8
:101B3000A4EB135C1EEA430F18BF9EEA445F73D008
:101B400023EA0E03DCF1200E21EA045143F4801352
:101B500032D322FA0CFE10EB0E0023FA0CFE41EBFE
:101B60000E01CCF1200E03FA0EFE10EB0E0051F127
:101B70000001B1F5801FCCF1200E32D201EB0451EF
:101B800012FA0EF2BDE8104058BF7047401C38BF33
:101B90005FEA420218BF7047002814BF20F001001E
:101BA00041F100014FEA410313F5001F38BF7047B0
:101BB000A1F1C04100F09EBA012A43EB0302ACF14F
:101BC000200CDCF11F0E32BF4FF0000E23FA0CF395
:101BD00010EB030041EB0451B4EB115FD0D0A1EB4B
:101BE000045101F5801149085FEA300001EB04510E
:101BF0000ED350F1000038BF12FA0EFE08D1BDE836
:101C00001040C9E7401C38BF5FEA4202CAD1C3E7AF
:101C1000BDE810404FEA410313F5001F38BF70477D
:101C2000A1F1C04100F066BA9EEA445F08D011EA13
:101C30005E0FBDE8104004BF01F000410020704776
:101C4000BDE8104070B500F007FA00BF64FBBE3E6F
:101C50000000E0FF2DE9C04130B4DFF8A0C23CEA4B
:101C6000111418BF3CEA131400F0EC8081EA03055C
:101C70001CEA111444EAD57418BF1CEA131500F0CD
:101C8000C780A4EB05044FF0004545EAC12145EAB1
:101C9000C32341EA505143EA525304F17F749942FD
:101CA00004F500344FEAC0204FEAC22208BF904238
:101CB00000F09C804FEA13650FF24016765D4FEA04
:101CC000134506FB05F7C7F1807706FB07F74FEAD8
:101CD000D737A7FB03687642C8F58038A7FB06CE46
:101CE00038BFA8F1010807FB08E64FF0000EA6FB7D
:101CF000028CE6FB03CEDCF1000CCEF1004E38BFC7
:101D0000AEF1010EA6FB0C584FF000074FF0000596
:101D1000E6FB0E87A1FB08C6A0FB07CE16EB0E065E
:101D200045F10005E1FB076515F1E04E7EBFA4F526
:101D300080345FEA46066D4116F1800745F10005E3
:101D40004FEA17274FEA066647EA0567A6F1DE461F
:101D5000B6F1805F4FEA15251FD9384624F0010CF3
:101D600005EBC471BCF1FE6F01EB0C1102D8F0BCA5
:101D7000BDE8008124425CBF01F5801E9EEAC47F5D
:101D800002D4F0BCBDE80081244238D4F0BCA1F1FB
:101D9000C041BDE8004100F0ADB94FEAD22242EAAD
:101DA00043524FEAD323A7FB02864FEAD02040EAF2
:101DB000415007FB03661EEA0E0F4FEAD12105FBD7
:101DC000026658BFA6EB0056B6EB00564FEA520E1D
:101DD0004EEAC37E18EB0E0E56EB530EBDD518EB34
:101DE00002085E417F1C55F10005B6E74FF48015EF
:101DF0004FF000074FF000064FF00008ADE7F0BCD1
:101E00004FF0000001F1C04101F00041BDE8008148
:101E100011EA0C1F0CEA131500D00CE013EA0C1F9A
:101E200000F025804FF00000F0BC81EA030101F0D2
:101E30000041BDE80081F0BCBDE8004181EA03013A
:101E400000F058B9F0BCBDE8004170B500F004F9ED
:101E5000097EFC3E00F007B881EA03014FF0000064
:101E600001F00041704781EA030100F043B9F0BC82
:101E7000BDE800414FF0000021497047FFFDFBF92C
:101E8000F7F5F4F2F0EEEDEBE9E8E6E4E3E1E0DEAD
:101E9000DDDBDAD8D7D5D4D3D1D0CFCDCCCBCAC81F
:101EA000C7C6C5C4C2C1C0BFBEBDBCBBBAB9B8B746
:101EB000B6B5B4B3B2B1B0AFAEADACABAAA9A8A839
:101EC000A7A6A5A4A3A3A2A1A09F9F9E9D9C9C9B07
:101ED0009A999998979796959594939392919190B2
:101EE0008F8F8E8E8D8C8C8B8B8A89898888878743
:101EF0008685858484838382828181800000FF07B8
:101F00000000F87FDFF848C170B51CEA111E1EBF43
:101F10001CEA13159EEA0C0F95EA0C0F00F06F8077
:101F200081EA030423EA4C134EEAD47E21EA4C11E1
:101F300041F4801143F48013AE44A1FB024CA0FB9A
:101F40000365AEF17F7E361955EB0C05A1FB034C02
:101F50004CF10003A0FB021C16EB0C06654153F18B
:101F60000003094218BF46F0010613F4007F0BD1AD
:101F70004FEA03314FEA0530340341EA155140EA94
:101F800016506FF003020AE04FEAC3214FEAC52062
:101F9000F40241EA555140EA56506FF0020202EB5A
:101FA0002E4201EB025585EACE710AD05FEA440C5D
:101FB00018BF24F0004450F1000041F1000120EA74
:101FC000D47040F2FE7C624500D270BDA84214BFBE
:101FD0004FF080444FF04044002E08BF0024BEF173
:101FE000806FA8BFA1F1C041BDE8704080F282803F
:101FF0004FF0000001F1C04101F0004170479EEA3E
:102000000C0F0CEA131518BF95EA0C0F06D04FF011
:10201000000081EA030E0EF0004170BD00F01CF8D4
:102020008900013E00F007B800F009B84FEA430C00
:102030005FEA5C5C08D081EA030100F05BB84FEA1C
:10204000410C5FEA5C5CF6D14FF00000014970473B
:102050000000FF070000F87F0EF1020E2EF0030EC5
:102060005EF8046B364205D4012A43EB030515F5EF
:10207000001F12D8012841EB010C1CF5001F0CD8E1
:102080000ED14FEAD17C15F5001F0CEB4C0C0CF176
:10209000020C08BF4CEBD37C04E04FF0080C01E0CD
:1020A0004FEAD37C0CEB4C0526FA05F606F0070642
:1020B000B6F1040C06D20EEB860CBDE870404CF075
:1020C000010C6047DFE80CF0090B02024FF0004101
:1020D0004FF00000A1F5002170BD194610460128FF
:1020E00051EB010418BFD4F5001484BF002001F0A7
:1020F000004170BD0808A0F500114FEA310170479A
:1021000010B591EA030F48BF83F000433FF502ADDD
:10211000841A71EB030C07D212198CF0004C43EBBC
:102120000C03001B61EB0C01DFF8A4E14FEA115432
:10213000A4EB135C1EEA430F18BF9EEA445F00F055
:10214000B08023EA6E03524221EA0451C3EB6E03CE
:1021500038BF5B1EDCF1200E25D322FA0CFE10EBFB
:102160000E0043FA0CFE41EB0E01CCF1200E03FAF7
:102170000EFE10EB0E0051F10001CCF1200E29D41F
:1021800012FA0EF201EB0451BDE8104058BF70473F
:10219000401C1CBFB2F1004F704700280CBF491C07
:1021A00020F00100704712EB020E43EB030218BF50
:1021B0004FF0010E4EEA4202ACF1200CDCF11E0E93
:1021C00054D943FA0CFE10EB0E0051F1FF31CCF163
:1021D0001E0ED5D50EF1010E12FA0EFE404141EB56
:1021E000010101EB445C5FEA5C5C10D910EBDE702E
:1021F00001EB045138BFBEF1004FBDE8104018BFDD
:10220000704700280CBF491C20F00100704730D2F5
:102210004FEAD42C11F5001124F400641BD0B1FA5C
:1022200081F20B3AA41AA41ED2F12003914030FA95
:1022300003F31943904001EBCC71002C01EB0451E6
:10224000BDE81040A8BF704701F1C0414FF0000049
:1022500001F000417047B0FA80F310FA03F100D1A9
:1022600010BDE41A173C4805C90AE4E701EB045124
:1022700010BD491001EB0451BDE810404FEA300099
:1022800002E04FF0000170474A0008BF0042F8D05A
:10229000B2F5001F28BF704701F000414FF0000069
:1022A00070479EEA445F07D011EA5E0FBDE8104018
:1022B00004BF002100207047BDE8104070B5FFF753
:1022C000CBFE00BF40DFF63E83F000411046704772
:1022D0000000E0FF43004FEAD30C4FEA3C0C4340C0
:1022E0001FBF40070CF1605113F0FE4F70471CF008
:1022F000006F03D100200CF0004170470CF0004348
:1023000043EA507010B540EACC0000F028FA00BF54
:10231000000000924FEA0001FFF7ECBE4FF00041D1
:102320004FF00000A1F500217047000090EA010F76
:1023300048BF81F0004100F19682421A3CBF801AEA
:1023400089184FEAD0524FF07F4C1CEA410FA2EBA4
:10235000D15318BF9CEA026F00F03B804FF0004C55
:102360004CEA00204CEA012121FA03FC10EB0C0C92
:102370001ED202F1FF325FEA1C2040EBC25038BF90
:1023800070471CF07F0F4FEA400C18BFBCF17F4F25
:1023900038BF7047C3F12003994008BF20F0010007
:1023A000BCF17F4F38BF7047A0F1C04000F01DBAAC
:1023B0004FEA3C00000A40EBC25028BF1CF0FF0F60
:1023C0004FEA400CE6D018BFBCF17F4F38BF7047D2
:1023D000EAE79CEA026F05D010EA5C0F08BF00F044
:1023E0000040704710B500F0BAF900BF64FBBE3E74
:1023F000401058BFC0F14040491058BFC1F14041A2
:102400008142EFF3008070474FF47F0C1CEAD0123A
:102410001EBF1CEAD11392EA0C0F93EA0C0F00F0D6
:10242000858090EA010F48BF42F4807240F4000CAE
:1024300041F400002CF07F4120F07F4000B5814244
:10244000A2EB03020FF2081CACEB504EC0F10000EF
:102450009EF800E04FEA4E0E00FB0EFC38BF49002C
:102460004FEA2C1C02F5FA020CFB0EF34FEACE1ECB
:102470004FEA112C4FEAC1210EEB635E42EB224280
:102480000EFB0CFC4FEA1C5300FB03114FEA112C0E
:102490004FEA01310EFB0CFC4FEADC4C00FB0C1147
:1024A000C14228BF09184CEB03335DF804EB10EB75
:1024B000410143EBC250B2F57C0F38BF704729D5BC
:1024C00012F0F00F1CBF00F1C04000F00040704758
:1024D000008182838485868788898B8C8D8E8F91FD
:1024E0009293959697999A9C9D9FA0A2A3A5A7A821
:1024F000AAACAEB0B2B3B5B7B9BCBEC0C2C5C7C94D
:10250000CCCED1D4D7D9DCDFE2E6E9ECF0F3F7FAB0
:10251000FE0000004FEA400C0CF1807CBCF17E4FC5
:1025200028BF7047B0F1C04000F05FB990EA010FDA
:102530000CEAD11348BF42F48072624538BF63454C
:1025400007D213F47F0F16D080EA010000F000409C
:10255000704710B500F003F9097EFC3E00F005B8A5
:1025600080EA010000F00040704780EA010000F0BE
:10257000004000F03AB912F47F0F04BF02487047E0
:1025800080EA010000F031B90000C07F41000B0E6D
:10259000D3F19E0208D950F400034FEA032323FA33
:1025A00002F048BF4042704710B500F0D8F800BFB5
:1025B00049922480002070476FF0004282EA200098
:1025C0007047000010F0004148BF4042B0FA80F36D
:1025D00010FA03F2C3F19D030BD051EAC35101EB92
:1025E0001220530638BF704700F1010008BF20F0E9
:1025F0000100704750EA010C00F113801CF5000F38
:1026000058BFBCF5000F01D48842704707D710F5BA
:10261000000F58BF11F5000F15D48842704789424A
:1026200070471CF5000F04D5BCF5000FF7D58142AB
:1026300070474FF0807C1CEB400F38BF1CEB410F04
:1026400001D28142704710B500F089F89224490008
:102650004FF000504FF08051FFF7CABE4FF47F0C8F
:102660001CEAD0121EBF1CEAD11392EA0C0F93EAA7
:102670000C0F00F0478090EA010F48BF42F48072CF
:102680004FF0004C4CEA00204CEA012102EB03021F
:10269000A0FB0113A2F50002002918BF43F00103BB
:1026A0005B0028BF4FEA330342EB22425FEA132C60
:1026B0004CEBC2502EBFBCEB436FB2F57C0F7047A2
:1026C0004FEA036CBCF1004F08BF20F00100B2F5E7
:1026D0007C0F38BF70470BD582F0FF0212F5803FA8
:1026E000C8BF704700F1C040D8BF00F0004070473D
:1026F00000F5000C5FEA4C0C48BF7047B0F1C040D9
:1027000000F073B890EA010F0CEAD11348BF42F40D
:102710008072624538BF634504D280EA010000F050
:102720000040704710B500F01AF800BF8900013E64
:1027300000F007B800F009B85FEA410C5FEA1C6CD2
:1027400008D080EA010000F050B85FEA400C5FEA70
:102750001C6CF6D14FF00040A0F5800070470EF1E0
:10276000020E2EF0030E5EF8044B244204D44FEA0E
:102770004102B2F17F4F11D84FEA4003B3F17F4FCE
:102780000CD80ED14FEAD07CB2F17F4F0CEB4C0C41
:102790000CF1020C08BF4CEBD17C04E04FF0080CAC
:1027A00001E04FEAD17C0CEB4C0324FA03F404F073
:1027B0000704B4F1040C06D20EEB840CBDE8104003
:1027C0004CF0010C6047DFE80CF0070802024FF004
:1027D0000040A0F5800010BD0846420018BFD2F1AD
:1027E000807288BF00F0004010BDFF2141EAD05048
:1027F000C005704751EA000C00F113801CF5000F72
:1028000058BFBCF5000F01D48142704707D711F5BE
:10281000000F58BF10F5000F15D481427047894250
:1028200070471CF5000F04D5BCF5000FF7D58842A2
:1028300070474FF0807C1CEB410F38BF1CEB400F02
:1028400001D28842704780EA010081EA000180EAF3
:102850000100FFF7F8BE000090EA010F48BF81F0C9
:1028600000413FF56AAD421A04D882F00042A0EB65
:10287000020011444FEAD0524FF07F4C1CEA410F46
:10288000A2EBD15318BF9CEA026F4AD04FF0004C24
:102890004CEA00204CEA012121FA03FCB0EB0C0CBD
:1028A0000FD412F0FE0F36D05FEA4C001DD5001297
:1028B00040EBC25038BF70471CF03F0F18BF704745
:1028C0000BE0A2F101025FEA1C2040EBC25038BFCE
:1028D00070471CF07F0F18BF7047C3F12003994069
:1028E00014BF401E20F00100704780084FEA1223F9
:1028F00008BF7047B0FA80FCA2EB0C02CCF1280CA8
:1029000060FA0CF093EA122F04BF00EBC25070473C
:102910004FEAC3707047130A5FEADC1008BF7047C4
:10292000F6E79CEA026F04D010EA5C0F08BF0020B3
:10293000704710B5FFF713FF40DFF63E81F000400F
:102940007047000064290008000000208400000097
:1029500028010008E829000884000020640A00001B
:10296000440100080000000000000000000000001A
:102970000000000000000000000000000000000057
:102980000000000000000000000000000000000047
:1029900000000000000000009A99993E9A99993E23
:1029A0000000000000000000000000000000000027
:1029B0000000C8420000C8C2000000000000000083
:1029C000000000009A99993E00000000CDCCCC3E5A
:1029D0000000000000000000000000000000A04116
:0829E0000000A0C1000000008E
:04000005080000ED02
:00000001FF
