:020000040800F2
:10000000680B00203502000849210008291F00085C
:1000100075200008F71A0008FD34000800000000F1
:10002000000000000000000000000000312A00086D
:10003000D91C00080000000001290008652C0008F8
:100040004F0200084F0200084F0200084F0200084C
:100050004F0200084F0200084F0200084F0200083C
:100060004F0200084F0200084F0200084F0200082C
:100070004F0200084F0200084F0200084F0200081C
:100080004F0200084F0200084F0200084F0200080C
:100090004F0200084F0200084F0200084F020008FC
:1000A0004F0200089D2E00084F0200084F02000872
:1000B0004F0200084F0200084F0200084F020008DC
:1000C0004F0200084F0200084F0200084F020008CC
:1000D0004F0200084D3300084F0200084F0200088D
:1000E0004F0200084F0200084F02000800F002F81B
:1000F00000F090F80AA090E8000C82448344AAF132
:100100000107DA4501D100F085F8AFF2090EBAE82F
:100110000F0013F0010F18BFFB1A43F0010318473B
:100120004C4E00006C4E0000103A24BF78C878C1D5
:10013000FAD8520724BF30C830C144BF04680C60ED
:10014000704700000023002400250026103A28BF35
:1001500078C1FBD8520728BF30C148BF0B60704739
:100160006E2900F07B81702900F0BD82662904F0C1
:100170007481652904F07181672904F06E81612919
:1001800004F06D8103681B0A28BF41F080016929D2
:1001900000F02881642900F02581752900F0228172
:1001A0006F2900F04A82782900F08982E92900F05D
:1001B000E581E42900F0E281F52900F0DF81EF29F3
:1001C00000F04782F82900F088820368DB0928BF25
:1001D00041F08001632900F08B87732900F090873C
:1001E000E32900F09B87F32900F0A08700207047E7
:1001F0001FB500F0F1FF04000020002103F09CFA7D
:10020000401C60600020002103F080FAE0601FBD08
:1002100010B510BD00F0B2FF1146FFF7E9FF03F083
:1002200089F901F08FF803B4FFF7F2FF03BC01F086
:1002300093F800000948804709480047FEE7FEE7B9
:10024000FEE7FEE7FEE7FEE7FEE7FEE7FEE7FEE786
:1002500004480549054A064B70470000692C000810
:10026000ED00000868050020680B002068070020EA
:10027000680700201CB50C46064B7B44694600907D
:10028000204600F004F904460020694600F012F907
:1002900020461CBD370200004FF0013C50F8042BF3
:1002A00051F8043B9A4221D1A2EB0C03934313EA89
:1002B000CC1317D150F8042B51F8043B9A4215D1B6
:1002C000A2EB0C03934313EACC130BD150F8042B8D
:1002D00051F8043B9A4209D1A2EB0C03934313EA71
:1002E000CC13DBD04FF00000704700BFD01A01BA2A
:1002F000B1FA81F101F0180122FA01F0CB40C1F10D
:100300002001DBB2C0B2C01A2CFA01F3D11A91431A
:1003100011EAC311E6D1704770477047704770B556
:10032000044685690068C10601D5302600E0202614
:10033000C00707D070BDD4E9012130469047206A3C
:10034000401C20626D1EF6D570BD70B504468569EF
:100350000078C00707D170BDD4E901212020904763
:10036000206A401C20626D1EF6D570BD09684A05E2
:1003700001D540B27047C905FCD500B27047096885
:100380004A0501D5C0B27047C905FCD580B2704797
:1003900070B50C460546012A05D02878800600D5A0
:1003A000EA69002302E0012305E05B1C934202D2CC
:1003B000E05C0028F9D1A869E618C01AA861286A8B
:1003C000184428622846FFF7AAFF04E0D5E9012176
:1003D00014F8010B9047B442F8D32846FFF7B5FF55
:1003E00070BD00002DE9F041064600241068752913
:1003F000314616A510D0FFF7B9FF002802DA4042B7
:1004000013A507E031688A0701D512A502E0490764
:1004100004D511A5012401E0FFF7B1FF00210A2254
:1004200006F1240709E0B0FBF2FCB0FBF2F302FB9B
:100430001C00303078541846491C0028F3D123465C
:100440002A463046BDE8F04100F061BA00000000E5
:100450002D0000002B000000200000001168026841
:10046000006A530501D508700AE0D30501D508805C
:1004700006E0130603D5C217C1E9000200E00860D8
:100480000120704701694A1C02610878704700B575
:100490008FB0CDE901310021059105497944CDE9BD
:1004A00003101146684600F029F90FB000BD0000A6
:1004B000E5FFFFFF0A6802F8010B0A6070470000C1
:1004C0002DE9FF5F15468A460446DFF8AC80F84404
:1004D0000027D8E900103E46CDE9001010E03AF8B8
:1004E00016106A4602A800F025FE411C07D02178AC
:1004F000890603D5E269391891420DD80744761C64
:100500002078800602D5E069B84205DDAE42E6DB20
:100510003AF816000028E2D1A069C01BA06120466D
:10052000FFF7FDFED8E90010CDE90010002017E02C
:100530003AF818106A4602A800F0FCFDB0F1FF3F3F
:1005400081460BD000250DF1080B05E0D4E901210F
:100550001BF8050090476D1C4D45F7D308F10100CD
:10056000B0428046E4DB206A384420622046FFF730
:10057000ECFEBDE8FF9F00009E4900002DE9F04120
:100580008046D21D22F007020025D2E90002F5299B
:1005900015A614D0011E72F1000106DA0023D0EB7B
:1005A000030063EB020211A608E0D8F800108B07E5
:1005B00001D50FA602E0490701D50EA60125114677
:1005C000002408F1240704E000F05CF930323A55C9
:1005D000641C50EA0102F7D12B46324621464046C0
:1005E000BDE8F04100F093B9000000002D000000CC
:1005F0002B0000002000000030B4002100F1240492
:1006000008E002F00705D208303542EA4372DB0801
:100610006554491C52EA0305F3D10468002310A273
:10062000250707D5A40600D421B1C46901230DA272
:10063000641EC46130BC00F06AB910B5044621469E
:100640001068FFF79CFE02462046BDE810400023DC
:10065000D2E7D21D22F00701D1E90023CCE7000048
:100660000000000030000000F0B40D4601880905CC
:1006700002D5214C7C4402E01F4C7C440E34002106
:1006800000F1240608E002F00F071209E75D42EAD4
:1006900003721B097754491C52EA0307F3D102780D
:1006A0000023120704D5702D06D009B1022311349E
:1006B0002246F0BC00F02BB901231034F8E770B5E6
:1006C00004460D4621461068FFF759FE02462946AA
:1006D0002046BDE870400023C6E7D21D22F0070384
:1006E000D3E90023C0E70368126843F020030360E6
:1006F0000823C3610023B7E7004800002DE9F05F3D
:10070000894604464FF0000ADFF874B1FB44C0F894
:1007100020A02046E1688847002874D0252806D00C
:10072000D4E901219047206A401C2062F1E70026AD
:100730005F462046E16888472028054607DB312DC3
:1007400005D2781910F8200C08B10643F1E7B0077C
:1007500001D526F00406C4F81CA00027C4F818A090
:100760002A2D09D0284602F0DEFE38B304EB8708B4
:10077000303DC8F8185019E059F8041B204604EB26
:1007800087029161E1688847012F054618D1E06929
:10079000002820DA26F020061DE0D8F8180000EB2B
:1007A000800005EB40003038C8F818002046E168AA
:1007B0008847054602F0B7FE0028EED1012F0AD087
:1007C0002E2D08D12046E16888477F1C0546022F60
:1007D00046F02006C4DBA069002803DA404246F058
:1007E0000106A061F00701D026F010066C2D0BD099
:1007F000682D09D04C2D39D06A2D35D0742D35D0C7
:100800007A2D33D016E038E0E1682F46204688473D
:10081000B842054609D16C2F26D04FF48060E168BC
:10082000064320468847054604E06C2F1AD04FF453
:10083000807006430DB3A5F14100192802D8203578
:1008400046F400664A462946204626604E46FFF793
:1008500087FC80B101280BD0F61D26F0070000F1BF
:10086000080956E74020E4E78020D8E70020D6E7D3
:1008700006F104094DE7284652E7206ABDE8F09FDB
:100880009047000030B5B0F10A024FEA900E71F1C6
:1008900000034EEA817EB0EB0E0061EB91014FEA5E
:1008A000101E4EEA017E10EB0E0041EB11114FEAD3
:1008B000102E4EEA016E10EB0E0041EB11214FEAB3
:1008C000104E4EEA014E10EB0E0041EB1141401864
:1008D00041F100014FEAD00040EA41704FEAD101F6
:1008E00010EB80054FEA810444EA907444EB010464
:1008F0006D1944EB0404521BA3414FF0000348BFA1
:100900000A3200D530BD401C41F1000130BD2DE957
:10091000F0470D4699469246044600F124080168C6
:10092000880604D5E06921F01001216000E0012073
:10093000A84201DD471B00E00027A1697A1902EBFC
:100940000900081AA0612078C00602D42046FFF7EB
:10095000E6FC002608E0D4E901211AF806009047D9
:10096000206A401C761C20624E45F4DB2078C006CD
:100970000AD52046FFF7D3FC06E0D4E90121302058
:100980009047206A401C2062381EA7F10107F4DC62
:1009900007E0D4E9012118F805009047206A401CBF
:1009A0002062281EA5F10105F3DC2046FFF7CDFCEF
:1009B0002078000602D50220BDE8F0870120FBE781
:1009C00070472DE9FF4F0C461E464FF0FF378BB0A6
:1009D000D2E90001DDF860800A908A46C1F30A5529
:1009E00005B93D46002108464FF00000BAF1000F5E
:1009F00000F4400005DA00EB80004FF4400101EA0A
:100A000050004FEA9059B9F1010F00DDB9460A983C
:100A100050EA4A000ED044F61050A5F2FF35454387
:100A20002F14B8F1000F1ED07542291E1EDDC9F12A
:100A300000021CE0B8F1010F4FF0000001D030219E
:100A400003E0F24305E02154401CB042FBDB30469A
:100A50000022002121540B99C1F80880C1E900202F
:100A60000FB0BDE8F08FBD1B6D1CDEE74A4600DA13
:100A7000694206A800F0F4FB06AB93E8070003AB5D
:100A800083E8070050460A9900F06DFC8DE80700E6
:100A9000A0F500501F3800900398002D0ADD42F2A7
:100AA0001F014A460844002303A90390684600F04A
:100AB000D6FE09E0A0F500504A461F38002303A9DE
:100AC0000390684600F0E0FE8DE807000004000C8B
:100AD00003D04FF0FF30410800E01046B8F1000F9E
:100AE00003D00022009215461EE0751E05D4FFF7C4
:100AF000C9FE303262556D1EF9D5B3460122084356
:100B000002D000227F1C04E02078302801D100228E
:100B10007F1E002A099784D01DE0112D07DAFFF708
:100B2000B1FE303262556D1C50EA0102F5D1084326
:100B300002D00098C8B10EE00021681E05E0235CD9
:100B4000625C63542254401E491C8142F7DBAB4671
:100B5000A81B401E0990002004F80B000B98099A6E
:100B6000C0F80880C0E9002B7AE711264FF0000892
:100B700057E72DE9F04F88460446D21D22F00701C1
:100B800091B0D1E90001CDE90A0102F0B8FC0246BA
:100B90000B98C00F01D02D2007E02068810701D5F8
:100BA0002B2002E0202101EAC000032A099001D095
:100BB000072A05DB03464146204600F011FB0BE106
:100BC0002078800601D5E06900E00620B8F1650FC5
:100BD000814606D0B8F1660F18D0B8F1670F70D112
:100BE00031E00020B9F1110F009001DB112301E089
:100BF00009F101030AAA01A90CA8FFF7E2FEDDE949
:100C00000C70002609F10105834647E001204B46A0
:100C100000904FF000470AAA01A90CA8FFF7D1FEE7
:100C2000DDE90DB00C995D46002610B909F101000F
:100C30000D18B9EB050003D4C0F1FF3609F1010529
:100C4000A5EB09002BE0B9F1010F01DA4FF0010922
:100C50000020B9F1110F0090484601DD112300E09A
:100C600003460AAA01A90CA8FFF7ABFEDDE90C7048
:100C70004D4600268346207800070AD4AB4500DAAB
:100C80005D4601A8012D04DD411911F8011C302930
:100C900007D04F4502DA17F1040F04DA012082462B
:100CA0000FE06D1EEEE7002F02DCED1B3E4403E07B
:100CB000781CA84200DD7D1CB81B00F1010A4FF032
:100CC00000472078000703D4AA4501DB4FF0FF3A24
:100CD0000021B7F1004F0DF143088DF8431024D0E7
:100CE00002202B23002F01DA7F422D230A21021E2E
:100CF000A0F1010000DC5FB197FBF1FC97FBF1F282
:100D000001FB1C7C17460CF1300C08F801CDEEE716
:100D1000A8F1010003702188090501D5452100E0F3
:100D20006521A0F1010800F8011C09980FA9A1EBA9
:100D30000807FF1D00B10120411901EBEA70A1690C
:100D40003844081A401EA0612078C00602D420460C
:100D5000FFF7E5FA099828B1D4E901219047206A04
:100D6000401C20622078C00622D52046FFF7D7FA23
:100D70001EE0002E04DBB34502DD01A8805D00E02B
:100D80003020D4E901219047206A401C2062761C63
:100D9000AAF101005FEA000A0AD100F01DFAC0685A
:100DA0000168405CD4E901219047206A401C206220
:100DB000281EA5F10105DCDC07E0D4E9012118F8C3
:100DC000010B9047206A401C2062381EA7F10107E2
:100DD000F3DC2046FFF7B9FA032011B041E600002A
:100DE0002DE9F04F04460D46D21D22F0070089B0D0
:100DF000D0E900974846394602F081FB0246F80FD9
:100E000001D02D2307E02068810701D52B2302E0C4
:100E1000202101EAC0038DF820300BB1012000E051
:100E20000020032A824601D0072A04DB29462046F7
:100E300000F0D6F93FE12078800601D40D2500E0CE
:100E4000E569C7F30A560D2D49DA00214FEA175B11
:100E500008464FF00000002F00F4400007DA00EBD6
:100E600080004FF4400100EBD07001EA6000811572
:100E7000012901DD4FF0FF3100224FEA850CBCF162
:100E8000180F06D31346ACF118004FF08052C24041
:100E900003E04FF4801323FA0CF30CF10C0CBCF1BB
:100EA000200F04D3ACF1200C09FA0CF001E007FA92
:100EB0000CF000294FF0004801DD18B90FE00ED109
:100EC00040450CD319EB02095F4121B9404502D1DD
:100ED0009F4329EA0209BBEB175F00D0761C2088EC
:100EE000000502D57B48784402E07A4878441938F6
:100EF00008AA302302F80A30037C0AF10101002E0F
:100F00000AF1020A53546A4602DC4FF0300101E054
:100F10004FF031014FF001088DF8001002D0A6F219
:100F2000FF3603E059EA470100D06B4E002D02DC8A
:100F30002178090704D54FF002082E218DF8011001
:100F4000C44600210BE0C7F303433F01C35C491CC7
:100F50006D1E02F80830052908F1010801DA002D9C
:100F6000F1DC00210CE000EB1973491C1B786D1EAD
:100F7000082902F808304FEA091908F1010801DAD6
:100F8000002DF0DC21688B0602D516E0A8F10108DF
:100F9000E04505DD02EB080313F8013C302BF5D0EA
:100FA000B8F1000F09DD02EB080313F8013C2E2B0A
:100FB00003D1090701D4A8F10108002D05DD3E2168
:100FC00002F808106D1E08F10108407C002E02F89E
:100FD000080008F1010804DA2D20764202F8080022
:100FE00002E02B2002F808000A214FF47A708642B2
:100FF00008F101080BDB96FBF0F3303302F8083000
:1010000096FBF0F308F1010800FB136601E0642E83
:101010000CDB642096FBF0F3303302F8083096FBCB
:10102000F0F308F1010800FB136601E00A2E06DB6D
:1010300096FBF1F0303002F8080008F1010896FB49
:10104000F1F001FB1060303002F80800A16908F1EE
:10105000010808EB050202EB0A00081AA0612078DB
:10106000C00602D42046FFF75AF9216A08AE01EB08
:101070000A00206204E0D4E9012116F8010B904730
:10108000BAF1010AF7D22078C00602D52046FFF750
:1010900046F96E4609E016F8010B3E280FD0D4E958
:1010A00001219047206A401C2062B8F10108F2D269
:1010B0002046FFF74AF909B00320BDE8F08F206A07
:1010C0002844206203E0D4E90121302090476D1EBE
:1010D000EBD3F8E7DA3F000002FCFFFF10B54369ED
:1010E00013B1AFF3008001E0FFF752F9012010BD0A
:1010F000127800F124010A7000224A700122EDE703
:1011000011684FF0FF32E9E710B5436913B1AFF34F
:10111000008001E0FFF7D4F9012010BD128800F132
:10112000240182840022C2840122EDE711684FF07D
:10113000FF32E9E770B516460C46054600F044F864
:10114000036893F80101012806D0FF2C0FD8185D21
:1011500068B101202C7070BDD3F8070132462146DA
:1011600003F2071303442846BDE8704018474FF0C8
:10117000FF3070BD00487047040500207546FFF73A
:10118000F9FFAE4605006946534620F00700854644
:1011900018B020B5FFF75CF8BDE820404FF000061E
:1011A0004FF000074FF000084FF0000B21F007014F
:1011B000AC46ACE8C009ACE8C009ACE8C009ACE892
:1011C000C0098D467047000010B500F005F8001DFD
:1011D00010BD00BF652500000048704724050020B1
:1011E0002DE9F0411F46044603260168072A01F451
:1011F000006004DB08B116A505E016A503E008B100
:1012000015A500E015A521F010002060A069C01E02
:10121000A0610FB1401EA0612046FFF780F84FB1DA
:10122000D4E9012138469047206A401C2062C01C46
:10123000206206E0206AFAE7D4E9012115F8010BE3
:101240009047761EF8D22046FFF77FF8BDE8F08180
:101250004E414E006E616E00494E4600696E66005A
:101260002DE9F047814616468AB0354878440DC8C6
:101270008DE80D0032487844801C03AC0DC884E82A
:101280000D0041F69B300844372190FBF1F290FBB2
:10129000F1F5A5F1800501FB12041B3C02D5644267
:1012A000012000E00020DFF898A080460027FA44E3
:1012B000AAF1BE0A0EE0E0070AD03246684607EB04
:1012C000470101230AEB810100F0DEFA8DE80700F7
:1012D00064107F1C002CEED1194F7F44AE3F19E003
:1012E000E80715D007EB04100DF1180A90E80E007E
:1012F0008AE80E00C068F04201D198190890324681
:10130000012306A903A800F0BFFA03AB83E8070096
:101310006D10641C002DE3D14FF001033246694685
:10132000B8F1000F03A802D000F099FA01E000F034
:10133000ABFAC9E90001C9F808200AB0BDE8F08796
:10134000E43C000010B50446AFF300802046BDE841
:101350001040FEF768BF000001491820ABBEFEE751
:101360002600020070475FEA400C08BF91F0000FB2
:101370004FEA8C234FEAC12243EA51514FEA1C50F5
:1013800018BF00F5F0404FEA300018BF41F00041AF
:101390005FEA6C5C00F02980BCF1FF3F08BF40F0C1
:1013A00080407047130C06BF12044FF0100C4FF032
:1013B000000C130E04BF12020CF1080C130F04BF33
:1013C00012010CF1040C930F04BF92000CF1020CFB
:1013D000D30F04BF52000CF1010C11464FF0000274
:1013E000A0F11F00A0EB0C00704711F0004F08BFE8
:1013F000704731F000413FF4D5AF0B0C06BF090434
:101400004FF0100C4FF0000C0B0E04BF09020CF152
:10141000080C0B0F04BF09010CF1040C8B0F04BF67
:1014200089000CF1020CCB0F04BF49000CF1010C38
:10143000CCF12003A0EB0C0022FA03F302FA0CF229
:1014400041EA030100F10100704720F07F4C80EA7F
:10145000030023F07F47ACEB070303F57C5300F058
:10146000004003F1FF032DE980494FEA154B09B411
:101470004FEA144325EA0B4E24EA03480FF20426F0
:1014800006EB132749083E785FEA320203FB066742
:10149000C7F5000707FB06F64FEA54374FEAD64672
:1014A00006F1020607FB066CCCF1005C4FEA1C4714
:1014B0002CEA074C07FB06F40CFB06F504EB15467B
:1014C0004FEA961634BF00204FF000404FEAD13764
:1014D00006FB07FC4FEA1C4C0CFB0BF7D21B03FB73
:1014E0000CF761EB07010CFB0EF7B0EB074072EB5A
:1014F00017420CFB08F734BFA2EB0742B2EB0742DE
:1015000061EB17414FEA0C444FEA910706FB07FCD9
:101510004FEA1C4C0CFB0BF7B0EBC74072EB573299
:1015200003FB0CF734BFA2EBC742B2EBC74261EB3F
:1015300057310CFB0EF7B0EBC70072EB57720CFB88
:1015400008F734BFA2EBC702B2EBC70261EB5771D9
:10155000039F4FEA816141EA921104EBCC044FEA08
:10156000D1374FEA826206FB07FC42EA90124FEA4B
:1015700080604FEA1C4C0CFB0BF7D21B03FB0CF7F3
:1015800061EB07010CFB0EF7B0EB074072EB174263
:101590000CFB08F734BFA2EB0742B2EB074261EB4A
:1015A00017414FEA8C554FEA910704EB9C2406FB48
:1015B00007FC4FEA1C4C0CFB0BF7B0EBC74072EB7F
:1015C000573203FB0CF734BFA2EBC742B2EBC74262
:1015D00061EB57310CFB0EF7B0EBC70072EB5772A3
:1015E0000CFB08F734BFA2EBC702B2EBC70261EBFA
:1015F000577115EB4C254FEA816141EA92114FEA90
:1016000082624FEAD13742EA901206FB07FC44F1AE
:1016100000044FEA80604FEA1C4C0CFB0BF7D21B16
:1016200003FB0CF761EB07010CFB0EF7B0EB074077
:1016300072EB17420CFB08F734BFA2EB0742B2EB88
:10164000074261EB174115EB1C154FEA813141EA66
:1016500092414FEA823242EA90424FEA80304FEAAA
:101660000C7644F1000448EA03434EEA0B484FF07D
:10167000000EB2EB080C71EB030724BF624639463B
:101680004EEB0E0E4FF0000B0018524149414BEB50
:101690000B0BB2EB080C71EB03077BF1000B24BFC3
:1016A000624639464EEB0E0E4FF0000B00185241C9
:1016B00049414BEB0B0BB2EB080C71EB03077BF1D1
:1016C000000B24BF624639464EEB0E0E51EA02076C
:1016D00018BF46F0010616EB0E7655F1000254F1E4
:1016E000000103D5BDE88901BDE80088BDE8890196
:1016F000BDE80048B619524141EB0101A3F10103D5
:10170000704780807F7E7D7C7B7A7978777676756E
:101710007473727171706F6E6E6D6C6C6B6A6A69E6
:101720006868676666656464636362616160605F80
:101730005F5E5E5D5D5C5C5B5B5A5A5959585857F9
:101740005756565555555454535352525251515061
:1017500050504F4F4F4E4E4D4D4D4C4C4C4B4B4BB4
:101760004A4A4A49494948484847474747464646FA
:101770004545454444444443434343424242424135
:101780004141002B9C4630D477002BD01CB54FEA4A
:10179000370703B44FF010004FF01001BAF1000FFB
:1017A00006D0BCF1000FDCBF40F0080040F008019B
:1017B0004FF000000FBCBDE810400BF1010BBBF176
:1017C000010F08BF5FEA170722BF12F1010211F1F2
:1017D00001014FF0004143F1000300F0004043EAF3
:1017E00000007047F9D35708D0E746EA064613F1E0
:1017F000400F4FEA16461FDD13F1200FDFBF1643DF
:101800000A46002120335B42BED0C3F1200746EADE
:10181000064602FA07F74FEA164646EA0706C3F1FC
:10182000200722FA03F201FA07F721FA03F14FF039
:10183000000342EA0702A7E746EA020646EA06462E
:101840004FEA164646EA0106BCBF46EA0646360C93
:101850004FF000034FF000024FF0000194E72DE934
:10186000804C9A46934670B491E8380007C831EA34
:10187000400C48BF34EA430C03D5FFF7E6FDFFF701
:1018800080FFF0BCBDE8008C2DE9804C9A46934661
:1018900070B491E8380007C810F0804F08BF13F00B
:1018A000804F03D100F005F8FFF76BFFF0BCBDE8F7
:1018B000008C20F07F4780EA030023F07F4C07EB89
:1018C0000C03A3F57C5300F00040A3F1FE0392F05B
:1018D000000F00F0B38095F0000F00F077802DE945
:1018E00001494FEA11404FEA144621EA004800FB43
:1018F00006FC24EA064708FB06F607FB08F800FB8F
:1019000007F718EB06484CEB164C4FEA124B18EB56
:1019100007484FEA15464CEB174022EA0B4E0BFBEB
:1019200006FC25EA06470EFB06F607FB0EFE0BFB40
:1019300007F71EEB064E4CEB164C4FF000061EEB65
:10194000074E4CEB174B18EB0B0840F1000018EB5F
:101950000E0B58EB000840F100008F1A4FF0000109
:101960003CBFC943661B14BFB5EB040C00213CBF50
:10197000C943F61B4FEA17444EEA8E0E27EA044588
:101980004FEA1C4704FB07622CEA074C05FB07F7EC
:101990000CFB05F604FB0CFC16EB074642EB17426A
:1019A00016EB0C4642EB1C421BEB060658EB020200
:1019B000414146EA9E0601D5BDE80189B61952416A
:1019C00041EB0101A3F10103BDE801894FEA144590
:1019D0004FEA114724EA054621EA074C05FB07F4C4
:1019E00006FB07F70CFB06F105FB0CFC11EB0741AE
:1019F00044EB17444FEA124711EB0C4144EB1C44F3
:101A000022EA074C05FB07F206FB07F70CFB06F67C
:101A100005FB0CFC16EB074642EB174216EB0C4697
:101A200042EB1C456A1854F1000148BF7047B619D3
:101A3000524141EB0101A3F10103704795F0000F02
:101A400037D04FEA11424FEA144721EA024624EA0E
:101A5000074C02FB07F106FB07F70CFB06F402FB41
:101A60000CFC14EB074441EB17414FEA154714EB0C
:101A70000C4441EB1C4125EA074C02FB07F506FB31
:101A800007F70CFB06F602FB0CFC16EB074645EBD2
:101A9000174516EB0C4645EB1C42121951F100019B
:101AA00048BF7047B619524141EB0101A3F1010350
:101AB00070474FEA14454FEA114724EA054621EAE8
:101AC000074C05FB07F106FB07F70CFB06F24FF08E
:101AD000000605FB0CFC12EB074241EB174112EB31
:101AE0000C4251EB1C4148BF7047921841EB010179
:101AF000A3F101037047FEE72DE9F05F6E4E3088D9
:101B0000401C80B23080002706F1800828287DD351
:101B1000378000F057FB00F011F902F055F8DFF8BC
:101B20009C914FF033324B4602F066F8DFF890A1FB
:101B3000DFF890B152465B4601F0EEFE04460D46DA
:101B4000B06802F041FA4FF066325F4B02F054F891
:101B500022462B4601F038FE01F004FEB06000F092
:101B6000FBF802F031F84FF033324B4602F044F804
:101B700052465B4601F0D0FE04460D46F06802F086
:101B800023FA4FF06632504B02F036F822462B46CD
:101B900001F01AFE01F0E6FD0446F060B5687561DB
:101BA00034612946B06902F03BFAB0612146F06920
:101BB00002F036FAF0612946204602F0D9FB06F120
:101BC000AC09C9F81800484600F088F806F1280466
:101BD000D8F80800206004F12C052860D9F8080026
:101BE000A06180F00040A861706960603069686041
:101BF000204600F09BF9284600F098F9A06802F012
:101C000083FA02F09DFA0446306200E036E0A868EC
:101C100002F07AFA02F094FA054670624FF4000975
:101C2000DFF8A8A04C4505DB2949204602F0F8F969
:101C3000306208E0544505D32549204602F098FB60
:101C4000306200E037624D4505DB2149284602F04D
:101C5000E7F9706208E0554505D31D49284602F0B2
:101C600087FB706200E07762306A02F04DFA00F0A4
:101C700003FA706A02F048FA00F020FA7088401CFB
:101C800080B27080282814D3778012480068C8F882
:101C90000000D6E9060102F0C3F94FF0FF3102F06F
:101CA00012FCC8F80400BDE8F05F0348803000F083
:101CB0007FBDBDE8F09F0000240000203333D33FF8
:101CC000CDCCCCCCCCCC14406666E63F0000808006
:101CD0000000E0401C000020704700002DE9F041AA
:101CE0000446A669E6613146206A02F099F920624D
:101CF000104DA84203D8104DA84200DC05462562CD
:101D00003146304602F034FB616902F065FA07465D
:101D10002946206902F060FA05463146E06802F083
:101D20005BFA294602F07CF9394602F079F9A060A5
:101D3000BDE8F0810000A0C10000A04170B5054DD4
:101D4000284601F0F2F804B20021284601F0F0F92B
:101D5000204670BD0008004070B5054D284601F0D2
:101D6000E4F804B20021284601F0E2F9204670BDF3
:101D70000004004070B588B00121042000F0C2FDCD
:101D80000121022000F0BEFD0121042000F0C8FD69
:101D90000121082000F0C4FD48208DF81F00C0205C
:101DA000ADF81C0003208DF81E0007A9284800F09C
:101DB00057F807A9274800F053F80024ADF816405B
:101DC000ADF812404FF6FF70ADF81400ADF81040BA
:101DD0008DF81840204D04A9284601F0D3F91F4E74
:101DE00004A9304601F0CEF901A801F0F3F8ADF8EE
:101DF00004400F24ADF80C4001A9284601F0A4F8D6
:101E000001A9304601F0A0F80421ADF80410ADF8A6
:101E10000C4001A9284601F097F801A9304601F0CD
:101E200093F800231A460321284601F065F802239F
:101E300000220321304601F05FF80121304601F015
:101E40004FF80121284601F04BF808B070BD0000A2
:101E500000080140000C0140000800400004004060
:101E60002DE9F0410022CC7804F00F03E40601D5FF
:101E70008C7823430C784FF00F0714F0FF0F4FF0CE
:101E8000010C1CD005680CFA02F40E882640A6420C
:101E900011D1960007FA06F825EA080503FA06F8B4
:101EA00048EA0505CE78282E02D0482E02D002E05E
:101EB000446100E00461521C082AE4D305600A88EA
:101EC000FF2A1ED94568002202F108060CFA06F422
:101ED0000E882640A64210D1960007FA06F825EA99
:101EE000080503FA06F848EA0505CE78282E00D141
:101EF0004461CE78482E00D10461521C082AE3D3F5
:101F00004560BDE8F0810246002092680A4200D098
:101F1000012070474161704701617047002A01D07C
:101F20000161704741617047FEE700002DE9F04113
:101F30000446A569E561284602F046F821F0004113
:101F4000214A224B01F058FE214E0022334601F077
:101F50003BFC02460B460020314601F0DDFC01F05F
:101F600001FC294602F038F9216A02F059F8206292
:101F7000184EB04203D8184EB04200DC0646266226
:101F80002946284602F0F4F9616902F025F907466E
:101F90003146206902F020F906462946E06802F041
:101FA0001BF9314602F03CF8394602F039F8A060DE
:101FB0000A49884201D9084603E00949884200DD00
:101FC0000846A060BDE8F0819A9999999999C93F0E
:101FD0000000F03F000020C1000020410000C8C107
:101FE0000000C84108B50121042000F099FC01213E
:101FF000082000F095FC48208DF803004FF4406065
:10200000ADF8000003208DF8020069460548FFF78F
:1020100027FF4FF4C050ADF8000069460248FFF7B3
:102020001FFF08BD000C01400008014038B5012128
:10203000082000F075FC10208DF80300C002ADF8F8
:10204000000003208DF8020069460848FFF708FFEA
:102050001820ADF80000064C69462046FFF700FF47
:1020600048F218012046FFF757FF38BD000801402D
:10207000000C0140FEE7000070B504460E4D002C38
:102080000CDB20212846FFF747FF10212846FFF7E9
:1020900041FFA0B2BDE8704000F028BC10212846E6
:1020A000FFF73AFF20212846FFF734FF6042BDE8E2
:1020B000704080B200F01ABC0008014070B50446C0
:1020C0000E4D002C0CDB01212846FFF725FF0221D5
:1020D0002846FFF71FFFA0B2BDE8704000F00BBC20
:1020E00002212846FFF718FF01212846FFF712FFBB
:1020F0006042BDE8704080B200F0FDBB000C0140C2
:1021000008B50121082000F00BFC0121042000F09B
:1021100007FC10208DF803000320ADF800008DF8B7
:10212000020069460648FFF79BFE3020ADF800002C
:1021300069460448FFF794FE00F08EFB08BD0000DE
:10214000000C0140000801407047000070B50F23EB
:10215000C27801260178002A1ED0144A126802F4BF
:10216000E062C2F5E062120AC2F10404D34045788D
:10217000A54082781A402A43120101F1E02181F83A
:102180000024007800F01F018E404009800000F11B
:10219000E020C0F8006170BD01F01F0086404809D2
:1021A000800000F1E020C0F8806170BD0CED00E01F
:1021B0000249084302490860704700000000FA0520
:1021C0000CED00E010B500F047FC1F4C28B100F00A
:1021D0004BFC10B10020606010BD00F037FC28B14E
:1021E00000F03AFC10B11948606010BD00F03CFCF2
:1021F00028B100F041FC10B11548606010BD00F03E
:102200001FFC28B100F022FC10B11248606010BD24
:1022100000F032FC28B100F037FC10B10E486060CD
:1022200010BD00F007FC10B900F00AFC10B10B481B
:10223000606010BD00F028FC18B900F02DFC0028EB
:10224000F7D00748606010BD240000206666E6BF36
:102250006666E63F333313C033331340000060C07B
:102260000000404010B50021074C0022002004EB84
:10227000C1131A54401CC0B28028FAD3491CC9B2F9
:102280000829F3D310BD0000040100202DE9F0411E
:10229000CF1823E0044686181CE07F2C18D80029AC
:1022A00016DB3F2914DCCB1701EB5373DD104FEA2B
:1022B000C51C0C4D23F007036544A1EB030815F87A
:1022C00004C0012303FA08F32CEA030C05F804C048
:1022D000641C24B2A642E0DC491C09B28F42D9DC5E
:1022E000BDE8F0810401002038B500214FF47A7276
:1022F0000020401C9042FCD3491C9142F8D301219C
:10230000082000F00DFB14208DF8030003208DF849
:1023100002004FF48070ADF80000094C6946204679
:10232000FFF79EFD6115ADF8001069462046FFF7E6
:1023300097FD012000F002FA012000F007FA38BDF5
:10234000000C014070B505460024802626FA04F0F2
:10235000284000D0012000F0F9F9012000F0EEF94A
:10236000002000F0EBF9641CE4B2082CEED301204D
:1023700000F0E4F9BDE87040002000F0DFB910B5CE
:10238000012000F0E3F9012000F0D8F9002000F06E
:10239000DDF9BDE81040002000F0D0B910B50020F4
:1023A00000F0D4F9012000F0C9F9BDE81040012087
:1023B00000F0CCB910B5FFF797FFAE2000F0CEF9D2
:1023C000D52000F0CBF9802000F0C8F9A82000F05B
:1023D000C5F93F2000F0C2F9D32000F0BFF900207A
:1023E00000F0BCF9402000F0B9F9A12000F0B6F9E6
:1023F000C82000F0B3F9DA2000F0B0F9122000F0A4
:10240000ADF9812000F0AAF9CF2000F0A7F9D9207A
:1024100000F0A4F9F12000F0A1F9DB2000F09EF912
:10242000302000F09BF9A42000F098F9A62000F0DD
:1024300095F98D2000F092F9142000F08FF9AF206B
:1024400000F08CF9FFF70EFFBDE8104000F062B914
:102450000FB470B5C0B005460E46144648AA68468B
:102460004799FDF707FF23466A463146284600F0A4
:102470008DF840B070BC5DF814FB10B50C4640F010
:10248000B00000F06BF9102040EA141000F066F97B
:1024900004F00F00BDE8104000F060B908B5203A24
:1024A000082B0CD0062B09D1094B02EB420203EB9F
:1024B000420200920823062200F00EF808BD054BE8
:1024C00003EB021200921023082200F005F808BD69
:1024D000324B0008424500082DE9FF4F0F46DDF85A
:1024E000349090461D4600242B46424639460098BB
:1024F000FFF7CCFE6D1EE81705EB50700121DFF8E9
:1025000088C001EBE00A3BE0002035E000990D189F
:102510007F2D2FD8F91707EB5171CA1016B221F091
:1025200007017B1A002F03DA761E36B208331BB27E
:10253000311907290DD804FB08FB09EB000E0CEB41
:10254000C1121BF80EB0565D0BFA03FB46EA0B06F0
:102550005655491C07290DD804FB08F609EB000B5A
:102560000CEBC11116F80B604A5DC3F10803DE40A5
:1025700032434A55401CC0B24045C7D3641CE4B244
:10258000A245C1DCBDE8FF8F040100202DE9FF4F0B
:1025900083B080461446994600250026AA46ADE041
:1025A000010609D4012029466D1C615CADB28DF88D
:1025B00004108DF805A055E00621B1EB501F10D195
:1025C0000220691C625D89B28DF80420625C002AD9
:1025D00076D04A1C615C95B28DF805108DF806A086
:1025E00040E00E21B1EB101F18D10320691C625D81
:1025F00089B28DF80420625C002A61D04A1C615CBB
:1026000092B28DF80510A15C00297BD0511C8DB2CF
:10261000A15C8DF806108DF807A023E01E21B1EB18
:10262000D00F23D10420691C625D89B28DF804208B
:10263000625C002A66D04A1C615C92B28DF805107B
:10264000A15C00295ED0511CA25C89B28DF80620E5
:10265000625C002A56D04A1C615C95B28DF8071066
:102660008DF808A0012804D0002716E06D1CADB23B
:1026700044E008EB06009DF8042000B24B460499A4
:10268000FFF70CFF06EB090086B237E0584601A9B8
:10269000FDF702FE68B17F1CBFB207EB870000EBBD
:1026A00047111A480844834619A1FDF7F5FD002893
:1026B000ECD1B9F1080F04D0B9F1060F1ED113E027
:1026C00020E007EB870000EB471110481023084477
:1026D000401D009008EB060000B21A460499FFF76F
:1026E000FBFE1036B6B209E008EB060000B2062386
:1026F0003F220499FFF7D2FEB61DB6B2605D0028F6
:102700007FF44EAF07B0BDE8F08F00006C4D0008BD
:102710000000000070B50024074D00212046FFF79F
:10272000ACFE05EBC410802100F029F8641CE4B273
:10273000082CF2D370BD00000401002002464FF4C3
:1027400080710148FFF7EABB000C014002464FF4DC
:1027500000710148FFF7E2BB000C014010B50446D0
:10276000FFF70DFE7820FFF7EDFD0020FFF7EAFDF3
:102770002046FFF7E7FDBDE81040FFF70FBE70B53C
:1027800005460E46FFF7FBFD7820FFF7DBFD4020F6
:10279000FFF7D8FD002404E0285DFFF7D3FD641C9B
:1027A000E4B2B442F8D3BDE87040FFF7F7BD0000D3
:1027B0002DE9F0410446A769E761D4E9000101F081
:1027C000D7FD0546A061284601F0FEFB21F000413F
:1027D0001C4A1D4B01F010FA1C4E0022334600F03B
:1027E000F3FF02460B460020314601F095F800F059
:1027F000B9FF294601F0F0FC216A01F011FC2062CA
:10280000134EB04203D8134EB04200DC0646266297
:102810003946284601F0ACFD616901F0DDFC074650
:102820003146206901F0D8FC06462946E06801F0EF
:10283000D3FC314601F0F4FB394601F0F1FBA06016
:10284000BDE8F0819A9999999999C93F0000F03FA4
:10285000000020C10000204130B589B001210846A8
:1028600000F050F80121042000F05AF818208DF8EB
:1028700023000320ADF820008DF8220008A91A4893
:10288000FFF7EEFA4FF08045284600F0B5FB002434
:10289000ADF81A40ADF816406321ADF818102320AA
:1028A000ADF814008DF81C4005A9284600F06AFC1C
:1028B00001A800F02FFC6020ADF80400ADF80C403A
:1028C0000120ADF80600ADF80A4001A9284600F045
:1028D00099FB01A9284600F0D9FB0121284600F008
:1028E000FFFA09B030BD00000008014001464FF07A
:1028F000804000F019BC01464FF0804000F016BC4B
:1029000070470000054A002903D0D1690143D16115
:102910007047D1698143D1617047000000100240C7
:10292000054A002903D0916901439161704791697B
:1029300081439161704700000010024010B5264AA3
:10294000516801F00C01254B002927D0042927D01C
:10295000082927D00360516801F0F0010909204BD4
:102960005C5C0168E1404160546804F4E064240A5E
:102970001C5D21FA04F48460546804F46054E40A91
:102980001B5DD940C160526802F44042920B144B67
:102990001B1F9A5CB1FBF2F1016110BD0360DAE725
:1029A0000360D8E7516801F47011536803F4803371
:1029B000022404EB914133B153689B0307D5094BC3
:1029C00059430160C7E7074B59430160C3E7034B15
:1029D00059430160BFE700000010024000127A0076
:1029E0000400002000093D0008B501210420FFF784
:1029F00097FF01210820FFF793FF41F60C10ADF877
:102A0000000048208DF8030003208DF8020069467D
:102A10000548FFF725FA4FF4E040ADF8000069469D
:102A20000248FFF71DFA08BD00080140000C0140F4
:102A30007047000001210148FFF765BA000C014012
:102A400010210148FFF75FBA000C01402021014826
:102A5000FFF759BA000C01404FF480710148FFF7AD
:102A600052BA0000000C01404FF400710148FFF71A
:102A70004ABA0000000C01404FF480610148FFF7A2
:102A800042BA0000000C01404FF400610148FFF71A
:102A90003ABA0000000C01404FF400610148FFF712
:102AA00032BA00000008014030B587B00121880328
:102AB000FFF736FF01210420FFF732FF18208DF8C1
:102AC0001B004FF40070ADF8180003248DF81A4075
:102AD000204D06A92846FFF7C3F948218DF81B10A1
:102AE0002915ADF818108DF81A4006A92846FFF7E9
:102AF000B7F94FF4165002900020ADF814000C21E5
:102B0000ADF81210ADF81000ADF80E00ADF80C00E5
:102B1000114C02A9204600F08BFC012240F2255105
:102B2000204600F06AFC4FF4A060FFF741FB25212E
:102B30008DF8041001218DF807108DF805108DF81F
:102B4000061001A8FFF702FB0121204600F022FC3D
:102B500007B030BD00080140003801400FB400B597
:102B600099B01BAA68461A99FDF784FB684600F0E5
:102B700013F819B05DF814FB10B5064C0146204659
:102B800000F0B8FC8021204600F010FC0028F9D0AD
:102B900010BD00000038014070B50546002403E078
:102BA000FFF7EAFF641CE4B2285D0028F8D170BD8D
:102BB000AFF300800CB50022019200922748016813
:102BC00041F4803101604FF4A063016801F40031E9
:102BD00000910199491C0191009911B901999942FB
:102BE000F3D10168890302D50121009100E0009230
:102BF0000099012930D11A490A6842F010020A608E
:102C00000A6822F003020A600A6842F002020A60BF
:102C10004168416041684160416841F480614160C0
:102C2000416821F47C114160416841F4E811416040
:102C3000016841F08071016001688901FCD541683B
:102C400021F003014160416841F0020141604168A7
:102C5000C1F381010229FAD10CBD0000001002402D
:102C6000002002407047000010B50F48016841F095
:102C70000101016041680D4A1140416001680C4A40
:102C800011400160016821F480210160416821F454
:102C9000FE0141604FF41F018160FFF789FF054984
:102CA0004FF00060086010BD001002400000FFF807
:102CB000FFFFF6FE08ED00E070B5048C24F001047F
:102CC0000484058B048C25F0F3054FF6FF7606EAA5
:102CD000031313432B43104A90420ED00F4A9042E5
:102CE0000BD0B0F1804F08D00D4A904205D00D4A6C
:102CF000904202D00C4A904205D124F002020A43CD
:102D000042F0010104E024F00A020A4342F001010A
:102D10000383018470BD0000002C01400034014099
:102D20000004004000080040000C0040F0B5048C96
:102D300024F010040484068B048C4FF6FF7505EA1A
:102D4000011726F4734605EA0333334305EA0222EA
:102D50001A43104B98420ED00F4B98420BD0B0F153
:102D6000804F08D00D4B984205D00D4B984202D0B1
:102D70000C4B984205D124F02001394341F0100159
:102D800004E024F0A0030B4343F01001028301840C
:102D9000F0BD0000002C0140003401400004004060
:102DA00000080040000C0040F0B5048C24F480744E
:102DB0000484858B048C4FF6FF7707EA012625F003
:102DC000F30507EA031313432B43104A90420ED036
:102DD0000F4A90420BD0B0F1804F08D00D4A90427C
:102DE00005D00D4A904202D00C4A904205D124F4FD
:102DF0000071314341F4807104E024F420620A43FD
:102E000042F4807183830184F0BD0000002C0140F6
:102E1000003401400004004000080040000C004065
:102E2000F0B5048C24F480540484868B048C4FF613
:102E3000FF7505EA013726F4734605EA022232439C
:102E400005EA03331343104A90420ED00F4A9042D2
:102E50000BD0B0F1804F08D00D4A904205D00D4AFA
:102E6000904202D00C4A904205D124F400513943DB
:102E700041F4805104E024F402420A4342F48051B8
:102E800083830184F0BD0000002C01400034014028
:102E90000004004000080040000C004010B50B4C3E
:102EA0000121204600F043F801280ED1084841686E
:102EB000491C41600078012801D1FEF71DFE204623
:102EC000BDE81040012100F008B810BD002C014001
:102ED000FC000020C94301827047C943018270474A
:102EE000002904D0018841F0010101807047018868
:102EF00021F001010180704770B50589048B068CB3
:102F000025F007050D434FF6FC410C4040F201113E
:102F10000C4326F022064FF6FF7101EA031111431C
:102F2000314305810483018470BD808C7047024663
:102F30000020138A0B4092890A40002B02D0002AFD
:102F400000D001207047000070B505460C461D48B2
:102F5000854209D01C48854206D0B5F1804F03D088
:102F60001A48854200D01A4820886188A28823899F
:102F700060B1042813D008281AD02846FFF750FF64
:102F8000E1882846BDE8704000F0F0B82846FFF719
:102F900093FEE1882846BDE8704000F0CBB8284693
:102FA000FFF7C4FEE1882846BDE8704000F0CAB8CB
:102FB0002846FFF7F9FEE1882846BDE8704000F09A
:102FC000CDB80000002C0140003401400004004056
:102FD0000008004000210180418001228280C180E0
:102FE00001817047002A03D082890A438281704799
:102FF00082898A4382817047018921F0070101811A
:103000007047000030B5028C22F001020284028C6D
:103010008388048B24F0700424F003050C882C436F
:1030200022F002020D8915434A882A43124DA84214
:103030000BD0124DA84208D0114DA84205D0114D19
:10304000A84202D0104DA8420FD122F008054A89AB
:103050002A4322F004058A882A4323F4807323F448
:1030600000738D891D43CB892B4383800483C988DA
:103070008186028430BD0000002C014000340140F4
:1030800000400140004401400048014070B5028CFE
:1030900022F010020284028C8388048B24F4E04422
:1030A00024F440760D884FF6FF7404EA0525354375
:1030B00022F020020E8904EA061616434A8804EA22
:1030C00002123243114EB04202D0114EB04217D11B
:1030D00022F080024E8904EA0616164326F04006C6
:1030E0008A8804EA0212324323F4806323F40063E3
:1030F0008E8904EA86061E43CB8904EA83033343A0
:1031000083800583C9880187028470BD002C01403B
:10311000003401400021018041808180C180018113
:1031200041818181C18170478186704701877047E5
:1031300081847047028B22F00C020283028B0A43C7
:1031400002837047028B22F440620283028B4FF6A7
:10315000FF7303EA01210A4302837047828B22F046
:103160000C028283828B0A4382837047828B22F413
:1031700040628283828B4FF6FF7303EA01210A4388
:103180008283704730B502881B4C1C4DA0420DD085
:10319000A8420BD0B0F1804F08D0194B984205D00F
:1031A000184B984202D0184B984203D122F070037A
:1031B0004A881A43154B984206D0154B984203D0C3
:1031C00022F44073CA881A4302808A8882850A885A
:1031D0000285A0420AD0A84208D00E4A904205D0EB
:1031E0000D4A904202D00D4A904201D1097A0186DF
:1031F0000121818230BD0000002C014000340140DB
:103200000004004000080040000C00400010004096
:1032100000140040004001400044014000480140CB
:103220001FB50121C802FFF77BFB1B4C2046FFF7AF
:10323000E3FE0021ADF80A10ADF8061040F2E732C7
:10324000ADF808204720ADF804008DF80C1001A956
:103250002046FFF797FF01212046FFF73BFE0122A2
:1032600011462046FFF7BEFE4FF4A060FEF7A0FF18
:1032700019208DF8000001218DF8031002208DF82F
:1032800001008DF802106846FEF760FF012120461C
:10329000FFF726FE1FBD0000002C01402DE9F0477E
:1032A000224C244E00252078DFF88490224F71684C
:1032B0004FF0010800280BD001281AD0022826D090
:1032C000032814D1BDE8F0470021084600F014BAE5
:1032D0001A4860601A4800F04BFF08D23D70356014
:1032E00075603562D9F80000A06084F80080BDE800
:1032F000F0871421484200F0FFF9D9F80000A168D6
:10330000401AB0F5FA7FF2D902202070EFE787F873
:1033100000800C4860600C4800F02AFFE7D23D7046
:1033200035607560356203202070E0E718000020EA
:1033300000010020A4000020FC000020FAAD784429
:10334000FA6D7744735D3644731D354470B50B4D8B
:1033500040F225542146284600F02FF801280CD1D0
:10336000284600F0C3F8064A10700120507021462C
:103370002846BDE8704000F005B870BD0038014037
:103380001400002040F66A120A0A01219140C94344
:1033900001807047002904D0818941F40051818166
:1033A0007047818921F400518181704702460020D5
:1033B00012880A4200D00120704770B5002440F600
:1033C0006A12C1F3421301F01F05012606FA05F245
:1033D000012B0CD0022B0DD0838A1340090A8E409A
:1033E000008830400BB100B10124204670BD8389B4
:1033F0001340F3E7038A1340F0E710B540F66A1371
:10340000C1F3421301F01F040121A140012B07D099
:10341000022B07D014303AB102680A43026010BD93
:103420000C30F8E71030F6E702688A43026010BDFE
:1034300030B585B004460D46208A4CF6FF71084031
:10344000E98801432182A0894EF6F3110840A9883A
:103450002A8911436A8902431143A181A08A4FF648
:10346000FF410840A9890143A1826846FFF766FA37
:103470001D48844201D1039800E00298A189090403
:1034800008D500EBC00101EB001029684900B0FB32
:10349000F1F007E000EBC00101EB001029688900A2
:1034A000B0FBF1F06422B0FBF2F109010B096FF0FF
:1034B00018056B4300EB8300A3891D044FF0320312
:1034C00007D503EBC000B0FBF2F000F007000843A3
:1034D00006E003EB0010B0FBF2F000F00F00084331
:1034E000208105B030BD0000003801408088C0F365
:1034F00008007047C1F3080181807047FEE749006A
:1035000050EAC12018BF04204A0D18BF40F0010046
:1035100040F2FF72B2EB515F08BF40F00200012899
:1035200008BF0520704730380A2801D201207047B3
:103530000020704798B0FEF73DFFFEF753FDFEF701
:10354000DFFDFEF717FCFFF74FFAFEF76FFDFFF701
:10355000ABFAFFF765FEFFF7A1FE4A48806800F06E
:1035600033FD044647480D46406800F02DFD0646F1
:1035700044480F46006800F027FD824642488B46CB
:10358000806800F021FD80463F488946406800F091
:103590001BFDCDE916013C48006800F015FDCDE9A2
:1035A00014013A48806800F00FFDCDE91201374858
:1035B000406800F009FDCDE910013448006800F0D2
:1035C00003FD08AAA2E8000FCDE90C67DDE9162388
:1035D000CDE90E45CDE90623DDE91423CDE9042329
:1035E000DDE91223CDE90223DDE91023CDE9002333
:1035F00002460B4626A0FFF7B1FA2D48406800901E
:103600002CA3082210210020FEF722FF2B482CA318
:1036100008220068009020210020FEF719FF1948B9
:10362000406900F0D1FCCDE9000127A30822302138
:103630000020FEF70DFF1348006800F0C5FCCDE93F
:10364000000124A3082210214020FEF701FF0D48AD
:10365000406800F0B9FCCDE9000121A30822202137
:103660004020FEF7F5FE0748806800F0ADFCCDE98C
:1036700000011EA3082230214020FEF7E9FEFFF7DB
:1036800049F868E7A4000020780000204C000020E2
:1036900025662C25662C25662C25662C25662C2572
:1036A000662C25662C25662C25660D0A0000000078
:1036B000FC00002073793A256400000020000020FF
:1036C0006E743A25640000004B643A25342E32664D
:1036D000000000005461723A252B30342E30660011
:1036E0004163743A252B30342E3066004F75743A9E
:1036F000252B30342E30660010B50C46FEF7BCFC8E
:103700002046BDE81040FEF7D9BC000010B50029E6
:103710000AD00878002807D005487844FCF7BCFD9B
:10372000002801D0002010BD0248784410BD0000E0
:10373000721800006A18000010B500290AD0087835
:10374000002807D005487844FCF7A6FD002801D0E2
:10375000002010BD0248784410BD0000621800002F
:103760005A18000021F00042A2F16052B2F5801F09
:1037700001F0004328BFD2F17F6C0BD95FEA001C37
:1037800043EAC20242EB507018BF704728BF20F0D6
:1037900001007047B2F5801FBCBF184670474FEA62
:1037A000410C1CF5001F02D2084600F0DCBD70B5CC
:1037B00000F0CCFA00000089FFF7F6BF4FF00040A0
:1037C000A0F580007047000010B591EA030F48BFD4
:1037D00083F0004300F11683841A71EB030C05D2C9
:1037E000121943EB0C03001B61EB0C01DFF824E121
:1037F0004FEA1154A4EB135C1EEA430F18BF9EEA74
:10380000445F73D023EA0E03DCF1200E21EA045159
:1038100043F4801332D322FA0CFE10EB0E0023FA8D
:103820000CFE41EB0E01CCF1200E03FA0EFE10EB64
:103830000E0051F10001B1F5801FCCF1200E32D203
:1038400001EB045112FA0EF2BDE8104058BF704768
:10385000401C38BF5FEA420218BF7047002814BFFF
:1038600020F0010041F100014FEA410313F5001F70
:1038700038BF7047A1F1C04100F0B6BA012A43EB4E
:103880000302ACF1200CDCF11F0E32BF4FF0000E32
:1038900023FA0CF310EB030041EB0451B4EB115F7E
:1038A000D0D0A1EB045101F5801149085FEA300046
:1038B00001EB04510ED350F1000038BF12FA0EFE96
:1038C00008D1BDE81040C9E7401C38BF5FEA42029A
:1038D000CAD1C3E7BDE810404FEA410313F5001F0A
:1038E00038BF7047A1F1C04100F07EBA9EEA445F44
:1038F00008D011EA5E0FBDE8104004BF01F000419E
:1039000000207047BDE8104070B500F01FFA00BFFE
:1039100064FBBE3E0000E0FF2DE9C04130B4DFF89B
:10392000A0C23CEA111418BF3CEA131400F0EC806A
:1039300081EA03051CEA111444EAD57418BF1CEA95
:10394000131500F0C780A4EB05044FF0004545EACD
:10395000C12145EAC32341EA505143EA525304F1DD
:103960007F74994204F500344FEAC0204FEAC22226
:1039700008BF904200F09C804FEA13650FF240169A
:10398000765D4FEA134506FB05F7C7F1807706FB26
:1039900007F74FEAD737A7FB03687642C8F58038A8
:1039A000A7FB06CE38BFA8F1010807FB08E64FF0D9
:1039B000000EA6FB028CE6FB03CEDCF1000CCEF180
:1039C000004E38BFAEF1010EA6FB0C584FF00007B9
:1039D0004FF00005E6FB0E87A1FB08C6A0FB07CE53
:1039E00016EB0E0645F10005E1FB076515F1E04E0B
:1039F0007EBFA4F580345FEA46066D4116F180076C
:103A000045F100054FEA17274FEA066647EA0567C2
:103A1000A6F1DE46B6F1805F4FEA15251FD938467C
:103A200024F0010C05EBC471BCF1FE6F01EB0C112D
:103A300002D8F0BCBDE8008124425CBF01F5801EC5
:103A40009EEAC47F02D4F0BCBDE80081244238D491
:103A5000F0BCA1F1C041BDE8004100F0C5B94FEA9A
:103A6000D22242EA43524FEAD323A7FB02864FEA0F
:103A7000D02040EA415007FB03661EEA0E0F4FEAD2
:103A8000D12105FB026658BFA6EB0056B6EB0056E7
:103A90004FEA520E4EEAC37E18EB0E0E56EB530E53
:103AA000BDD518EB02085E417F1C55F10005B6E755
:103AB0004FF480154FF000074FF000064FF000085C
:103AC000ADE7F0BC4FF0000001F1C04101F0004152
:103AD000BDE8008111EA0C1F0CEA131500D00CE0C0
:103AE00013EA0C1F00F025804FF00000F0BC81EAC3
:103AF000030101F00041BDE80081F0BCBDE80041D8
:103B000081EA030100F070B9F0BCBDE8004170B576
:103B100000F01CF9097EFC3E00F007B881EA0301C1
:103B20004FF0000001F00041704781EA030100F00E
:103B30005BB9F0BCBDE800414FF00000214970477F
:103B4000FFFDFBF9F7F5F4F2F0EEEDEBE9E8E6E462
:103B5000E3E1E0DEDDDBDAD8D7D5D4D3D1D0CFCDE9
:103B6000CCCBCAC8C7C6C5C4C2C1C0BFBEBDBCBB22
:103B7000BAB9B8B7B6B5B4B3B2B1B0AFAEADACAB1D
:103B8000AAA9A8A8A7A6A5A4A3A3A2A1A09F9F9EF7
:103B90009D9C9C9B9A9999989797969595949393A9
:103BA000929191908F8F8E8E8D8C8C8B8B8A898940
:103BB00088888787868585848483838282818180C3
:103BC0000000FF070000F87F10F0004248BF4042AD
:103BD000B0FA80F310FA03F10AD0C3F11D0303F524
:103BE00080634FEA415002EB035202EBD121704750
:103BF0004FF0000070470000DFF848C170B51CEAC4
:103C0000111E1EBF1CEA13159EEA0C0F95EA0C0F3D
:103C100000F06F8081EA030423EA4C134EEAD47E5D
:103C200021EA4C1141F4801143F48013AE44A1FB0E
:103C3000024CA0FB0365AEF17F7E361955EB0C05F7
:103C4000A1FB034C4CF10003A0FB021C16EB0C067D
:103C5000654153F10003094218BF46F0010613F411
:103C6000007F0BD14FEA03314FEA0530340341EABC
:103C7000155140EA16506FF003020AE04FEAC321E3
:103C80004FEAC520F40241EA555140EA56506FF020
:103C9000020202EB2E4201EB025585EACE710AD0F8
:103CA0005FEA440C18BF24F0004450F1000041F1D9
:103CB000000120EAD47040F2FE7C624500D270BD63
:103CC000A84214BF4FF080444FF04044002E08BF7C
:103CD0000024BEF1806FA8BFA1F1C041BDE87040D3
:103CE00080F282804FF0000001F1C04101F00041FC
:103CF00070479EEA0C0F0CEA131518BF95EA0C0FDB
:103D000006D04FF0000081EA030E0EF0004170BDB6
:103D100000F01CF88900013E00F007B800F009B877
:103D20004FEA430C5FEA5C5C08D081EA030100F0D3
:103D30005BB84FEA410C5FEA5C5CF6D14FF00000E3
:103D4000014970470000FF070000F87F0EF1020EE6
:103D50002EF0030E5EF8046B364205D4012A43EBC5
:103D6000030515F5001F12D8012841EB010C1CF5C5
:103D7000001F0CD80ED14FEAD17C15F5001F0CEBBB
:103D80004C0C0CF1020C08BF4CEBD37C04E04FF060
:103D9000080C01E04FEAD37C0CEB4C0526FA05F643
:103DA00006F00706B6F1040C06D20EEB860CBDE851
:103DB00070404CF0010C6047DFE80CF0090B020288
:103DC0004FF000414FF00000A1F5002170BD1946F1
:103DD0001046012851EB010418BFD4F5001484BF2C
:103DE000002001F0004170BD0808A0F500114FEA65
:103DF0003101704710B591EA030F48BF83F00043CB
:103E00003FF5EAAC841A71EB030C07D212198CF05F
:103E1000004C43EB0C03001B61EB0C01DFF8A4E149
:103E20004FEA1154A4EB135C1EEA430F18BF9EEA3D
:103E3000445F00F0B08023EA6E03524221EA04514D
:103E4000C3EB6E0338BF5B1EDCF1200E25D322FAD4
:103E50000CFE10EB0E0043FA0CFE41EB0E01CCF110
:103E6000200E03FA0EFE10EB0E0051F10001CCF112
:103E7000200E29D412FA0EF201EB0451BDE81040D5
:103E800058BF7047401C1CBFB2F1004F704700285C
:103E90000CBF491C20F00100704712EB020E43EBEF
:103EA000030218BF4FF0010E4EEA4202ACF1200CA3
:103EB000DCF11E0E54D943FA0CFE10EB0E0051F14A
:103EC000FF31CCF11E0ED5D50EF1010E12FA0EFE09
:103ED000404141EB010101EB445C5FEA5C5C10D9BD
:103EE00010EBDE7001EB045138BFBEF1004FBDE8AE
:103EF000104018BF704700280CBF491C20F001007B
:103F0000704730D24FEAD42C11F5001124F400642C
:103F10001BD0B1FA81F20B3AA41AA41ED2F12003ED
:103F2000914030FA03F31943904001EBCC71002C1F
:103F300001EB0451BDE81040A8BF704701F1C0413A
:103F40004FF0000001F000417047B0FA80F310FA22
:103F500003F100D110BDE41A173C4805C90AE4E793
:103F600001EB045110BD491001EB0451BDE81040B4
:103F70004FEA300002E04FF0000170474A0008BFEE
:103F80000042F8D0B2F5001F28BF704701F0004191
:103F90004FF0000070479EEA445F07D011EA5E0FC1
:103FA000BDE8104004BF002100207047BDE810406C
:103FB00070B5FFF7CBFE00BF40DFF63E83F0004157
:103FC000104670470000E0FF43004FEAD30C4FEA71
:103FD0003C0C43401FBF40070CF1605113F0FE4FF3
:103FE00070471CF0006F03D100200CF000417047B7
:103FF0000CF0004343EA507010B540EACC0000F0EA
:104000006CF900BF000000924FEA0001FFF7ECBE20
:104010004FF000414FF00000A1F500217047000073
:1040200090EA010F48BF81F0004100F1A881421AD7
:104030003CBF801A89184FEAD0524FF07F4C1CEADF
:10404000410FA2EBD15318BF9CEA026F00F03B80F6
:104050004FF0004C4CEA00204CEA012121FA03FC0D
:1040600010EB0C0C1ED202F1FF325FEA1C2040EB79
:10407000C25038BF70471CF07F0F4FEA400C18BF8A
:10408000BCF17F4F38BF7047C3F12003994008BF90
:1040900020F00100BCF17F4F38BF7047A0F1C04055
:1040A00000F061B94FEA3C00000A40EBC25028BF63
:1040B0001CF0FF0F4FEA400CE6D018BFBCF17F4F59
:1040C00038BF7047EAE79CEA026F05D010EA5C0F40
:1040D00008BF00F00040704710B500F0FEF800BFC8
:1040E00064FBBE3E014800F0BCB900BF0000C07FC9
:1040F000401058BFC0F14040491058BFC1F1404185
:104100008142EFF30080704741000B0ED3F19E0215
:1041100008D950F400034FEA032323FA02F048BF02
:104120004042704710B500F0D8F800BF4992248093
:10413000002070476FF0004282EA200070470000C4
:1041400010F0004148BF4042B0FA80F310FA03F289
:10415000C3F19D030BD051EAC35101EB122053066A
:1041600038BF704700F1010008BF20F00100704720
:1041700050EA010C00F113801CF5000F58BFBCF58C
:10418000000F01D48842704707D710F5000F58BFC1
:1041900011F5000F15D488427047894270471CF50D
:1041A000000F04D5BCF5000FF7D5814270474FF0E2
:1041B000807C1CEB400F38BF1CEB410F01D28142C9
:1041C000704710B500F089F8922449004FF0005074
:1041D0004FF08051FFF78CBF4FF47F0C1CEAD012D8
:1041E0001EBF1CEAD11392EA0C0F93EA0C0F00F0E9
:1041F000478090EA010F48BF42F480724FF0004CB4
:104200004CEA00204CEA012102EB0302A0FB01135F
:10421000A2F50002002918BF43F001035B0028BF8C
:104220004FEA330342EB22425FEA132C4CEBC250BD
:104230002EBFBCEB436FB2F57C0F70474FEA036CA7
:10424000BCF1004F08BF20F00100B2F57C0F38BF71
:1042500070470BD582F0FF0212F5803FC8BF704750
:1042600000F1C040D8BF00F00040704700F5000CDE
:104270005FEA4C0C48BF7047B0F1C04000F073B823
:1042800090EA010F0CEAD11348BF42F480726245F4
:1042900038BF634504D280EA010000F00040704757
:1042A00010B500F01AF800BF8900013E00F007B811
:1042B00000F009B85FEA410C5FEA1C6C08D080EAA4
:1042C000010000F050B85FEA400C5FEA1C6CF6D1C8
:1042D0004FF00040A0F5800070470EF1020E2EF066
:1042E000030E5EF8044B244204D44FEA4102B2F1BB
:1042F0007F4F11D84FEA4003B3F17F4F0CD80ED156
:104300004FEAD07CB2F17F4F0CEB4C0C0CF1020C5D
:1043100008BF4CEBD17C04E04FF0080C01E04FEA01
:10432000D17C0CEB4C0324FA03F404F00704B4F141
:10433000040C06D20EEB840CBDE810404CF0010CCE
:104340006047DFE80CF0070802024FF00040A0F5DC
:10435000800010BD0846420018BFD2F1807288BFAD
:1043600000F0004010BDFF2141EAD050C005704769
:1043700090EA010F48BF81F000413FF558AE421A64
:1043800004D882F00042A0EB020011444FEAD05260
:104390004FF07F4C1CEA410FA2EBD15318BF9CEAAF
:1043A000026F4AD04FF0004C4CEA00204CEA012149
:1043B00021FA03FCB0EB0C0C0FD412F0FE0F36D038
:1043C0005FEA4C001DD5001240EBC25038BF704769
:1043D0001CF03F0F18BF70470BE0A2F101025FEA2B
:1043E0001C2040EBC25038BF70471CF07F0F18BF35
:1043F0007047C3F12003994014BF401E20F0010014
:10440000704780084FEA122308BF7047B0FA80FC5B
:10441000A2EB0C02CCF1280C60FA0CF093EA122FFC
:1044200004BF00EBC25070474FEAC3707047130AD5
:104430005FEADC1008BF7047F6E79CEA026F04D021
:1044400010EA5C0F08BF0020704710B5FFF745FF6A
:1044500040DFF63E81F000407047FCF78ABBFCF776
:10446000BFBC0CF00F03092B08BF082000F05180DF
:104470000A2B0BD0082B18BF704708BF1CF0400F49
:104480000AD04FF000004FF0000170471CF0400FC1
:1044900018BF4FF0004070471CF0100F08D020F0FC
:1044A000704300F07F4242EAD3014FEA4370704705
:1044B00000F0604021F07F4242EA000201F07F40BC
:1044C00040EA727070474FF0FF0212EAD0521CBFF0
:1044D00092F0FF038B42C2BFD14200EBC150704744
:1044E000002A0AD0002B0BD0002900F00040A4BF06
:1044F00040F0FE4040F40000704700F0004070477C
:1045000043024FF00B0C18BF4CF0806C7FF4EAAD07
:1045100070471CF4801F11D01CF4E02F03D06FEA09
:10452000CC31490070474FF04050EFF3008222F049
:10453000704242EA000282F3008870474FF00000A8
:1045400070470000000000000000000000000000B4
:104550000000000000F80000000000000033300000
:10456000000000160E00160E000000000000000003
:10457000000040C07840C0784000043F04043F047D
:104580000400007088FC08300000001820FF211E85
:104590000000F008F000E018000000211C031E21BC
:1045A0001E0000F00888700000001E212324192737
:1045B0002110000000160E000000000000000000A6
:1045C0000000000000E018040200000000071820AE
:1045D000400000020418E00000000040201807001E
:1045E0000000404080F0804040000202010F0102C4
:1045F0000200000000F0000000000101011F0101A5
:104600000100000000000000000000B07000000089
:104610000000000000000000000000010101010195
:104620000101000000000000000000303000000028
:1046300000000000000080601804006018060100FF
:10464000000000E010080810E000000F102020100B
:104650000F00001010F8000000000020203F202074
:10466000000000700808088870000030282422210B
:1046700030000030088888483000001820202011C1
:104680000E000000C02010F8000000070424243FA2
:10469000240000F80888880808000019212020114B
:1046A0000E0000E0108888180000000F1120201173
:1046B0000E0000380808C83808000000003F00005D
:1046C00000000070880808887000001C2221212248
:1046D0001C0000E010080810E00000003122221148
:1046E0000F00000000C0C0000000000000303000DB
:1046F0000000000000C0C0000000000080B070009A
:104700000000000080402010080000010204081092
:1047100020004040404040404000040404040404A1
:10472000040000081020408000000020100804024F
:104730000100007048080808F00000000030360151
:104740000000C030C828E810E00007182724231410
:104750000B000000C038E0000000203C23020227CC
:10476000382008F8888888700000203F2020201119
:104770000E00C03008080808380007182020201054
:10478000080008F808080810E000203F202020104A
:104790000F0008F88888E8081000203F2020232018
:1047A000180008F88888E8081000203F200003005F
:1047B0000000C03008080838000007182020221E1A
:1047C000020008F808000008F808203F2101012134
:1047D0003F20000808F8080800000020203F2020A3
:1047E000000000000808F8080800C08080807F00F2
:1047F000000008F888C028180800203F200126384B
:10480000200008F8080000000000203F20202020A1
:10481000300008F8F800F8F80800203F003F003F9B
:10482000200008F830C00008F808203F20000718D2
:104830003F00E01008080810E0000F1020202010B2
:104840000F0008F808080808F000203F21010101C6
:104850000000E01008080810E0000F182424385069
:104860004F0008F8888888887000203F2000030CDB
:1048700030200070880808083800003820212122E4
:104880001C00180808F8080818000000203F200045
:10489000000008F808000008F808001F2020202069
:1048A0001F000878880000C83808000007380E018B
:1048B0000000F80800F80008F800033C0700073C77
:1048C0000300081868808068180820302C03032C27
:1048D00030200838C800C83808000000203F2000F9
:1048E000000010080808C8380800203826212020B9
:1048F0001800000000FE020202000000007F40409D
:104900004000000C30C0000000000000000106382C
:10491000C00000020202FE000000004040407F0094
:104920000000002010080408102000000000000013
:104930000000000000000000000080808080808077
:104940008080000204080000000000000000000059
:1049500000000000808080800000001924222222B4
:104960003F2008F8008080000000003F1120201147
:104970000E000000008080800000000E112020202A
:104980001100000000808088F800000E1120201027
:104990003F200000808080800000001F2222222211
:1049A0001300008080F0888888180020203F202095
:1049B00000000000808080808000006B94949493BD
:1049C000600008F8008080800000203F2100002067
:1049D0003F2000809898000000000020203F202009
:1049E0000000000000809898000000C08080807F58
:1049F000000008F8000080808000203F24022D3055
:104A00002000000808F8000000000020203F2020BF
:104A100000008080808080808000203F20003F2038
:104A2000003F008080008080000000203F210020A7
:104A30003F200000808080800000001F2020202078
:104A40001F00808000808000000080FFA1202011D6
:104A50000E000000008080808000000E112020A049
:104A6000FF80808080008080800020203F21200007
:104A700001000000808080808000003324242424F2
:104A80001900008080E0808000000000001F2020CE
:104A900000008080000000808000001F2020201087
:104AA0003F20808080000080808000010E3008065A
:104AB000010080800080008080800F300C030C306B
:104AC0000F0000808000808080000020312E0E3199
:104AD0002000808080000080808080818E70180699
:104AE000010000808080808080000021302C222105
:104AF000300000000000807C020200000000003F47
:104B0000404000000000FF00000000000000FF0027
:104B100000000002027C800000000040403F0000D6
:104B20000000008040408000008000000000000184
:104B300001000000000000000000002F0000000045
:104B40000700070000147F147F1400242A7F2A1214
:104B50000023130864620036495522500000000704
:104B6000000000001C224100000041221C00001433
:104B7000083E08140008083E0808000000A0600075
:104B80000008080808080000606000000020100805
:104B90000402003E5149453E0000427F4000004271
:104BA00061514946002141454B31001814127F10D4
:104BB000002745454539003C4A4949300001710903
:104BC000050300364949493600064949291E0000B7
:104BD000363600000000563600000008142241005E
:104BE000001414141414000041221408000201518E
:104BF0000906003E4955592E007C1211127C007F97
:104C000049494936003E41414122007F4141221C31
:104C1000007F49494941007F09090901003E414996
:104C2000497A007F0808087F0000417F410000208A
:104C300040413F01007F08142241007F4040404036
:104C4000007F020C027F007F0408107F003E41417C
:104C5000413E007F09090906003E4151215E007F67
:104C6000091929460046494949310001017F0101DE
:104C7000003F4040403F001F2040201F003F403881
:104C8000403F0063140814630007087008070061C0
:104C90005149454300007F414100000204081020B3
:104CA000000041417F000004020102040040404036
:104CB0004040000001020400002054545478007F5A
:104CC0004844443800384444442000384444487F31
:104CD00000385454541800087E0901020018A4A496
:104CE000A47C007F080404780000447D400000405C
:104CF00080847D00007F102844000000417F400038
:104D0000007C04180478007C0804047800384444CB
:104D1000443800FC242424180018242418FC007CA7
:104D20000804040800485454542000043F44402020
:104D3000003C4040207C001C2040201C003C4030B7
:104D4000403C004428102844001CA0A0A07C004443
:104D500064544C440000087F41000000007F0000C4
:104D60000000417F0800000804081008EFBC8C0018
:104D70000000000000000000000000000000000033
:104D80000000005838000000000000000000000093
:104D900000E380820000000000000000000000002E
:104DA000000000000000000018242418000000008B
:104DB000000000000000E4BDA00000008060F807D3
:104DC0004020180F08C80808281800010000FF003C
:104DD000100C0340807F0001061800E5A5BD00000F
:104DE0001010F01F10F000808282E2928A8680000C
:104DF000402215081661000040807F00000000007E
:104E0000E4B8960000202020FE2020FF202020FF74
:104E100020202020000000007F40404744444447B9
:104E20004040400000E7958C0000000000FE929298
:104E300092FE929292FE0000000008080484621E16
:104E4000010001FE0204040808000000000000FF49
:104E50000101013109090909897101010101FFFFFE
:104E60008080808080809681808080808080FF002C
:104E70000000000000000000303132333435363796
:104E8000383941424344454640305800303132338E
:104E9000343536373839616263646566403078008E
:104EA00004000008000000000000000200010000F3
:104EB00010303132333435363738396162636465E6
:104EC0006678700030313233343536373839414204
:104ED000434445465850000002400000000000A036
:104EE0000000000005400000000000C800000000B5
:104EF0000C4000000000409C000000001940000031
:104F00000020BCBE0000000034400000BFC91B8E62
:104F100000000004B5400000504BCFD06607E2CF40
:104F2000010000006C4100003E8251AADFEEA73470
:104F300001000000D9420000DCB5A0E23A301F9722
:104F4000FFFFFFFFB4450000FD25A0C8E9A3C14F46
:104F5000FFFFFFFFFF3F0000000000800000000097
:104F6000FF3F00000000008000000000B850000873
:104F7000000000200401000028010008BC510008C6
:104F800004010020640A0000440100081C00000025
:104F900043000000F8FFFFFF0C0000000E000000BF
:104FA0000F0000002E000000100100004300000070
:104FB000F8FFFFFF0040404040404040404041413A
:104FC00041414140404040404040404040404040DE
:104FD0004040404040050202020202020202020278
:104FE0000202020202202020202020202020200275
:104FF0000202020202029090909090901010101005
:1050000010101010101010101010101010101010A0
:105010000202020202028888888888880808080834
:105020000808080808080808080808080808080800
:105030000202020240000000000000000000000028
:105040000000000000000000000000000000000060
:105050000000000000000000000000000000000050
:105060000000000000000000000000000000000040
:105070000000000000000000000000000000000030
:105080000000000000000000000000000000000020
:105090000000000000000000000000000000000010
:1050A0000000000000000000000000000000000000
:1050B00000000000000000000204060800000000DC
:1050C00001020304010203040607080900000000AE
:1050D00000000000000000000000000000000000D0
:1050E00000000000000000000000000000000000C0
:1050F00000000000000000000000000000000000B0
:10510000000000000000000000000000000000009F
:105110009A99193F0AD7A33CCDCCCC3D00000000A2
:10512000000000000000000000000000000000007F
:105130000000000000000000000000009A99193FE4
:105140000AD7A33CCDCCCC3D0000000000000000FD
:10515000000000000000000000000000000000004F
:1051600000000000000000009A99993E8FC2F53CB3
:10517000CDCCCC3D0000000000000000000000008D
:10518000000000000000000000000000000000001F
:1051900000000000CDCC4C3F9A99993ECDCCCC3D3F
:1051A00000000000000000000000000000000000FF
:0C51B000000000000100000000000000F2
:04000005080000ED02
:00000001FF
