:020000040800F2
:10000000D8060020350200083D1E00086D1D0008BE
:10001000711D0008F71A0008FB2D00080000000001
:100020000000000000000000000000006521000842
:10003000FB1A00080000000005200008FD2300084E
:100040004F0200084F0200084F0200084F0200084C
:100050004F0200084F0200084F0200084F0200083C
:100060004F0200084F0200084F0200084F0200082C
:100070004F0200084F0200084F0200084F0200081C
:100080004F0200084F0200084F0200084F0200080C
:100090004F0200084F0200084F0200084F020008FC
:1000A0004F0200084F0200084F0200084F020008EC
:1000B0004F0200084F020008A12600084F02000866
:1000C0004F0200084F0200084F0200084F020008CC
:1000D0004F0200084F020008E92B00084F020008F9
:1000E0004F0200084F0200084F02000800F002F81B
:1000F00000F090F80AA090E8000C82448344AAF132
:100100000107DA4501D100F085F8AFF2090EBAE82F
:100110000F0013F0010F18BFFB1A43F0010318473B
:100120003C3C00005C3C0000103A24BF78C878C119
:10013000FAD8520724BF30C830C144BF04680C60ED
:10014000704700000023002400250026103A28BF35
:1001500078C1FBD8520728BF30C148BF0B60704739
:100160006E2900F03B81702900F07D82662903F042
:100170007285652903F06F85672903F06C85612915
:1001800003F06B8503681B0A28BF41F080016929D1
:1001900000F0E880642900F0E580752900F0E28035
:1001A0006F2900F00A82782900F04982E92900F0DD
:1001B000A581E42900F0A281F52900F09F81EF29B3
:1001C00000F00782F82900F048820368DB0928BFA5
:1001D00041F08001632900F04B87732900F05087BC
:1001E000E32900F05B87F32900F060870020704767
:1001F0001FB500F0ADFF04000020002103F07AF8E5
:10020000401C60600020002103F05EF8E0601FBD2C
:1002100010B510BD00F06EFF1146FFF7E9FF02F0C8
:1002200009FE01F04BF803B4FFF7F2FF03BC01F045
:1002300093F800000948804709480047FEE7FEE7B9
:10024000FEE7FEE7FEE7FEE7FEE7FEE7FEE7FEE786
:1002500004480549054A064B704700000124000880
:10026000ED000008D8000020D8060020D8020020A9
:10027000D80200201CB50C46064B7B446946009012
:10028000204600F0C4F804460020694600F0D2F889
:1002900020461CBDB701000070477047704770B51D
:1002A000044685690068C10601D5302600E0202695
:1002B000C00707D070BDD4E9012130469047206ABD
:1002C000401C20626D1EF6D570BD70B50446856970
:1002D0000078C00707D170BDD4E9012120209047E4
:1002E000206A401C20626D1EF6D570BD09684A0563
:1002F00001D540B27047C905FCD500B27047096806
:100300004A0501D5C0B27047C905FCD580B2704717
:1003100070B50C460546012A05D02878800600D520
:10032000EA69002302E0012305E05B1C934202D24C
:10033000E05C0028F9D1A869E618C01AA861286A0B
:10034000184428622846FFF7AAFF04E0D5E90121F6
:1003500014F8010B9047B442F8D32846FFF7B5FFD5
:1003600070BD00002DE9F041064600241068752993
:10037000314616A510D0FFF7B9FF002802DA404237
:1003800013A507E031688A0701D512A502E04907E5
:1003900004D511A5012401E0FFF7B1FF00210A22D5
:1003A00006F1240709E0B0FBF2FCB0FBF2F302FB1C
:1003B0001C00303078541846491C0028F3D12346DD
:1003C0002A463046BDE8F04100F061BA0000000066
:1003D0002D0000002B0000002000000011680268C2
:1003E000006A530501D508700AE0D30501D50880DD
:1003F00006E0130603D5C217C1E9000200E0086059
:100400000120704701694A1C02610878704700B5F5
:100410008FB0CDE901310021059105497944CDE93D
:1004200003101146684600F029F90FB000BD000026
:10043000E5FFFFFF0A6802F8010B0A607047000041
:100440002DE9FF5F15468A460446DFF8AC80F84484
:100450000027D8E900103E46CDE9001010E03AF838
:1004600016106A4602A800F025FE411C07D021782C
:10047000890603D5E269391891420DD80744761CE4
:100480002078800602D5E069B84205DDAE42E6DBA1
:100490003AF816000028E2D1A069C01BA0612046EE
:1004A000FFF7FDFED8E90010CDE90010002017E0AD
:1004B0003AF818106A4602A800F0FCFDB0F1FF3FC0
:1004C00081460BD000250DF1080B05E0D4E9012190
:1004D0001BF8050090476D1C4D45F7D308F101004E
:1004E000B0428046E4DB206A384420622046FFF7B1
:1004F000ECFEBDE8FF9F00000E3800002DE9F04142
:100500008046D21D22F007020025D2E90002F5291B
:1005100015A614D0011E72F1000106DA0023D0EBFB
:10052000030063EB020211A608E0D8F800108B0765
:1005300001D50FA602E0490701D50EA601251146F7
:10054000002408F1240704E000F05CF930323A5549
:10055000641C50EA0102F7D12B4632462146404640
:10056000BDE8F04100F093B9000000002D0000004C
:100570002B0000002000000030B4002100F1240412
:1005800008E002F00705D208303542EA4372DB0882
:100590006554491C52EA0305F3D10468002310A2F4
:1005A000250707D5A40600D421B1C46901230DA2F3
:1005B000641EC46130BC00F06AB910B5044621461F
:1005C0001068FFF79CFE02462046BDE8104000235D
:1005D000D2E7D21D22F00701D1E90023CCE70000C9
:1005E0000000000030000000F0B40D46018809054D
:1005F00002D5214C7C4402E01F4C7C440E34002187
:1006000000F1240608E002F00F071209E75D42EA54
:1006100003721B097754491C52EA0307F3D102788D
:100620000023120704D5702D06D009B1022311341E
:100630002246F0BC00F02BB901231034F8E770B566
:1006400004460D4621461068FFF759FE024629462A
:100650002046BDE870400023C6E7D21D22F0070304
:10066000D3E90023C0E70368126843F02003036066
:100670000823C3610023B7E7703600002DE9F05F5F
:10068000894604464FF0000ADFF874B1FB44C0F815
:1006900020A02046E1688847002874D0252806D08D
:1006A000D4E901219047206A401C2062F1E700262E
:1006B0005F462046E16888472028054607DB312D44
:1006C00005D2781910F8200C08B10643F1E7B007FD
:1006D00001D526F00406C4F81CA00027C4F818A011
:1006E0002A2D09D0284602F09EFB38B304EB870878
:1006F000303DC8F8185019E059F8041B204604EBA7
:1007000087029161E1688847012F054618D1E069A9
:10071000002820DA26F020061DE0D8F8180000EBAB
:10072000800005EB40003038C8F818002046E1682A
:100730008847054602F077FB0028EED1012F0AD04A
:100740002E2D08D12046E16888477F1C0546022FE0
:1007500046F02006C4DBA069002803DA404246F0D8
:100760000106A061F00701D026F010066C2D0BD019
:10077000682D09D04C2D39D06A2D35D0742D35D047
:100780007A2D33D016E038E0E1682F4620468847BE
:10079000B842054609D16C2F26D04FF48060E1683D
:1007A000064320468847054604E06C2F1AD04FF4D4
:1007B000807006430DB3A5F14100192802D82035F9
:1007C00046F400664A462946204626604E46FFF714
:1007D000C7FC80B101280BD0F61D26F0070000F100
:1007E000080956E74020E4E78020D8E70020D6E754
:1007F00006F104094DE7284652E7206ABDE8F09F5C
:100800000036000030B5B0F10A024FEA900E71F1E7
:1008100000034EEA817EB0EB0E0061EB91014FEADE
:10082000101E4EEA017E10EB0E0041EB11114FEA53
:10083000102E4EEA016E10EB0E0041EB11214FEA33
:10084000104E4EEA014E10EB0E0041EB11414018E4
:1008500041F100014FEAD00040EA41704FEAD10176
:1008600010EB80054FEA810444EA907444EB0104E4
:100870006D1944EB0404521BA3414FF0000348BF21
:100880000A3200D530BD401C41F1000130BD2DE9D8
:10089000F0470D4699469246044600F12408016847
:1008A000880604D5E06921F01001216000E00120F4
:1008B000A84201DD471B00E00027A1697A1902EB7D
:1008C0000900081AA0612078C00602D42046FFF76C
:1008D000E6FC002608E0D4E901211AF8060090475A
:1008E000206A401C761C20624E45F4DB2078C0064E
:1008F0000AD52046FFF7D3FC06E0D4E901213020D9
:100900009047206A401C2062381EA7F10107F4DCE2
:1009100007E0D4E9012118F805009047206A401C3F
:100920002062281EA5F10105F3DC2046FFF7CDFC6F
:100930002078000602D50220BDE8F0870120FBE701
:1009400070472DE9FF4F0C461E464FF0FF378BB026
:10095000D2E90001DDF860800A908A46C1F30A55A9
:1009600005B93D46002108464FF00000BAF1000FDE
:1009700000F4400005DA00EB80004FF4400101EA8A
:1009800050004FEA9059B9F1010F00DDB9460A98BD
:1009900050EA4A000ED044F61050A5F2FF35454308
:1009A0002F14B8F1000F1ED07542291E1EDDC9F1AB
:1009B00000021CE0B8F1010F4FF0000001D030211F
:1009C00003E0F24305E02154401CB042FBDB30461B
:1009D0000022002121540B99C1F80880C1E90020B0
:1009E0000FB0BDE8F08FBD1B6D1CDEE74A4600DA94
:1009F000694206A800F0F0FB06AB93E8070003ABE2
:100A000083E8070050460A9900F0ADFC8DE8070026
:100A1000A0F500501F3800900398002D0ADD42F227
:100A20001F014A460844002303A90390684600F0CA
:100A300016FF09E0A0F500504A461F38002303A91D
:100A40000390684600F020FF8DE807000004000CCA
:100A500003D04FF0FF30410800E01046B8F1000F1E
:100A600003D00022009215461EE0751E05D4FFF744
:100A7000C9FE303262556D1EF9D5B34601220843D6
:100A800002D000227F1C04E02078302801D100220F
:100A90007F1E002A099784D01DE0112D07DAFFF789
:100AA000B1FE303262556D1C50EA0102F5D10843A7
:100AB00002D00098C8B10EE00021681E05E0235C5A
:100AC000625C63542254401E491C8142F7DBAB46F2
:100AD000A81B401E0990002004F80B000B98099AEF
:100AE000C0F80880C0E9002B7AE711264FF0000813
:100AF00057E72DE9F04F88460446D21D22F0070142
:100B000091B0D1E90001CDE90A0102F078F902467D
:100B10000B98C00F01D02D2007E02068810701D578
:100B20002B2002E0202101EAC000032A099001D015
:100B3000072A05DB03464146204600F00DFB0BE18A
:100B40002078800601D5E06900E00620B8F1650F45
:100B5000814606D0B8F1660F18D0B8F1670F70D192
:100B600031E00020B9F1110F009001DB112301E009
:100B700009F101030AAA01A90CA8FFF7E2FEDDE9C9
:100B80000C70002609F10105834647E001204B4621
:100B900000904FF000470AAA01A90CA8FFF7D1FE68
:100BA000DDE90DB00C995D46002610B909F1010090
:100BB0000D18B9EB050003D4C0F1FF3609F10105AA
:100BC000A5EB09002BE0B9F1010F01DA4FF00109A3
:100BD0000020B9F1110F0090484601DD112300E01B
:100BE00003460AAA01A90CA8FFF7ABFEDDE90C70C9
:100BF0004D4600268346207800070AD4AB4500DA2C
:100C00005D4601A8012D04DD411911F8011C3029B0
:100C100007D04F4502DA17F1040F04DA01208246AB
:100C20000FE06D1EEEE7002F02DCED1B3E4403E0FB
:100C3000781CA84200DD7D1CB81B00F1010A4FF0B2
:100C400000472078000703D4AA4501DB4FF0FF3AA4
:100C50000021B7F1004F0DF143088DF8431024D067
:100C600002202B23002F01DA7F422D230A21021EAE
:100C7000A0F1010000DC5FB197FBF1FC97FBF1F202
:100C800001FB1C7C17460CF1300C08F801CDEEE797
:100C9000A8F1010003702188090501D5452100E074
:100CA0006521A0F1010800F8011C09980FA9A1EB2A
:100CB0000807FF1D00B10120411901EBEA70A1698D
:100CC0003844081A401EA0612078C00602D420468D
:100CD000FFF7E5FA099828B1D4E901219047206A85
:100CE000401C20622078C00622D52046FFF7D7FAA4
:100CF0001EE0002E04DBB34502DD01A8805D00E0AC
:100D00003020D4E901219047206A401C2062761CE3
:100D1000AAF101005FEA000A0AD100F019FAC068DE
:100D20000168405CD4E901219047206A401C2062A0
:100D3000281EA5F10105DCDC07E0D4E9012118F843
:100D4000010B9047206A401C2062381EA7F1010762
:100D5000F3DC2046FFF7B9FA032011B041E60000AA
:100D60002DE9F04F04460D46D21D22F0070089B050
:100D7000D0E900974846394602F041F80246F80F9C
:100D800001D02D2307E02068810701D52B2302E045
:100D9000202101EAC0038DF820300BB1012000E0D2
:100DA0000020032A824601D0072A04DB2946204678
:100DB00000F0D2F93FE12078800601D40D2500E053
:100DC000E569C7F30A560D2D49DA00214FEA175B92
:100DD00008464FF00000002F00F4400007DA00EB57
:100DE00080004FF4400100EBD07001EA60008115F3
:100DF000012901DD4FF0FF3100224FEA850CBCF1E3
:100E0000180F06D31346ACF118004FF08052C240C1
:100E100003E04FF4801323FA0CF30CF10C0CBCF13B
:100E2000200F04D3ACF1200C09FA0CF001E007FA12
:100E30000CF000294FF0004801DD18B90FE00ED189
:100E400040450CD319EB02095F4121B9404502D15D
:100E50009F4329EA0209BBEB175F00D0761C20886C
:100E6000000502D57B48784402E07A487844193876
:100E700008AA302302F80A30037C0AF10101002E8F
:100E80000AF1020A53546A4602DC4FF0300101E0D5
:100E90004FF031014FF001088DF8001002D0A6F29A
:100EA000FF3603E059EA470100D06B4E002D02DC0B
:100EB0002178090704D54FF002082E218DF8011082
:100EC000C44600210BE0C7F303433F01C35C491C48
:100ED0006D1E02F80830052908F1010801DA002D1D
:100EE000F1DC00210CE000EB1973491C1B786D1E2E
:100EF000082902F808304FEA091908F1010801DA57
:100F0000002DF0DC21688B0602D516E0A8F101085F
:100F1000E04505DD02EB080313F8013C302BF5D06A
:100F2000B8F1000F09DD02EB080313F8013C2E2B8A
:100F300003D1090701D4A8F10108002D05DD3E21E8
:100F400002F808106D1E08F10108407C002E02F81E
:100F5000080008F1010804DA2D20764202F80800A2
:100F600002E02B2002F808000A214FF47A70864232
:100F700008F101080BDB96FBF0F3303302F8083080
:100F800096FBF0F308F1010800FB136601E0642E04
:100F90000CDB642096FBF0F3303302F8083096FB4C
:100FA000F0F308F1010800FB136601E00A2E06DBEE
:100FB00096FBF1F0303002F8080008F1010896FBCA
:100FC000F1F001FB1060303002F80800A16908F16F
:100FD000010808EB050202EB0A00081AA06120785C
:100FE000C00602D42046FFF75AF9216A08AE01EB89
:100FF0000A00206204E0D4E9012116F8010B9047B1
:10100000BAF1010AF7D22078C00602D52046FFF7D0
:1010100046F96E4609E016F8010B3E280FD0D4E9D8
:1010200001219047206A401C2062B8F10108F2D2E9
:101030002046FFF74AF909B00320BDE8F08F206A87
:101040002844206203E0D4E90121302090476D1E3E
:10105000EBD3F8E74A2E000002FCFFFF10B543690E
:1010600013B1AFF3008001E0FFF752F9012010BD8A
:10107000127800F124010A7000224A700122EDE783
:1010800011684FF0FF32E9E710B5436913B1AFF3D0
:10109000008001E0FFF7D4F9012010BD128800F1B3
:1010A000240182840022C2840122EDE711684FF0FE
:1010B000FF32E9E770B516460C46054600F040F8E9
:1010C000036893F80101012806D0FF2C0FD8185DA2
:1010D00068B101202C7070BDD3F80701324621465B
:1010E00003F2071303442846BDE8704018474FF049
:1010F000FF3070BD754600F0EBF8AE46050069465E
:10110000534620F00700854618B020B5FFF7A0F839
:10111000BDE820404FF000064FF000074FF00008F8
:101120004FF0000B21F00701AC46ACE8C009ACE879
:10113000C009ACE8C009ACE8C0098D4670470000A2
:1011400010B500F005F8001D10BD00BFA92100007A
:1011500000487047980000202DE9F0411F460446E2
:1011600003260168072A01F4006004DB08B116A514
:1011700005E016A503E008B115A500E015A521F0CE
:1011800010002060A069C01EA0610FB1401EA061C8
:101190002046FFF784F84FB1D4E901213846904743
:1011A000206A401C2062C01C206206E0206AFAE728
:1011B000D4E9012115F8010B9047761EF8D220469C
:1011C000FFF783F8BDE8F0814E414E006E616E007E
:1011D000494E4600696E66002DE9F0478146164685
:1011E0008AB0354878440DC88DE80D0032487844FF
:1011F000801C03AC0DC884E80D0041F69B30084408
:10120000372190FBF1F290FBF1F5A5F1800501FB90
:1012100012041B3C02D56442012000E00020DFF8EC
:1012200098A080460027FA44AAF1BE0A0EE0E00723
:101230000AD03246684607EB470101230AEB8101D9
:1012400000F022FB8DE8070064107F1C002CEED11B
:10125000194F7F44AE3F19E0E80715D007EB0410A3
:101260000DF1180A90E80E008AE80E00C068F042FE
:1012700001D1981908903246012306A903A800F06D
:1012800003FB03AB83E807006D10641C002DE3D162
:101290004FF0010332466946B8F1000F03A802D0AF
:1012A00000F0DDFA01E000F0EFFAC9E90001C9F849
:1012B00008200AB0BDE8F0875C2B000010B504469A
:1012C000AFF300802046BDE81040FEF7ACBF000041
:1012D00000487047780000204FF0013C50F8042B84
:1012E00051F8043B9A4221D1A2EB0C03934313EA39
:1012F000CC1317D150F8042B51F8043B9A4215D166
:10130000A2EB0C03934313EACC130BD150F8042B3C
:1013100051F8043B9A4209D1A2EB0C03934313EA20
:10132000CC13DBD04FF00000704700BFD01A01BAD9
:10133000B1FA81F101F0180122FA01F0CB40C1F1BC
:101340002001DBB2C0B2C01A2CFA01F3D11A9143CA
:1013500011EAC311E6D1704701491820ABBEFEE780
:101360002600020070475FEA400C08BF91F0000FB2
:101370004FEA8C234FEAC12243EA51514FEA1C50F5
:1013800018BF00F5F0404FEA300018BF41F00041AF
:101390005FEA6C5C00F02980BCF1FF3F08BF40F0C1
:1013A00080407047130C06BF12044FF0100C4FF032
:1013B000000C130E04BF12020CF1080C130F04BF33
:1013C00012010CF1040C930F04BF92000CF1020CFB
:1013D000D30F04BF52000CF1010C11464FF0000274
:1013E000A0F11F00A0EB0C00704711F0004F08BFE8
:1013F000704731F000413FF4D5AF0B0C06BF090434
:101400004FF0100C4FF0000C0B0E04BF09020CF152
:10141000080C0B0F04BF09010CF1040C8B0F04BF67
:1014200089000CF1020CCB0F04BF49000CF1010C38
:10143000CCF12003A0EB0C0022FA03F302FA0CF229
:1014400041EA030100F10100704720F07F4C80EA7F
:10145000030023F07F47ACEB070303F57C5300F058
:10146000004003F1FF032DE980494FEA154B09B411
:101470004FEA144325EA0B4E24EA03480FF20426F0
:1014800006EB132749083E785FEA320203FB066742
:10149000C7F5000707FB06F64FEA54374FEAD64672
:1014A00006F1020607FB066CCCF1005C4FEA1C4714
:1014B0002CEA074C07FB06F40CFB06F504EB15467B
:1014C0004FEA961634BF00204FF000404FEAD13764
:1014D00006FB07FC4FEA1C4C0CFB0BF7D21B03FB73
:1014E0000CF761EB07010CFB0EF7B0EB074072EB5A
:1014F00017420CFB08F734BFA2EB0742B2EB0742DE
:1015000061EB17414FEA0C444FEA910706FB07FCD9
:101510004FEA1C4C0CFB0BF7B0EBC74072EB573299
:1015200003FB0CF734BFA2EBC742B2EBC74261EB3F
:1015300057310CFB0EF7B0EBC70072EB57720CFB88
:1015400008F734BFA2EBC702B2EBC70261EB5771D9
:10155000039F4FEA816141EA921104EBCC044FEA08
:10156000D1374FEA826206FB07FC42EA90124FEA4B
:1015700080604FEA1C4C0CFB0BF7D21B03FB0CF7F3
:1015800061EB07010CFB0EF7B0EB074072EB174263
:101590000CFB08F734BFA2EB0742B2EB074261EB4A
:1015A00017414FEA8C554FEA910704EB9C2406FB48
:1015B00007FC4FEA1C4C0CFB0BF7B0EBC74072EB7F
:1015C000573203FB0CF734BFA2EBC742B2EBC74262
:1015D00061EB57310CFB0EF7B0EBC70072EB5772A3
:1015E0000CFB08F734BFA2EBC702B2EBC70261EBFA
:1015F000577115EB4C254FEA816141EA92114FEA90
:1016000082624FEAD13742EA901206FB07FC44F1AE
:1016100000044FEA80604FEA1C4C0CFB0BF7D21B16
:1016200003FB0CF761EB07010CFB0EF7B0EB074077
:1016300072EB17420CFB08F734BFA2EB0742B2EB88
:10164000074261EB174115EB1C154FEA813141EA66
:1016500092414FEA823242EA90424FEA80304FEAAA
:101660000C7644F1000448EA03434EEA0B484FF07D
:10167000000EB2EB080C71EB030724BF624639463B
:101680004EEB0E0E4FF0000B0018524149414BEB50
:101690000B0BB2EB080C71EB03077BF1000B24BFC3
:1016A000624639464EEB0E0E4FF0000B00185241C9
:1016B00049414BEB0B0BB2EB080C71EB03077BF1D1
:1016C000000B24BF624639464EEB0E0E51EA02076C
:1016D00018BF46F0010616EB0E7655F1000254F1E4
:1016E000000103D5BDE88901BDE80088BDE8890196
:1016F000BDE80048B619524141EB0101A3F10103D5
:10170000704780807F7E7D7C7B7A7978777676756E
:101710007473727171706F6E6E6D6C6C6B6A6A69E6
:101720006868676666656464636362616160605F80
:101730005F5E5E5D5D5C5C5B5B5A5A5959585857F9
:101740005756565555555454535352525251515061
:1017500050504F4F4F4E4E4D4D4D4C4C4C4B4B4BB4
:101760004A4A4A49494948484847474747464646FA
:101770004545454444444443434343424242424135
:101780004141002B9C4630D477002BD01CB54FEA4A
:10179000370703B44FF010004FF01001BAF1000FFB
:1017A00006D0BCF1000FDCBF40F0080040F008019B
:1017B0004FF000000FBCBDE810400BF1010BBBF176
:1017C000010F08BF5FEA170722BF12F1010211F1F2
:1017D00001014FF0004143F1000300F0004043EAF3
:1017E00000007047F9D35708D0E746EA064613F1E0
:1017F000400F4FEA16461FDD13F1200FDFBF1643DF
:101800000A46002120335B42BED0C3F1200746EADE
:10181000064602FA07F74FEA164646EA0706C3F1FC
:10182000200722FA03F201FA07F721FA03F14FF039
:10183000000342EA0702A7E746EA020646EA06462E
:101840004FEA164646EA0106BCBF46EA0646360C93
:101850004FF000034FF000024FF0000194E72DE934
:10186000804C9A46934670B491E8380007C831EA34
:10187000400C48BF34EA430C03D5FFF7E6FDFFF701
:1018800080FFF0BCBDE8008C2DE9804C9A46934661
:1018900070B491E8380007C810F0804F08BF13F00B
:1018A000804F03D100F005F8FFF76BFFF0BCBDE8F7
:1018B000008C20F07F4780EA030023F07F4C07EB89
:1018C0000C03A3F57C5300F00040A3F1FE0392F05B
:1018D000000F00F0B38095F0000F00F077802DE945
:1018E00001494FEA11404FEA144621EA004800FB43
:1018F00006FC24EA064708FB06F607FB08F800FB8F
:1019000007F718EB06484CEB164C4FEA124B18EB56
:1019100007484FEA15464CEB174022EA0B4E0BFBEB
:1019200006FC25EA06470EFB06F607FB0EFE0BFB40
:1019300007F71EEB064E4CEB164C4FF000061EEB65
:10194000074E4CEB174B18EB0B0840F1000018EB5F
:101950000E0B58EB000840F100008F1A4FF0000109
:101960003CBFC943661B14BFB5EB040C00213CBF50
:10197000C943F61B4FEA17444EEA8E0E27EA044588
:101980004FEA1C4704FB07622CEA074C05FB07F7EC
:101990000CFB05F604FB0CFC16EB074642EB17426A
:1019A00016EB0C4642EB1C421BEB060658EB020200
:1019B000414146EA9E0601D5BDE80189B61952416A
:1019C00041EB0101A3F10103BDE801894FEA144590
:1019D0004FEA114724EA054621EA074C05FB07F4C4
:1019E00006FB07F70CFB06F105FB0CFC11EB0741AE
:1019F00044EB17444FEA124711EB0C4144EB1C44F3
:101A000022EA074C05FB07F206FB07F70CFB06F67C
:101A100005FB0CFC16EB074642EB174216EB0C4697
:101A200042EB1C456A1854F1000148BF7047B619D3
:101A3000524141EB0101A3F10103704795F0000F02
:101A400037D04FEA11424FEA144721EA024624EA0E
:101A5000074C02FB07F106FB07F70CFB06F402FB41
:101A60000CFC14EB074441EB17414FEA154714EB0C
:101A70000C4441EB1C4125EA074C02FB07F506FB31
:101A800007F70CFB06F602FB0CFC16EB074645EBD2
:101A9000174516EB0C4645EB1C42121951F100019B
:101AA00048BF7047B619524141EB0101A3F1010350
:101AB00070474FEA14454FEA114724EA054621EAE8
:101AC000074C05FB07F106FB07F70CFB06F24FF08E
:101AD000000605FB0CFC12EB074241EB174112EB31
:101AE0000C4251EB1C4148BF7047921841EB010179
:101AF000A3F10103704700BFFEE7704710B505482A
:101B000000F07DFE04B20021024800F0A7FF20464D
:101B100010BD0000002C014010B5054800F06FFE1C
:101B200004B20021024800F099FF204610BD0000D9
:101B30000004004000B587B00121022000F064FAE3
:101B40000121042000F070FA48208DF81B00C0200D
:101B5000ADF8180003208DF81A0006A9344800F0EB
:101B60006DF803A800F0FAFF0020ADF81200ADF800
:101B70000E004FF6FF70ADF810000020ADF80C001D
:101B80008DF8140003A92B4800F096FF684600F07A
:101B9000A1FE0020ADF800000F20ADF80800694656
:101BA000244800F041FE0420ADF800000F20ADF8FD
:101BB000080069461F4800F037FE02230022032177
:101BC0001C4800F0FBFD01211A4800F0EBFD01214B
:101BD000C80200F029FA4FF44070ADF8180006A9C9
:101BE000134800F02BF803A9134800F065FF00200C
:101BF000ADF800000F20ADF8080069460E4800F06F
:101C000013FE0420ADF800000F20ADF8080069466F
:101C1000094800F009FE022300220321064800F0D3
:101C2000CDFD0121044800F0BDFD07B000BD00005E
:101C30000008014000040040002C01402DE9F04163
:101C4000024600250026002000230024002791F8EA
:101C500003C00CF00F0591F803C00CF0100CBCF1A0
:101C6000000F03D091F802C04CEA050591F800C0BE
:101C7000BCF1000F31D0146800202BE04FF0010CB4
:101C80000CFA00F3B1F800C00CEA03069E4220D122
:101C900083004FF00F0C0CFA03F7BC4305FA03FC6A
:101CA0004CEA040491F803C0BCF1280F06D14FF0B0
:101CB000010C0CFA00FCC2F814C00AE091F803C051
:101CC000BCF1480F05D14FF0010C0CFA00FCC2F832
:101CD00010C0401C0828D1D31460B1F800C0BCF17A
:101CE000FF0F34DD546800202EE000F1080C4FF0A7
:101CF000010808FA0CF3B1F800C00CEA03069E4292
:101D000021D183004FF00F0C0CFA03F7BC4305FA06
:101D100003FC4CEA040491F803C0BCF1280F05D180
:101D200000F1080C08FA0CF8C2F8148091F803C00E
:101D3000BCF1480F07D100F1080C4FF0010808FA78
:101D40000CF8C2F81080401C0828CED35460BDE8BF
:101D5000F0810246002093680B400BB1012000E0A7
:101D600000207047416170470161704700BFFEE786
:101D700000BFFEE710B50446002C0BDB20210C4809
:101D8000FFF7F2FF10210A48FFF7ECFFA0B200F0C6
:101D900029F90BE010210648FFF7E6FF202104484F
:101DA000FFF7E0FF614288B200F01CF910BD0000AF
:101DB0000008014010B50446002C0BDB02210C4842
:101DC000FFF7D2FF08210A48FFF7CCFFA0B200F0CE
:101DD00011F90BE008210648FFF7C6FF022104486D
:101DE000FFF7C0FF614288B200F004F910BD0000A7
:101DF000000C014008B50121042000F015F9012173
:101E0000082000F011F910208DF803000A20ADF829
:101E1000000003208DF8020069460648FFF70EFF18
:101E20003020ADF8000069460348FFF707FF00F0D7
:101E30008BF808BD000C014000080140704700000D
:101E400070B5002100230F22C47804B3154C246818
:101E500004F4E064C4F5E064210AC1F10403CA405B
:101E6000447804FA03F184781440214309010E4CAC
:101E70000678A155047804F01F050124AC400578CC
:101E80006D11AD0005F1E025C5F8004109E00478C9
:101E900004F01F050124AC40044D0678761145F886
:101EA000264070BD0CED00E000E400E080E100E0C1
:101EB00002490143024A1160704700000000FA0520
:101EC0000CED00E02DE9F0410446A069E061D4E9A1
:101ED000000101F04BFEA0610021206901F0ACFC83
:101EE00005D0A169206A01F039FC206201E00020E0
:101EF0002062D4E9060101F039FE0746616901F06C
:101F000037FD0546216A206901F032FD0746A169C7
:101F1000E06801F02DFD8046394601F01FFC0646C1
:101F2000294601F01BFCA060616AA06801F0ECFD8D
:101F300001D2606AA060A16AA06801F0E5FC01D24C
:101F4000A06AA060BDE8F08100B589B00121084613
:101F500000F05AF80121042000F066F818208DF8EE
:101F600023000320ADF820008DF8220008A91C48AA
:101F7000FFF764FE4FF0804000F0BEFC0020ADF89B
:101F80001A00ADF816006320ADF818004720ADF830
:101F9000140000208DF81C0005A94FF0804000F0CF
:101FA0008BFD01A800F04CFD6020ADF8040000207E
:101FB000ADF80C000120ADF806000020ADF80A00D5
:101FC00001A94FF0804000F09DFC01A94FF0804036
:101FD00000F0E4FC0121880700F0E4FB09B000BD3B
:101FE0000008014010B5044621464FF0804000F043
:101FF00031FD10BD10B5044621464FF0804000F081
:102000002BFD10BD7047000029B1064AD26902437A
:10201000044BDA6104E0034AD2698243014BDA617E
:10202000704700000010024029B1064A926902433D
:10203000044B9A6104E0034A92698243014B9A611E
:10204000704700000010024030B50021002200243B
:1020500000232D4D6D6805F00C0121B1042905D038
:10206000082923D105E0294D056022E0274D0560B0
:102070001FE0254D6D6805F47012234D6D6805F461
:102080008034022505EB92421CB9214D5543056071
:102090000BE01D4D6D6805F400351DB11C4D554319
:1020A000056002E0194D5543056002E0174D0560DB
:1020B00000BF00BF144D6D6805F0F0010909154D12
:1020C0006B5C0568DD4045600F4D6D6805F4E061AF
:1020D000090A104D6B5C4568DD4085600A4D6D68EE
:1020E00005F46051C90A0B4D6B5C4568DD40C56065
:1020F000054D6D6805F44041890B074D6B5CC56863
:10210000B5FBF3F5056130BD0010024000127A0006
:1021100000093D00000000201000002008B501214A
:102120000420FFF781FF01210820FFF77DFF40F623
:102130003170ADF8000048208DF8030003208DF8C1
:10214000020069460548FFF779FD4FF40060ADF8DD
:10215000000069460248FFF771FD08BD000C014010
:10216000000801407047000010B501210148FFF749
:10217000F0FD10BD000C014010B510210148FFF723
:10218000E8FD10BD000C014010B520210148FFF70B
:10219000E0FD10BD000C014010B54FF48071024805
:1021A000FFF7D7FD10BD0000000C014010B54FF443
:1021B00000710248FFF7CDFD10BD0000000C01408A
:1021C00010B54FF480610248FFF7C3FD10BD000059
:1021D000000C014010B54FF400610248FFF7B9FD53
:1021E00010BD0000000C014010B54FF40061024822
:1021F000FFF7AFFD10BD00000008014000B587B03B
:1022000001214804FFF700FF01210420FFF70CFF24
:1022100018208DF81B000420ADF8180003208DF85D
:102220001A0006A92148FFF709FD48208DF81B0078
:102230000820ADF8180003208DF81A0006A91B48E5
:10224000FFF7FCFC4FF4165002900020ADF814008C
:102250000C20ADF812000020ADF81000ADF80E0013
:10226000ADF80C0002A9124800F052FD012240F224
:1022700025510F4800F026FD4FF4A060FFF718FE2F
:1022800026208DF8040001208DF8070002208DF82B
:10229000050001208DF8060001A8FFF7D1FD0121FE
:1022A000034800F0CCFC07B000BD0000000801406E
:1022B000004400400FB400B59BB01DA8019002A8D7
:1022C000019A1C99FDF7D6FF0020019002A800F0AA
:1022D00013F81BB05DF814FB10B504462146054801
:1022E00000F087FD00BF8021024800F0B4FC002808
:1022F000F9D010BD0044004070B50446002504E04C
:10230000605DFFF7E9FF681CC5B2605D0028F7D18A
:1023100070BD10B500F002F810BD00000CB5002033
:10232000019000903348006840F4803031490860E3
:1023300000BF3048006800F4003000900198401C55
:102340000190009818B90198B0F5A06FF1D1294813
:10235000006800F4003010B10120009001E000207E
:1023600000900098012843D12348006840F01000F5
:10237000214908600846006820F00300086008460C
:10238000006840F0020008601A4840681949486037
:102390000846406848600846406840F480604860ED
:1023A0000846406820F47C1048600846406840F4C5
:1023B000E81048600846006840F08070086000BF80
:1023C0000C48006800F000700028F9D00948406807
:1023D00020F00300074948600846406840F00200CA
:1023E000486000BF0348406800F00C000828F9D19D
:1023F0000CBD0000001002400020024070470000A9
:1024000010B51348006840F0010011490860084603
:102410004068104908400E494860084600680E4967
:1024200008400B4908600846006820F480200860D6
:102430000846406820F4FE0048604FF41F008860A2
:10244000FFF767FF4FF000600449086010BD00000F
:10245000001002400000FFF8FFFFF6FE08ED00E06C
:10246000F0B50C46154600220021068C4FF6FE778B
:102470003E400684028B018C4FF60C7632407E1C67
:1024800006EA03162E433243104EB0420ED0104ED1
:10249000B0420BD0B0F1804F08D00E4EB04205D004
:1024A0000D4EB04202D00D4EB04206D14FF6FD7631
:1024B000314044F00106314305E04FF6F5763140F6
:1024C00044F00106314302830184F0BD002C014039
:1024D000003401400004004000080040000C0040AF
:1024E000F0B50C461546002200210026078C4FF659
:1024F000EF7C07EA0C070784028B018C4FF6FF770D
:1025000007EA041640F6FF473A404FF6FF7707EA1E
:1025100003373A434FF6FF7707EA05273A43114F4F
:10252000B8420ED0104FB8420BD0B0F1804F08D057
:102530000E4FB84205D00E4FB84202D00D4FB842F0
:1025400006D14FF6DF77394046F01007394305E0F2
:102550004FF65F77394044F0100739430283018416
:10256000F0BD0000002C0140003401400004004098
:1025700000080040000C0040F0B50C461546002253
:1025800000210026078C4FF6FF6C07EA0C07078432
:10259000828B018C4FF6FF7707EA04264FF60C7703
:1025A0003A404FF6FF7707EA03172F433A43114F9C
:1025B000B8420ED0104FB8420BD0B0F1804F08D0C7
:1025C0000E4FB84205D00E4FB84202D00D4FB84260
:1025D00006D14FF6FF57394046F48077394305E07E
:1025E0004FF2FF57394044F48077394382830184A6
:1025F000F0BD0000002C0140003401400004004008
:1026000000080040000C0040F0B50C4615460022C2
:1026100000210026078C4EF6FF7C07EA0C07078492
:10262000828B018C4FF6FF7707EA043640F6FF47AE
:102630003A404FF6FF7707EA05273A434FF6FF7710
:1026400007EA03373A43114FB8420ED0104FB84251
:102650000BD0B0F1804F08D00E4FB84205D00E4FCE
:10266000B84202D00D4FB84206D14DF6FF7739403F
:1026700046F48057394305E047F6FF57394044F4A4
:102680008057394382830184F0BD0000002C014053
:10269000003401400004004000080040000C0040ED
:1026A0002DE9F0410121324800F0ACF801285DD15C
:1026B00030480088401C2F490880084600880A28B6
:1026C00050DB00200880FFF727FA804600F0AFFFBC
:1026D0000646294A294B00F023FE044600F078FF05
:1026E00000B227490880274800880988084400B2BA
:1026F00024490880FFF702FA804600F098FF06465A
:102700001D4A1E4B00F00CFE044600F061FF00B2B3
:102710001D4908801D4800880988084400B21B49EB
:1027200008801748B0F9000001F0D6F81849486051
:102730001548B0F9000001F0CFF816494860144878
:10274000FFF7C0FB1348FFF7BDFB1149886801F094
:10275000A7F804460F49886801F0A2F8054621460B
:1027600000F0C8FB0121024800F019F8BDE8F08133
:102770000008004076000020CDCCCCCCCCCCF63F7D
:102780006E00002070000020720000207400002005
:102790004000002014000020CA4302827047CA4350
:1027A0000282704721B1028842F00102028004E0F7
:1027B00002884FF6FE731A4002807047F0B50C464F
:1027C00015461E460021002200230189028B038C3E
:1027D0004FF6F877394021434FF6FC473A4040F234
:1027E00001173A434FF6DD773B404FF6FF7707EA94
:1027F00006172F433B43018102830384F0BD01464A
:10280000888C704730B50246002000230024158ACA
:1028100005EA0103958905EA010413B10CB1012011
:1028200000E0002030BD000070B505460C4624488D
:1028300085420ED0234885420BD0B5F1804F08D099
:102840002148854205D02148854202D02048854252
:1028500000D100E000BF208850B92389A288618898
:102860002846FFF7FDFDE188284600F0F9F825E04D
:10287000208804280AD12389A28861882846FFF786
:102880002FFEE188284600F0F4F817E02088082899
:102890000AD12389A28861882846FFF76DFEE18866
:1028A000284600F0F3F809E02389A28861882846C9
:1028B000FFF7AAFEE188284600F0F1F870BD00009D
:1028C000002C01400034014000040040000800409A
:1028D000000C004000210180418001218180002105
:1028E000C180018170471AB183890B43838102E063
:1028F00083898B438381704701894FF6F8721140B9
:102900000181704770B5002400220023058C4FF62A
:10291000FE7635400584028C8388048B4FF68F75D4
:102920002C40B51E2C400D882C43751E2A400D8965
:102930002A434D882A43144DA8420BD0134DA84278
:1029400008D0134DA84205D0124DA84202D0124D16
:10295000A84213D14FF6F7752A404D892A434FF606
:10296000FB752A408D882A434FF6FF652B404FF6B2
:10297000FF552B408D892B43CD892B4383800483C6
:10298000CD888586028470BD002C01400034014052
:1029900000400140004401400048014070B500245F
:1029A00000220023058C4FF6EF7635400584028C1B
:1029B0008388048B48F6FF752C404FF6FF452C406A
:1029C0000D884FF6FF7606EA05252C434FF6DF7596
:1029D0002A400D8906EA05152A434D8806EA0515A1
:1029E0002A43154DA84202D0144DA8421DD14FF6DE
:1029F0007F752A404D894FF6FF7606EA05152A4372
:102A00004FF6BF752A408D8806EA05152A434FF612
:102A1000FF352B404FF2FF752B408D8906EA850567
:102A20002B43CD8906EA85052B4383800483CD881B
:102A30000587028470BD0000002C01400034014075
:102A40000021018041808180C1800181418181819B
:102A5000C1817047818670470187704781847047C4
:102A6000028B4FF6F3731A400283028B0A430283F0
:102A70007047028B4FF2FF331A400283028B4FF6EE
:102A8000FF7303EA01231A4302837047828B4FF6D8
:102A9000F3731A408283828B0A4382837047828B4E
:102AA0004FF2FF331A408283828B4FF6FF7303EAA3
:102AB00001231A4382837047002202881D4B9842EB
:102AC0000ED01D4B98420BD0B0F1804F08D01B4B5D
:102AD000984205D01A4B984202D01A4B984204D122
:102AE0004FF68F731A404B881A43174B984207D002
:102AF000164B984204D04FF6FF431A40CB881A4336
:102B000002808B8883850B8803850A4B98420BD003
:102B1000094B984208D00E4B984205D00D4B984275
:102B200002D00D4B984201D10B7A03860123838298
:102B300070470000002C01400034014000040040B8
:102B400000080040000C004000100040001400404D
:102B50000040014000440140004801404FF6FF7131
:102B6000818000210180C180418001727047000096
:102B70001FB501210420FFF747FA1A48FFF7BCFEF2
:102B80000020ADF80A00ADF8060040F2E730ADF8DD
:102B900008004720ADF8040000208DF80C0001A9C2
:102BA0001048FFF789FF01210E48FFF7F5FD0122CC
:102BB00011460C48FFF797FE4FF4A060FFF778F935
:102BC0001E208DF8000001208DF803008DF8010013
:102BD0008DF802006846FFF733F901210148FFF73D
:102BE000E1FD1FBD0008004010B540F22551094825
:102BF00000F03EF801280CD1064800F0F5F806492F
:102C0000087001200549087040F22551014800F084
:102C100007F810BD004400406C0000206D0000204B
:102C200010B50022002340F66A14A14200D100BF73
:102C30000A1201249440A3B2DC43048010BD21B1E8
:102C4000828942F40052828104E082894DF6FF734A
:102C50001A408281704702460020B1F5007F00D102
:102C600000BF13880B400BB1012000E0002070472B
:102C700070B50246002400230025002040F66A16A5
:102C8000B14200D100BFC1F3421501F01F0301267C
:102C900006FA03F3012D02D19689334006E0022D96
:102CA00002D1168A334001E0968A33400C12012685
:102CB00006FA04F41688344013B10CB1012000E088
:102CC000002070BDF0B5034600240026002500203A
:102CD00040F66A17B94200D100BF1846C1F342144A
:102CE00001F01F06012707FA06F5012C01D10C306F
:102CF00004E0022C01D1103000E014301AB1076852
:102D00002F43076002E00768AF430760F0BD000093
:102D10002DE9F04786B005460E460024A24600BFC6
:102D2000A1460027B08900B100BF2F462C8A4CF67F
:102D3000FF700440F08804432C82AC894EF6F310F7
:102D40000440B08831890843718908430443AC8149
:102D5000AC8A4FF6FF400440B0890443AC8201A81E
:102D6000FFF772F91F48874202D1DDF810A001E099
:102D7000DDF80CA0A88900F4004040B10AEBCA00BD
:102D800000EB0A1031684900B0FBF1F807E00AEBEC
:102D9000CA0000EB0A1031688900B0FBF1F864202A
:102DA000B8FBF0F004012009642101FB1089A88917
:102DB00000F4004040B1322000EBC900B0FBF1F05C
:102DC00000F00700044308E0322000EB0910642102
:102DD000B0FBF1F000F00F0004432C8106B0BDE819
:102DE000F08700000038014001468888C0F30800E1
:102DF0007047C1F308028280704700BFFEE74900B8
:102E000050EAC12018BF04204A0D18BF40F001004D
:102E100040F2FF72B2EB515F08BF40F002000128A0
:102E200008BF0520704730380A2801D201207047BA
:102E3000002070471FB5FEF7DDFFFFF76FF9FFF7C2
:102E400097FEFEF777FEFFF7D9F935E000F05CF862
:102E50001A49886800F056FC04460D461749486830
:102E600000F050FC06460F461449086800F04AFC82
:102E7000804642460B4612A0CDE90067CDE90245E7
:102E8000FFF718FA1149886800F03CFC04460D462B
:102E90000E49486800F036FC06460F460B490868A4
:102EA00000F030FC804642460B4605A0CDE90067A5
:102EB000CDE90245FFF7FEF9C8E700004000002019
:102EC00025662C25662C25660D0A000014000020BE
:102ED00070B505460C46284600F0FEFC0349086024
:102EE000204600F0F9FC0249086070BD1400002083
:102EF0004000002070B505460C462846FEF73AFF14
:102F00002046FEF757FF70BD10B5FFF72DF90128D9
:102F10001BD1FFF731F9C0B9FFF736F9A8B9FFF7B0
:102F20003BF990B9FFF742F978B9FFF749F960B971
:102F3000FFF750F948B9FFF757F930B9DC48DD49D8
:102F40000860DD48DD490860B0E1FFF70DF90128B0
:102F50001CD1FFF711F9012818D1FFF715F9A8B90D
:102F6000FFF71AF990B9FFF721F978B9FFF728F9B7
:102F700060B9FFF72FF948B9FFF736F930B9D048F3
:102F8000CC490860CF48CD4908608FE1FFF7ECF8E5
:102F9000D0B9FFF7F1F8012816D1FFF7F5F898B985
:102FA000FFF7FAF880B9FFF701F968B9FFF708F9F8
:102FB00050B9FFF70FF938B9FFF716F920B92621F4
:102FC0000D20FFF785FF71E1FFF7CEF8D8B9FFF7C5
:102FD000D3F8012817D1FFF7D7F8012813D1FFF74D
:102FE000DBF880B9FFF7E2F868B9FFF7E9F850B904
:102FF000FFF7F0F838B9FFF7F7F820B923210F20D1
:10300000FFF766FF52E1FFF7AFF8D0B9FFF7B4F86A
:10301000B8B9FFF7B9F8012813D1FFF7BDF880B9A7
:10302000FFF7C4F868B9FFF7CBF850B9FFF7D2F84B
:1030300038B9FFF7D9F820B920211120FFF748FF50
:1030400034E1FFF791F8D8B9FFF796F8C0B9FFF768
:103050009BF8012814D1FFF79FF8012810D1FFF742
:10306000A5F868B9FFF7ACF850B9FFF7B3F838B96D
:10307000FFF7BAF820B91E211420FFF729FF15E148
:10308000FFF772F8D0B9FFF777F8B8B9FFF77CF817
:10309000A0B9FFF781F8012810D1FFF787F868B9C8
:1030A000FFF78EF850B9FFF795F838B9FFF79CF89D
:1030B00020B91C211620FFF70BFFF7E0FFF754F8AB
:1030C000D8B9FFF759F8C0B9FFF75EF8A8B9FFF70C
:1030D00063F8012811D1FFF769F801280DD1FFF736
:1030E0006FF850B9FFF776F838B9FFF77DF820B9D7
:1030F00019210846FFF7ECFED8E0FFF735F8D0B904
:10310000FFF73AF8B8B9FFF73FF8A0B9FFF744F86E
:1031100088B9FFF74BF801280DD1FFF751F850B9E6
:10312000FFF758F838B9FFF75FF820B916211C20CF
:10313000FFF7CEFEBAE0FFF717F8D8B9FFF71CF893
:10314000C0B9FFF721F8A8B9FFF726F890B9FFF743
:103150002DF801280ED1FFF733F801280AD1FFF727
:1031600039F838B9FFF740F820B914211E20FFF7CD
:10317000AFFE9BE0FEF7F8FFD0B9FEF7FDFFB8B950
:10318000FFF702F8A0B9FFF707F888B9FFF70EF8C4
:1031900070B9FFF715F801280AD1FFF71BF838B905
:1031A000FFF722F820B911212020FFF791FE7DE0E2
:1031B000FEF7DAFFD8B9FEF7DFFFC0B9FEF7E4FF8C
:1031C000A8B9FEF7E9FF90B9FEF7F0FF78B9FEF76E
:1031D000F7FF01280BD1FEF7FDFF012807D1FFF70C
:1031E00003F820B90F212320FFF772FE5EE0FEF7FF
:1031F000BBFFD0B9FEF7C0FFB8B9FEF7C5FFA0B955
:10320000FEF7CAFF88B9FEF7D1FF70B9FEF7D8FF05
:1032100058B9FEF7DFFF012807D1FEF7E5FF20B917
:103220000D212620FFF754FE40E0FEF79DFFD8B9A0
:10323000FEF7A2FFC0B9FEF7A7FFA8B9FEF7ACFFE3
:1032400090B9FEF7B3FF78B9FEF7BAFF60B9FEF7A1
:10325000C1FF012808D1FEF7C7FF012804D10A21C8
:103260002820FFF735FE21E0FEF77EFFD0B9FEF7FC
:1032700083FFB8B9FEF788FFA0B9FEF78DFF88B9C4
:10328000FEF794FF70B9FEF79BFF58B9FEF7A2FF57
:1032900040B9FEF7A9FF012804D105212D20FFF731
:1032A00017FE03E014210846FFF712FE10BD0000D0
:1032B0000000A04014000020000034424000002024
:1032C000000020410000204210B500290AD00878F3
:1032D000002807D005487844FDF7FEFF002801D0FC
:1032E000002010BD0248784410BD0000A60A00006E
:1032F0009E0A000010B500290AD00878002807D0DF
:1033000005487844FDF7E8FF002801D0002010BDF3
:103310000248784410BD0000960A00008E0A0000A2
:103320002DE9C04130B4DFF8A0C23CEA111418BF47
:103330003CEA131400F0EC8081EA03051CEA111446
:1033400044EAD57418BF1CEA131500F0C780A4EB3B
:1033500005044FF0004545EAC12145EAC32341EA8F
:10336000505143EA525304F17F74994204F50034FA
:103370004FEAC0204FEAC22208BF904200F09C8072
:103380004FEA13650FF24016765D4FEA134506FBD0
:1033900005F7C7F1807706FB07F74FEAD737A7FB9A
:1033A00003687642C8F58038A7FB06CE38BFA8F17F
:1033B000010807FB08E64FF0000EA6FB028CE6FBB7
:1033C00003CEDCF1000CCEF1004E38BFAEF1010EA1
:1033D000A6FB0C584FF000074FF00005E6FB0E87E8
:1033E000A1FB08C6A0FB07CE16EB0E0645F10005B3
:1033F000E1FB076515F1E04E7EBFA4F580345FEA7E
:1034000046066D4116F1800745F100054FEA172782
:103410004FEA066647EA0567A6F1DE46B6F1805F29
:103420004FEA15251FD9384624F0010C05EBC4716D
:10343000BCF1FE6F01EB0C1102D8F0BCBDE80081BD
:1034400024425CBF01F5801E9EEAC47F02D4F0BC1A
:10345000BDE80081244238D4F0BCA1F1C041BDE8F0
:10346000004100F049B94FEAD22242EA43524FEA02
:10347000D323A7FB02864FEAD02040EA415007FB46
:1034800003661EEA0E0F4FEAD12105FB026658BF04
:10349000A6EB0056B6EB00564FEA520E4EEAC37E3C
:1034A00018EB0E0E56EB530EBDD518EB02085E411D
:1034B0007F1C55F10005B6E74FF480154FF000076B
:1034C0004FF000064FF00008ADE7F0BC4FF00000F1
:1034D00001F1C04101F00041BDE8008111EA0C1F7B
:1034E0000CEA131500D00CE013EA0C1F00F0258045
:1034F0004FF00000F0BC81EA030101F00041BDE89B
:103500000081F0BCBDE8004181EA030100F0F4B89D
:10351000F0BCBDE8004170B500F0A0F8097EFC3EAB
:1035200000F007B881EA03014FF0000001F000410C
:10353000704781EA030100F0DFB8F0BCBDE800414C
:103540004FF0000021497047FFFDFBF9F7F5F4F259
:10355000F0EEEDEBE9E8E6E4E3E1E0DEDDDBDAD82E
:10356000D7D5D4D3D1D0CFCDCCCBCAC8C7C6C5C48C
:10357000C2C1C0BFBEBDBCBBBAB9B8B7B6B5B4B3A3
:10358000B2B1B0AFAEADACABAAA9A8A8A7A6A5A48E
:10359000A3A3A2A1A09F9F9E9D9C9C9B9A99999852
:1035A0009797969595949393929191908F8F8E8EF5
:1035B0008D8C8C8B8B8A8989888887878685858482
:1035C00084838382828181800000FF070000F87F6E
:1035D0004FEA41034FEA5353A3F58063D3F11E032F
:1035E000C8BFD3F1210C0CDD4FF0004242EAC122EA
:1035F00042EA505232FA03FC8CEAE17CACEBE17017
:103600007047102BC4BF0020704703F5787CBCF1D5
:10361000FF3F04D06FF0004282EA2100704770B58E
:1036200000F01CF84992248000207047F2E710F067
:10363000004248BF4042B0FA80F310FA03F10AD0CA
:10364000C3F11D0303F580634FEA415002EB0352BF
:1036500002EBD12170474FF0000070470EF1020ECF
:103660002EF0030E5EF8046B364205D4012A43EBBC
:10367000030515F5001F12D8012841EB010C1CF5BC
:10368000001F0CD80ED14FEAD17C15F5001F0CEBB2
:103690004C0C0CF1020C08BF4CEBD37C04E04FF057
:1036A000080C01E04FEAD37C0CEB4C0526FA05F63A
:1036B00006F00706B6F1040C06D20EEB860CBDE848
:1036C00070404CF0010C6047DFE80CF0090B02027F
:1036D0004FF000414FF00000A1F5002170BD1946E8
:1036E0001046012851EB010418BFD4F5001484BF23
:1036F000002001F0004170BD0808A0F500114FEA5C
:103700003101704743004FEAD30C4FEA3C0C434071
:103710001FBF40070CF1605113F0FE4F70471CF0C3
:10372000006F03D100200CF0004170470CF0004303
:1037300043EA507010B540EACC0000F09AF900BF9F
:10374000000000924FEA0001FFF7D6BF4FF00041A2
:103750004FF00000A1F500217047000090EA010F32
:1037600048BF81F0004100F10882421A3CBF801A34
:1037700089184FEAD0524FF07F4C1CEA410FA2EB60
:10378000D15318BF9CEA026F00F03B804FF0004C11
:103790004CEA00204CEA012121FA03FC10EB0C0C4E
:1037A0001ED202F1FF325FEA1C2040EBC25038BF4C
:1037B00070471CF07F0F4FEA400C18BFBCF17F4FE1
:1037C00038BF7047C3F12003994008BF20F00100C3
:1037D000BCF17F4F38BF7047A0F1C04000F08FB9F7
:1037E0004FEA3C00000A40EBC25028BF1CF0FF0F1C
:1037F0004FEA400CE6D018BFBCF17F4F38BF70478E
:10380000EAE79CEA026F05D010EA5C0F08BF00F0FF
:103810000040704710B500F02CF900BF64FBBE3EBD
:10382000401058BFC0F14040491058BFC1F140415D
:103830008142EFF30080704750EA010C00F11380E1
:103840001CF5000F58BFBCF5000F01D4884270472B
:1038500007D710F5000F58BF11F5000F15D4884297
:103860007047894270471CF5000F04D5BCF5000F66
:10387000F7D5814270474FF0807C1CEB400F38BF7A
:103880001CEB410F01D28142704710B500F0F1F8F6
:10389000922449004FF000504FF08051FFF7C0BF15
:1038A00041000B0ED3F19E0208D950F400034FEAF9
:1038B000032323FA02F048BF4042704710B500F0DE
:1038C000D8F800BF49922480002070476FF0004272
:1038D00082EA20007047000010F0004148BF4042DB
:1038E000B0FA80F310FA03F2C3F19D030BD051EA52
:1038F000C35101EB1220530638BF704700F101009D
:1039000008BF20F00100704750EA010C00F113805D
:103910001CF5000F58BFBCF5000F01D4884270475A
:1039200007D710F5000F58BF11F5000F15D48842C6
:103930007047894270471CF5000F04D5BCF5000F95
:10394000F7D5814270474FF0807C1CEB400F38BFA9
:103950001CEB410F01D28142704710B500F089F88D
:10396000922449004FF000504FF08051FFF758BFAC
:103970004FF47F0C1CEAD0121EBF1CEAD11392EA4E
:103980000C0F93EA0C0F00F0478090EA010F48BF3C
:1039900042F480724FF0004C4CEA00204CEA0121C6
:1039A00002EB0302A0FB0113A2F50002002918BFDD
:1039B00043F001035B0028BF4FEA330342EB22428E
:1039C0005FEA132C4CEBC2502EBFBCEB436FB2F539
:1039D0007C0F70474FEA036CBCF1004F08BF20F02A
:1039E0000100B2F57C0F38BF70470BD582F0FF02A3
:1039F00012F5803FC8BF704700F1C040D8BF00F04B
:103A00000040704700F5000C5FEA4C0C48BF70475F
:103A1000B0F1C04000F073B890EA010F0CEAD11386
:103A200048BF42F48072624538BF634504D280EAE1
:103A3000010000F00040704710B500F01AF800BF18
:103A40008900013E00F007B800F009B85FEA410CB8
:103A50005FEA1C6C08D080EA010000F050B85FEA11
:103A6000400C5FEA1C6CF6D14FF00040A0F58000DE
:103A700070470EF1020E2EF0030E5EF8044B244246
:103A800004D44FEA4102B2F17F4F11D84FEA40030C
:103A9000B3F17F4F0CD80ED14FEAD07CB2F17F4FFB
:103AA0000CEB4C0C0CF1020C08BF4CEBD17C04E08D
:103AB0004FF0080C01E04FEAD17C0CEB4C0324FAE8
:103AC00003F404F00704B4F1040C06D20EEB840CEA
:103AD000BDE810404CF0010C6047DFE80CF007082F
:103AE00002024FF00040A0F5800010BD08464200E1
:103AF00018BFD2F1807288BF00F0004010BDFF21D6
:103B000041EAD050C005704751EA000C00F1138023
:103B10001CF5000F58BFBCF5000F01D4814270475F
:103B200007D711F5000F58BF10F5000F15D48142CB
:103B30007047894270471CF5000F04D5BCF5000F93
:103B4000F7D5884270474FF0807C1CEB410F38BF9F
:103B50001CEB400F01D28842704780EA010081EAE5
:103B6000000180EA0100FFF7F8BE000090EA010FB3
:103B700048BF81F000413FF5F8AD421A04D882F009
:103B80000042A0EB020011444FEAD0524FF07F4CAC
:103B90001CEA410FA2EBD15318BF9CEA026F4AD036
:103BA0004FF0004C4CEA00204CEA012121FA03FCC2
:103BB000B0EB0C0C0FD412F0FE0F36D05FEA4C00C5
:103BC0001DD5001240EBC25038BF70471CF03F0FAC
:103BD00018BF70470BE0A2F101025FEA1C2040EB26
:103BE000C25038BF70471CF07F0F18BF7047C3F139
:103BF0002003994014BF401E20F001007047800848
:103C00004FEA122308BF7047B0FA80FCA2EB0C0207
:103C1000CCF1280C60FA0CF093EA122F04BF00EBF1
:103C2000C25070474FEAC3707047130A5FEADC1056
:103C300008BF7047F6E79CEA026F04D010EA5C0FF9
:103C400008BF0020704710B5FFF713FF40DFF63EB6
:103C500081F000407047FCF74CBFFDF781B80000D1
:103C600000000000000000003031323334353637B8
:103C700038394142434445464030580030313233B0
:103C800034353637383961626364656640307800B0
:103C90000400000800000000000000020001000015
:103CA0001030313233343536373839616263646508
:103CB0006678700030313233343536373839414226
:103CC000434445465850000002400000000000A058
:103CD0000000000005400000000000C800000000D7
:103CE0000C4000000000409C000000001940000053
:103CF0000020BCBE0000000034400000BFC91B8E85
:103D000000000004B5400000504BCFD06607E2CF62
:103D1000010000006C4100003E8251AADFEEA73492
:103D200001000000D9420000DCB5A0E23A301F9744
:103D3000FFFFFFFFB4450000FD25A0C8E9A3C14F68
:103D4000FFFFFFFFFF3F00000000008000000000B9
:103D5000FF3F00000000008000000000A83E0008B7
:103D6000000000207800000028010008203F000823
:103D70007800002060060000440100081C000000DC
:103D800043000000F8FFFFFF0C0000000E000000E1
:103D90000F0000002E000000100100004300000092
:103DA000F8FFFFFF0040404040404040404041415C
:103DB0004141414040404040404040404040404000
:103DC000404040404005020202020202020202029A
:103DD0000202020202202020202020202020200297
:103DE0000202020202029090909090901010101027
:103DF00010101010101010101010101010101010C3
:103E00000202020202028888888888880808080856
:103E10000808080808080808080808080808080822
:103E2000020202024000000000000000000000004A
:103E30000000000000000000000000000000000082
:103E40000000000000000000000000000000000072
:103E50000000000000000000000000000000000062
:103E60000000000000000000000000000000000052
:103E70000000000000000000000000000000000042
:103E80000000000000000000000000000000000032
:103E90000000000000000000000000000000000022
:103EA0000000000000000000000000000102030408
:103EB00001020304060708090204060800000000C6
:103EC0000000000000000000000000400000003F73
:103ED0008FC2F53D0000000000000000000000005F
:103EE0000000C8420000C8C200000000000000003E
:103EF00000000000000000400000003F8FC2F53DC0
:103F00000000000000000000000000000000C842A7
:103F10000000C8C200000000000000000000000017
:04000005080000ED02
:00000001FF
