:020000040800F2
:10000000700600208901000891040008BF03000861
:10001000C303000843020008E509000800000000CF
:10002000000000000000000000000000E1050008E2
:10003000470200080000000055050008610700089D
:10004000A3010008A3010008A3010008A301000800
:10005000A3010008A3010008A3010008A3010008F0
:10006000A3010008A3010008A3010008A3010008E0
:10007000A3010008A3010008A3010008A3010008D0
:10008000A3010008A3010008A3010008A3010008C0
:10009000A3010008A3010008A3010008A3010008B0
:1000A000A3010008A3010008A3010008A3010008A0
:1000B000A3010008A3010008A3010008A301000890
:1000C000A3010008A3010008A3010008A301000880
:1000D000A3010008A3010008A3010008A301000870
:1000E000A3010008A3010008A301000800F002F822
:1000F00000F03AF80AA090E8000C82448344AAF188
:100100000107DA4501D100F02FF8AFF2090EBAE885
:100110000F0013F0010F18BFFB1A43F0010318473B
:10012000500F0000700F0000103A24BF78C878C14B
:10013000FAD8520724BF30C830C144BF04680C60ED
:10014000704700000023002400250026103A28BF35
:1001500078C1FBD8520728BF30C148BF0B60704739
:100160001FB51FBD10B510BD00F031F81146FFF7E7
:10017000F7FF00F0D1FC00F04FF803B4FFF7F2FFF7
:1001800003BC00F057F800000948804709480047C1
:10019000FEE7FEE7FEE7FEE7FEE7FEE7FEE7FEE737
:1001A000FEE7FEE704480549054A064B7047000094
:1001B00065070008ED0000087000002070060020B0
:1001C000700200207002002070477047704775462B
:1001D00000F02CF8AE4605006946534620F00700B3
:1001E000854618B020B5FFF7DDFFBDE820404FF091
:1001F00000064FF000074FF000084FF0000B21F011
:100200000701AC46ACE8C009ACE8C009ACE8C009DD
:10021000ACE8C0098D46704710B50446AFF30080C6
:100220002046BDE81040FFF7A8BF00000048704717
:100230000C00002001491820ABBEFEE7260002009A
:10024000704700BFFEE7704700B5034603E04FF478
:100250007A7000F005F8181EA3F10103F7D100BD74
:1002600000EBC001C9004FF0E02251610021916113
:100270000521116100BF4FF0E021096901F48031CF
:100280000029F8D004214FF0E022116170472DE9D8
:10029000F04102460025002600200023002400270C
:1002A00091F803C00CF00F0591F803C00CF0100C8E
:1002B000BCF1000F03D091F802C04CEA050591F89B
:1002C00000C0BCF1000F31D0146800202BE04FF0CB
:1002D000010C0CFA00F3B1F800C00CEA03069E42D0
:1002E00020D183004FF00F0C0CFA03F7BC4305FA42
:1002F00003FC4CEA040491F803C0BCF1280F06D1BA
:100300004FF0010C0CFA00FCC2F814C00AE091F89E
:1003100003C0BCF1480F05D14FF0010C0CFA00FCF2
:10032000C2F810C0401C0828D1D31460B1F800C036
:10033000BCF1FF0F34DD546800202EE000F1080C02
:100340004FF0010808FA0CF3B1F800C00CEA0306FC
:100350009E4221D183004FF00F0C0CFA03F7BC43EF
:1003600005FA03FC4CEA040491F803C0BCF1280F21
:1003700005D100F1080C08FA0CF8C2F8148091F8C5
:1003800003C0BCF1480F07D100F1080C4FF0010881
:1003900008FA0CF8C2F81080401C0828CED354602C
:1003A000BDE8F0810246002093680B400BB10120AC
:1003B00000E000207047416170470161704700BF55
:1003C000FEE700BFFEE7000010B50446002C0BDB83
:1003D00020210C48FFF7F1FF10210A48FFF7EBFF3F
:1003E000A0B200F0A7F80BE010210648FFF7E5FFE8
:1003F00020210448FFF7DFFF614288B200F09AF83D
:1004000010BD00000008014010B50446002C0BDBB5
:1004100002210C48FFF7D1FF08210A48FFF7CBFF64
:10042000A0B200F08FF80BE008210648FFF7C5FFE7
:1004300002210448FFF7BFFF614288B200F082F852
:1004400010BD0000000C014008B50121042000F09F
:1004500093F80121082000F08FF810208DF8030098
:100460000A20ADF8000003208DF802006946064816
:10047000FFF70DFF3020ADF8000069460348FFF795
:1004800006FF00F007F808BD000C0140000801401D
:100490007047000000B589B00121084600F05CF803
:1004A0000121042000F068F818208DF823000320B3
:1004B000ADF820008DF8220008A91D48FFF7E7FEDF
:1004C0004FF0804000F08AF90020ADF81A00ADF836
:1004D00016006320ADF8180040F2CF20ADF81400EC
:1004E00000208DF81C0005A94FF0804000F028FA8C
:1004F00001A800F017FA6020ADF804000020ADF864
:100500000C000120ADF806000020ADF80A0001A99A
:100510004FF0804000F068F901A94FF0804000F0F2
:10052000AFF90121880700F04DF909B000BD0000C6
:100530000008014010B5044621464FF0804000F00D
:10054000FBF910BD10B5044621464FF0804000F085
:10055000F5F910BD7047000029B1064AD26902437F
:10056000044BDA6104E0034AD2698243014BDA6149
:10057000704700000010024029B1064A9269024308
:10058000044B9A6104E0034A92698243014B9A61E9
:10059000704700000010024008B501210420FFF759
:1005A000EBFF01210820FFF7E7FF40F63170ADF8BF
:1005B000000048208DF8030003208DF802006946F2
:1005C0000548FFF764FE4FF48060ADF8000069460F
:1005D0000248FFF75CFE08BD000C01400008014026
:1005E0007047000010B501210148FFF7DBFE10BD88
:1005F000000C014010B510210148FFF7D3FE10BDDB
:10060000000C014010B520210148FFF7CBFE10BDC2
:10061000000C014010B54FF480710248FFF7C2FE94
:1006200010BD0000000C014010B54FF400710248ED
:10063000FFF7B8FE10BD0000000C014010B54FF4EC
:1006400080610248FFF7AEFE10BD0000000C0140C3
:1006500010B54FF400610248FFF7A4FE10BD000082
:10066000000C014010B54FF480610248FFF79AFE7C
:1006700010BD00000008014010B500F001F810BDE9
:100680000CB50020019000903348006840F48030A1
:100690003149086000BF3048006800F40030009025
:1006A0000198401C0190009818B90198B0F5A06F0E
:1006B000F1D12948006800F4003010B10120009009
:1006C00001E0002000900098012843D123480068F1
:1006D00040F01000214908600846006820F003003F
:1006E00008600846006840F0020008601A48406848
:1006F000194948600846406848600846406840F428
:10070000806048600846406820F47C1048600846D5
:10071000406840F4E81048600846006840F0807087
:10072000086000BF0C48006800F000700028F9D095
:100730000948406820F003000749486008464068BF
:1007400040F00200486000BF0348406800F00C0021
:100750000828F9D10CBD0000001002400020024022
:100760007047000010B51348006840F001001149BF
:10077000086008464068104908400E49486008462D
:1007800000680E4908400B4908600846006820F4DC
:10079000802008600846406820F4FE0048604FF45E
:1007A0001F008860FFF768FF4FF000600449086091
:1007B00010BD0000001002400000FFF8FFFFF6FE31
:1007C00008ED00E021B1028842F00102028004E05D
:1007D00002884FF6FE731A400280704701894FF677
:1007E000F87211400181704770B500240022002387
:1007F000058C4FF6FE7635400584028C8388048B89
:100800004FF68F752C40B51E2C400D882C43751E5D
:100810002A400D892A434D882A43144DA8420BD003
:10082000134DA84208D0134DA84205D0124DA8423E
:1008300002D0124DA84213D14FF6F7752A404D89C8
:100840002A434FF6FB752A408D882A434FF6FF65F1
:100850002B404FF6FF552B408D892B43CD892B43E1
:1008600083800483CD888586028470BD002C01407E
:100870000034014000400140004401400048014074
:1008800070B5002400220023058C4FF6EF7635402A
:100890000584028C8388048B48F6FF752C404FF644
:1008A000FF452C400D884FF6FF7606EA05252C43C0
:1008B0004FF6DF752A400D8906EA05152A434D8853
:1008C00006EA05152A43154DA84202D0144DA84248
:1008D0001DD14FF67F752A404D894FF6FF7606EA07
:1008E00005152A434FF6BF752A408D8806EA05157F
:1008F0002A434FF6FF352B404FF2FF752B408D8971
:1009000006EA85052B43CD8906EA85052B438380BE
:100910000483CD880587028470BD0000002C01404F
:10092000003401400021018041808180C18001812B
:1009300041818181C18170478186704701877047FD
:10094000002202881D4B98420ED01D4B98420BD0BE
:10095000B0F1804F08D01B4B984205D01A4B9842FB
:1009600002D01A4B984204D14FF68F731A404B882D
:100970001A43174B984207D0164B984204D04FF6B3
:10098000FF431A40CB881A4302808B8883850B88EB
:1009900003850A4B98420BD0094B984208D00E4B66
:1009A000984205D00D4B984202D00D4B984201D190
:1009B0000B7A03860123838270470000002C0140DC
:1009C000003401400004004000080040000C0040DA
:1009D000001000400014004000400140004401406D
:1009E0000048014000BFFEE770B504460025092C11
:1009F00046D2DFE804F045050D151D252D353D00D7
:100A0000FFF7F0FD012801D1012500E0002537E0C6
:100A1000FFF7F0FD012801D1012500E000252FE0BE
:100A2000FFF7F0FD012801D1012500E0002527E0B6
:100A3000FFF7F0FD012801D1012500E000251FE0AE
:100A4000FFF7F2FD012801D1012500E0002517E0A4
:100A5000FFF7F4FD012801D1012500E000250FE09A
:100A6000FFF7F6FD012801D1012500E0002507E090
:100A7000FFF7F8FD012801D1012500E0002500BFA6
:100A800000BF284670BD000010B56420FFF7DCFBF6
:100A90000120FFF7A9FF08B30220FFF7A5FFE8B187
:100AA0000320FFF7A1FFC8B10420FFF79DFFA8B105
:100AB0000520FFF799FF88B10620FFF795FF68B181
:100AC0000720FFF791FF48B10820FFF78DFF28B1FD
:100AD0000F480078401C0E49087003E000200C49C4
:100AE000087010BD0A48007802280FDB094800781A
:100AF000401C084908700021084600F05BF840F6E9
:100B0000B830FFF7A1FB00200149087000BFE8E7FB
:100B10000800002000000020FFF796FCFFF73CFDD6
:100B200047E00120FFF760FFF0B90220FFF75CFF0C
:100B3000D0B90320FFF758FFB0B90420FFF754FFE6
:100B400090B90520FFF750FF70B90620FFF74CFF62
:100B500050B90720FFF748FF30B90820FFF744FFDE
:100B600010B900F031F824E00120FFF73DFFF0B1AB
:100B70000220FFF739FFD0B10320FFF735FFB0B1F6
:100B80000420FFF731FF90B10520FFF72DFF70B172
:100B90000620FFF729FF50B10720FFF725FF30B1EE
:100BA0000820FFF721FF10B1FFF76EFF01E000F012
:100BB0000BF8B6E770B505460C462846FFF704FC6F
:100BC0002046FFF721FC70BD10B50120FFF70CFF98
:100BD000012820D10220FFF707FFE0B90320FFF72B
:100BE00003FFC0B90420FFF7FFFEA0B90520FFF7FF
:100BF000FBFE80B90620FFF7F7FE60B90720FFF77C
:100C0000F3FE40B90820FFF7EFFE20B92D210520A3
:100C1000FFF7D0FF2BE20120FFF7E6FE012821D1EC
:100C20000220FFF7E1FE01281CD10320FFF7DCFEC4
:100C3000C0B90420FFF7D8FEA0B90520FFF7D4FE05
:100C400080B90620FFF7D0FE60B90720FFF7CCFE81
:100C500040B90820FFF7C8FE20B928210A20FFF775
:100C6000A9FF04E20120FFF7BFFE08BB0220FFF747
:100C7000BBFE01281CD10320FFF7B6FEC0B904203B
:100C8000FFF7B2FEA0B90520FFF7AEFE80B906203F
:100C9000FFF7AAFE60B90720FFF7A6FE40B90820BB
:100CA000FFF7A2FE20B926210D20FFF783FFDEE12A
:100CB0000120FFF799FE10BB0220FFF795FE0128E7
:100CC0001DD10320FFF790FE012818D10420FFF763
:100CD0008BFEA0B90520FFF787FE80B90620FFF73D
:100CE00083FE60B90720FFF77FFE40B90820FFF7B9
:100CF0007BFE20B923210F20FFF75CFFB7E1012025
:100D0000FFF772FE08BB0220FFF76EFEE8B9032072
:100D1000FFF76AFE012818D10420FFF765FEA0B98D
:100D20000520FFF761FE80B90620FFF75DFE60B980
:100D30000720FFF759FE40B90820FFF755FE20B9FC
:100D400020211120FFF736FF91E10120FFF74CFE33
:100D500010BB0220FFF748FEF0B90320FFF744FE66
:100D6000012819D10420FFF73FFE012814D10520E6
:100D7000FFF73AFE80B90620FFF736FE60B907207C
:100D8000FFF732FE40B90820FFF72EFE20B91E21E2
:100D90001420FFF70FFF6AE10120FFF725FE08BBD3
:100DA0000220FFF721FEE8B90320FFF71DFEC8B9B6
:100DB0000420FFF719FE012814D10520FFF714FEC7
:100DC00080B90620FFF710FE60B90720FFF70CFE80
:100DD00040B90820FFF708FE20B91C211620FFF7B4
:100DE000E9FE44E10120FFF7FFFD10BB0220FFF701
:100DF000FBFDF0B90320FFF7F7FDD0B90420FFF7A2
:100E0000F3FD012815D10520FFF7EEFD012810D1D3
:100E10000620FFF7E9FD60B90720FFF7E5FD40B9BF
:100E20000820FFF7E1FD20B919210846FFF7C2FEAF
:100E30001DE10120FFF7D8FD08BB0220FFF7D4FD1C
:100E4000E8B90320FFF7D0FDC8B90420FFF7CCFDB7
:100E5000A8B90520FFF7C8FD012810D10620FFF72B
:100E6000C3FD60B90720FFF7BFFD40B90820FFF7B9
:100E7000BBFD20B916211C20FFF79CFEF7E00120E6
:100E8000FFF7B2FD10BB0220FFF7AEFDF0B9032063
:100E9000FFF7AAFDD0B90420FFF7A6FDB0B90520E1
:100EA000FFF7A2FD012811D10620FFF79DFD0128C3
:100EB0000CD10720FFF798FD40B90820FFF794FDFB
:100EC00020B914211E20FFF775FED0E00120FFF7A6
:100ED0008BFD08BB0220FFF787FDE8B90320FFF771
:100EE00083FDC8B90420FFF77FFDA8B90520FFF7EF
:100EF0007BFD88B90620FFF777FD01280CD107207C
:100F0000FFF772FD40B90820FFF76EFD20B91121EF
:100F10002020FFF74FFEAAE00120FFF765FD10BB80
:100F20000220FFF761FDF0B90320FFF75DFDD0B9A6
:100F30000420FFF759FDB0B90520FFF755FD90B922
:100F40000620FFF751FD01280DD10720FFF74CFDCA
:100F5000012808D10820FFF747FD20B90F212320E1
:100F6000FFF728FE83E00120FFF73EFD08BB0220CB
:100F7000FFF73AFDE8B90320FFF736FDC8B90420B2
:100F8000FFF732FDA8B90520FFF72EFD88B906202E
:100F9000FFF72AFD68B90720FFF726FD012808D1D1
:100FA0000820FFF721FD20B90D212620FFF702FEC2
:100FB0005DE00120FFF718FD10BB0220FFF714FDD4
:100FC000F0B90320FFF710FDD0B90420FFF70CFDA6
:100FD000B0B90520FFF708FD90B90620FFF704FD22
:100FE00070B90720FFF700FD012809D10820FFF79D
:100FF000FBFC012804D10A212820FFF7DBFD36E0A5
:101000000120FFF7F1FC08BB0220FFF7EDFCE8B977
:101010000320FFF7E9FCC8B90420FFF7E5FCA8B9F5
:101020000520FFF7E1FC88B90620FFF7DDFC68B971
:101030000720FFF7D9FC48B90820FFF7D5FC0128A5
:1010400004D100212D20FFF7B5FD10E00820FFF7A7
:10105000CBFC012807D105214620FFF7ABFD3C2042
:10106000FFF7F2F803E014210846FFF7A3FD10BDD7
:1010700090100008000000200C000000280100086B
:101080009C1000080C0000206406000044010008C9
:0C10900000000000000000000000000054
:04000005080000ED02
:00000001FF
